{
  "contractName": "Tourisme",
  "abi": [
    {
      "inputs": [
        {
          "internalType": "address",
          "name": "owner",
          "type": "address"
        }
      ],
      "stateMutability": "nonpayable",
      "type": "constructor"
    },
    {
      "anonymous": false,
      "inputs": [
        {
          "indexed": true,
          "internalType": "address",
          "name": "previousOwner",
          "type": "address"
        },
        {
          "indexed": true,
          "internalType": "address",
          "name": "newOwner",
          "type": "address"
        }
      ],
      "name": "OwnershipTransferred",
      "type": "event"
    },
    {
      "inputs": [
        {
          "internalType": "address",
          "name": "",
          "type": "address"
        }
      ],
      "name": "clients",
      "outputs": [
        {
          "internalType": "string",
          "name": "nom",
          "type": "string"
        },
        {
          "internalType": "string",
          "name": "email",
          "type": "string"
        },
        {
          "internalType": "string",
          "name": "password",
          "type": "string"
        },
        {
          "internalType": "bool",
          "name": "isClient",
          "type": "bool"
        },
        {
          "internalType": "uint256",
          "name": "no_reservation",
          "type": "uint256"
        },
        {
          "internalType": "uint256",
          "name": "date_registration",
          "type": "uint256"
        }
      ],
      "stateMutability": "view",
      "type": "function"
    },
    {
      "inputs": [
        {
          "internalType": "uint256",
          "name": "",
          "type": "uint256"
        }
      ],
      "name": "offers",
      "outputs": [
        {
          "internalType": "enum Tourisme.Destination",
          "name": "_dest",
          "type": "uint8"
        },
        {
          "internalType": "uint256",
          "name": "priceinTokens",
          "type": "uint256"
        }
      ],
      "stateMutability": "view",
      "type": "function"
    },
    {
      "inputs": [],
      "name": "owner",
      "outputs": [
        {
          "internalType": "address",
          "name": "",
          "type": "address"
        }
      ],
      "stateMutability": "view",
      "type": "function"
    },
    {
      "inputs": [],
      "name": "renounceOwnership",
      "outputs": [],
      "stateMutability": "nonpayable",
      "type": "function"
    },
    {
      "inputs": [
        {
          "internalType": "address",
          "name": "newOwner",
          "type": "address"
        }
      ],
      "name": "transferOwnership",
      "outputs": [],
      "stateMutability": "nonpayable",
      "type": "function"
    },
    {
      "inputs": [
        {
          "internalType": "address",
          "name": "tourAddress",
          "type": "address"
        }
      ],
      "name": "setTourToken",
      "outputs": [],
      "stateMutability": "nonpayable",
      "type": "function"
    },
    {
      "inputs": [
        {
          "internalType": "string",
          "name": "_nom",
          "type": "string"
        },
        {
          "internalType": "string",
          "name": "_email",
          "type": "string"
        },
        {
          "internalType": "string",
          "name": "_password",
          "type": "string"
        }
      ],
      "name": "register",
      "outputs": [],
      "stateMutability": "nonpayable",
      "type": "function"
    },
    {
      "inputs": [],
      "name": "clientId",
      "outputs": [
        {
          "internalType": "uint256",
          "name": "",
          "type": "uint256"
        }
      ],
      "stateMutability": "view",
      "type": "function"
    },
    {
      "inputs": [
        {
          "internalType": "address",
          "name": "_addr",
          "type": "address"
        }
      ],
      "name": "getClient",
      "outputs": [
        {
          "components": [
            {
              "internalType": "string",
              "name": "nom",
              "type": "string"
            },
            {
              "internalType": "string",
              "name": "email",
              "type": "string"
            },
            {
              "internalType": "string",
              "name": "password",
              "type": "string"
            },
            {
              "internalType": "bool",
              "name": "isClient",
              "type": "bool"
            },
            {
              "internalType": "uint256",
              "name": "no_reservation",
              "type": "uint256"
            },
            {
              "internalType": "uint256",
              "name": "date_registration",
              "type": "uint256"
            }
          ],
          "internalType": "struct Tourisme.Client",
          "name": "",
          "type": "tuple"
        }
      ],
      "stateMutability": "view",
      "type": "function"
    },
    {
      "inputs": [
        {
          "internalType": "enum Tourisme.Destination",
          "name": "_destination",
          "type": "uint8"
        },
        {
          "internalType": "bool",
          "name": "_isSejour",
          "type": "bool"
        },
        {
          "internalType": "bool",
          "name": "_isTransport",
          "type": "bool"
        },
        {
          "internalType": "bool",
          "name": "_isRestauration",
          "type": "bool"
        },
        {
          "internalType": "bool",
          "name": "_isActivities",
          "type": "bool"
        },
        {
          "internalType": "bool",
          "name": "_isTours",
          "type": "bool"
        }
      ],
      "name": "choose_offer",
      "outputs": [
        {
          "internalType": "uint256",
          "name": "",
          "type": "uint256"
        }
      ],
      "stateMutability": "nonpayable",
      "type": "function"
    },
    {
      "inputs": [
        {
          "internalType": "uint256",
          "name": "_id",
          "type": "uint256"
        }
      ],
      "name": "getPrice",
      "outputs": [
        {
          "internalType": "uint256",
          "name": "",
          "type": "uint256"
        }
      ],
      "stateMutability": "view",
      "type": "function"
    },
    {
      "inputs": [
        {
          "internalType": "uint256",
          "name": "_id",
          "type": "uint256"
        }
      ],
      "name": "getOffer",
      "outputs": [
        {
          "components": [
            {
              "internalType": "enum Tourisme.Destination",
              "name": "_dest",
              "type": "uint8"
            },
            {
              "internalType": "uint256",
              "name": "priceinTokens",
              "type": "uint256"
            }
          ],
          "internalType": "struct Tourisme.Offer",
          "name": "",
          "type": "tuple"
        }
      ],
      "stateMutability": "view",
      "type": "function"
    },
    {
      "inputs": [
        {
          "internalType": "uint256",
          "name": "_id",
          "type": "uint256"
        }
      ],
      "name": "reserveByClient",
      "outputs": [],
      "stateMutability": "nonpayable",
      "type": "function"
    }
  ],
  "bytecode": "0x60806040523480156200001157600080fd5b506040516200220f3803806200220f8339818101604052810190620000379190620002ee565b600062000049620000ff60201b60201c565b9050806000806101000a81548173ffffffffffffffffffffffffffffffffffffffff021916908373ffffffffffffffffffffffffffffffffffffffff1602179055508073ffffffffffffffffffffffffffffffffffffffff16600073ffffffffffffffffffffffffffffffffffffffff167f8be0079c531659141344cd1fd0a4f28419497f9722a3daafe3b4186f6b6457e060405160405180910390a350620000f8816200010760201b60201c565b5062000467565b600033905090565b62000117620000ff60201b60201c565b73ffffffffffffffffffffffffffffffffffffffff1660008054906101000a900473ffffffffffffffffffffffffffffffffffffffff1673ffffffffffffffffffffffffffffffffffffffff1614620001a7576040517f08c379a00000000000000000000000000000000000000000000000000000000081526004016200019e90620003e6565b60405180910390fd5b600073ffffffffffffffffffffffffffffffffffffffff168173ffffffffffffffffffffffffffffffffffffffff1614156200021a576040517f08c379a00000000000000000000000000000000000000000000000000000000081526004016200021190620003c4565b60405180910390fd5b8073ffffffffffffffffffffffffffffffffffffffff1660008054906101000a900473ffffffffffffffffffffffffffffffffffffffff1673ffffffffffffffffffffffffffffffffffffffff167f8be0079c531659141344cd1fd0a4f28419497f9722a3daafe3b4186f6b6457e060405160405180910390a3806000806101000a81548173ffffffffffffffffffffffffffffffffffffffff021916908373ffffffffffffffffffffffffffffffffffffffff16021790555050565b600081519050620002e8816200044d565b92915050565b6000602082840312156200030157600080fd5b60006200031184828501620002d7565b91505092915050565b60006200032960268362000408565b91507f4f776e61626c653a206e6577206f776e657220697320746865207a65726f206160008301527f64647265737300000000000000000000000000000000000000000000000000006020830152604082019050919050565b60006200039160208362000408565b91507f4f776e61626c653a2063616c6c6572206973206e6f7420746865206f776e65726000830152602082019050919050565b60006020820190508181036000830152620003df816200031a565b9050919050565b60006020820190508181036000830152620004018162000382565b9050919050565b600082825260208201905092915050565b600062000426826200042d565b9050919050565b600073ffffffffffffffffffffffffffffffffffffffff82169050919050565b620004588162000419565b81146200046457600080fd5b50565b611d9880620004776000396000f3fe608060405234801561001057600080fd5b50600436106100cf5760003560e01c80638a72ea6a1161008c578063aab4d56911610066578063aab4d56914610218578063badb38f614610248578063e757223014610264578063f2fde38b14610294576100cf565b80638a72ea6a146101995780638da5cb5b146101ca578063a0e32870146101e8576100cf565b80632d266b18146100d45780634579268a146100f05780634cd08d031461012057806361eed2a91461013c5780636bb3471a14610171578063715018a61461018f575b600080fd5b6100ee60048036038101906100e991906114fc565b6102b0565b005b61010a60048036038101906101059190611645565b610389565b6040516101179190611b3d565b60405180910390f35b61013a600480360381019061013591906115ae565b6103ed565b005b610156600480360381019061015191906114fc565b610616565b60405161016896959493929190611a25565b60405180910390f35b610179610827565b6040516101869190611b58565b60405180910390f35b610197610838565b005b6101b360048036038101906101ae9190611645565b61098b565b6040516101c19291906119fc565b60405180910390f35b6101d26109bc565b6040516101df9190611984565b60405180910390f35b61020260048036038101906101fd91906114fc565b6109e5565b60405161020f9190611b1b565b60405180910390f35b610232600480360381019061022d9190611525565b610c53565b60405161023f9190611b58565b60405180910390f35b610262600480360381019061025d9190611645565b610fa9565b005b61027e60048036038101906102799190611645565b6110fe565b60405161028b9190611b58565b60405180910390f35b6102ae60048036038101906102a991906114fc565b61116c565b005b6102b861132e565b73ffffffffffffffffffffffffffffffffffffffff1660008054906101000a900473ffffffffffffffffffffffffffffffffffffffff1673ffffffffffffffffffffffffffffffffffffffff1614610345576040517f08c379a000000000000000000000000000000000000000000000000000000000815260040161033c90611afb565b60405180910390fd5b80600160006101000a81548173ffffffffffffffffffffffffffffffffffffffff021916908373ffffffffffffffffffffffffffffffffffffffff16021790555050565b61039161135a565b600b60008381526020019081526020016000206040518060400160405290816000820160009054906101000a900460ff1660038111156103cd57fe5b60038111156103d857fe5b81526020016001820154815250509050919050565b7344f31c324702c418d3486174d2a200df1b345376600860006101000a81548173ffffffffffffffffffffffffffffffffffffffff021916908373ffffffffffffffffffffffffffffffffffffffff16021790555061044c6002611336565b60001515600a60003373ffffffffffffffffffffffffffffffffffffffff1673ffffffffffffffffffffffffffffffffffffffff16815260200190815260200160002060030160009054906101000a900460ff161515146104e2576040517f08c379a00000000000000000000000000000000000000000000000000000000081526004016104d990611abb565b60405180910390fd5b60006104ee600261134c565b90506040518060c001604052808581526020018481526020018381526020016001151581526020016000815260200142815250600a6000600860009054906101000a900473ffffffffffffffffffffffffffffffffffffffff1673ffffffffffffffffffffffffffffffffffffffff1673ffffffffffffffffffffffffffffffffffffffff168152602001908152602001600020600082015181600001908051906020019061059e92919061137f565b5060208201518160010190805190602001906105bb92919061137f565b5060408201518160020190805190602001906105d892919061137f565b5060608201518160030160006101000a81548160ff0219169083151502179055506080820151816004015560a0820151816005015590505050505050565b600a602052806000526040600020600091509050806000018054600181600116156101000203166002900480601f0160208091040260200160405190810160405280929190818152602001828054600181600116156101000203166002900480156106c25780601f10610697576101008083540402835291602001916106c2565b820191906000526020600020905b8154815290600101906020018083116106a557829003601f168201915b505050505090806001018054600181600116156101000203166002900480601f0160208091040260200160405190810160405280929190818152602001828054600181600116156101000203166002900480156107605780601f1061073557610100808354040283529160200191610760565b820191906000526020600020905b81548152906001019060200180831161074357829003601f168201915b505050505090806002018054600181600116156101000203166002900480601f0160208091040260200160405190810160405280929190818152602001828054600181600116156101000203166002900480156107fe5780601f106107d3576101008083540402835291602001916107fe565b820191906000526020600020905b8154815290600101906020018083116107e157829003601f168201915b5050505050908060030160009054906101000a900460ff16908060040154908060050154905086565b6000610833600261134c565b905090565b61084061132e565b73ffffffffffffffffffffffffffffffffffffffff1660008054906101000a900473ffffffffffffffffffffffffffffffffffffffff1673ffffffffffffffffffffffffffffffffffffffff16146108cd576040517f08c379a00000000000000000000000000000000000000000000000000000000081526004016108c490611afb565b60405180910390fd5b600073ffffffffffffffffffffffffffffffffffffffff1660008054906101000a900473ffffffffffffffffffffffffffffffffffffffff1673ffffffffffffffffffffffffffffffffffffffff167f8be0079c531659141344cd1fd0a4f28419497f9722a3daafe3b4186f6b6457e060405160405180910390a360008060006101000a81548173ffffffffffffffffffffffffffffffffffffffff021916908373ffffffffffffffffffffffffffffffffffffffff160217905550565b600b6020528060005260406000206000915090508060000160009054906101000a900460ff16908060010154905082565b60008060009054906101000a900473ffffffffffffffffffffffffffffffffffffffff16905090565b6109ed6113ff565b600a60008373ffffffffffffffffffffffffffffffffffffffff1673ffffffffffffffffffffffffffffffffffffffff1681526020019081526020016000206040518060c0016040529081600082018054600181600116156101000203166002900480601f016020809104026020016040519081016040528092919081815260200182805460018160011615610100020316600290048015610ad05780601f10610aa557610100808354040283529160200191610ad0565b820191906000526020600020905b815481529060010190602001808311610ab357829003601f168201915b50505050508152602001600182018054600181600116156101000203166002900480601f016020809104026020016040519081016040528092919081815260200182805460018160011615610100020316600290048015610b725780601f10610b4757610100808354040283529160200191610b72565b820191906000526020600020905b815481529060010190602001808311610b5557829003601f168201915b50505050508152602001600282018054600181600116156101000203166002900480601f016020809104026020016040519081016040528092919081815260200182805460018160011615610100020316600290048015610c145780601f10610be957610100808354040283529160200191610c14565b820191906000526020600020905b815481529060010190602001808311610bf757829003601f168201915b505050505081526020016003820160009054906101000a900460ff16151515158152602001600482015481526020016005820154815250509050919050565b6000610c5f6003611336565b6000610c6b600361134c565b905060008060008060008060006003811115610c8357fe5b8e6003811115610c8f57fe5b1415610d1257600115158d15151415610cad57606494506064860195505b600115158c15151415610cc557603293506032860195505b600115158b15151415610cdd57603292506032860195505b600115158a15151415610cf557603291506032860195505b600115158915151415610d0d57603290506032860195505b610f23565b60016003811115610d1f57fe5b8e6003811115610d2b57fe5b1415610dae57600115158d15151415610d4957609694506096860195505b600115158c15151415610d6157601e9350601e860195505b600115158b15151415610d7957603292506032860195505b600115158a15151415610d9157601491506014860195505b600115158915151415610da957603290506032860195505b610f22565b60026003811115610dbb57fe5b8e6003811115610dc757fe5b1415610e4a57600115158d15151415610de557605094506050860195505b600115158c15151415610dfd57602893506028860195505b600115158b15151415610e1557602892506028860195505b600115158a15151415610e2d57601e9150601e860195505b600115158915151415610e4557601e9050601e860195505b610f21565b600380811115610e5657fe5b8e6003811115610e6257fe5b1415610ee557600115158d15151415610e8057603294506032860195505b600115158c15151415610e9857601e9350601e860195505b600115158b15151415610eb057601e9250601e860195505b600115158a15151415610ec857601491506014860195505b600115158915151415610ee057603290506032860195505b610f20565b6040517f08c379a0000000000000000000000000000000000000000000000000000000008152600401610f1790611adb565b60405180910390fd5b5b5b5b60405180604001604052808f6003811115610f3a57fe5b815260200187815250600b600089815260200190815260200160002060008201518160000160006101000a81548160ff02191690836003811115610f7a57fe5b021790555060208201518160010155905050610f96600361134c565b9750505050505050509695505050505050565b600160009054906101000a900473ffffffffffffffffffffffffffffffffffffffff1673ffffffffffffffffffffffffffffffffffffffff166362ad1b8333600960009054906101000a900473ffffffffffffffffffffffffffffffffffffffff16600b6000868152602001908152602001600020600101546040518463ffffffff1660e01b81526004016110409392919061199f565b600060405180830381600087803b15801561105a57600080fd5b505af115801561106e573d6000803e3d6000fd5b50505050600a60003373ffffffffffffffffffffffffffffffffffffffff1673ffffffffffffffffffffffffffffffffffffffff16815260200190815260200160002060050154600a60003373ffffffffffffffffffffffffffffffffffffffff1673ffffffffffffffffffffffffffffffffffffffff1681526020019081526020016000206004018190555050565b600061110861135a565b600b60008481526020019081526020016000206040518060400160405290816000820160009054906101000a900460ff16600381111561114457fe5b600381111561114f57fe5b815260200160018201548152505090508060200151915050919050565b61117461132e565b73ffffffffffffffffffffffffffffffffffffffff1660008054906101000a900473ffffffffffffffffffffffffffffffffffffffff1673ffffffffffffffffffffffffffffffffffffffff1614611201576040517f08c379a00000000000000000000000000000000000000000000000000000000081526004016111f890611afb565b60405180910390fd5b600073ffffffffffffffffffffffffffffffffffffffff168173ffffffffffffffffffffffffffffffffffffffff161415611271576040517f08c379a000000000000000000000000000000000000000000000000000000000815260040161126890611a9b565b60405180910390fd5b8073ffffffffffffffffffffffffffffffffffffffff1660008054906101000a900473ffffffffffffffffffffffffffffffffffffffff1673ffffffffffffffffffffffffffffffffffffffff167f8be0079c531659141344cd1fd0a4f28419497f9722a3daafe3b4186f6b6457e060405160405180910390a3806000806101000a81548173ffffffffffffffffffffffffffffffffffffffff021916908373ffffffffffffffffffffffffffffffffffffffff16021790555050565b600033905090565b6001816000016000828254019250508190555050565b600081600001549050919050565b60405180604001604052806000600381111561137257fe5b8152602001600081525090565b828054600181600116156101000203166002900490600052602060002090601f016020900481019282601f106113c057805160ff19168380011785556113ee565b828001600101855582156113ee579182015b828111156113ed5782518255916020019190600101906113d2565b5b5090506113fb9190611437565b5090565b6040518060c0016040528060608152602001606081526020016060815260200160001515815260200160008152602001600081525090565b5b80821115611450576000816000905550600101611438565b5090565b60008135905061146381611d0d565b92915050565b60008135905061147881611d24565b92915050565b60008135905061148d81611d3b565b92915050565b600082601f8301126114a457600080fd5b81356114b76114b282611ba0565b611b73565b915080825260208301602083018583830111156114d357600080fd5b6114de838284611cad565b50505092915050565b6000813590506114f681611d4b565b92915050565b60006020828403121561150e57600080fd5b600061151c84828501611454565b91505092915050565b60008060008060008060c0878903121561153e57600080fd5b600061154c89828a0161147e565b965050602061155d89828a01611469565b955050604061156e89828a01611469565b945050606061157f89828a01611469565b935050608061159089828a01611469565b92505060a06115a189828a01611469565b9150509295509295509295565b6000806000606084860312156115c357600080fd5b600084013567ffffffffffffffff8111156115dd57600080fd5b6115e986828701611493565b935050602084013567ffffffffffffffff81111561160657600080fd5b61161286828701611493565b925050604084013567ffffffffffffffff81111561162f57600080fd5b61163b86828701611493565b9150509250925092565b60006020828403121561165757600080fd5b6000611665848285016114e7565b91505092915050565b61167781611c65565b82525050565b61168681611c0a565b82525050565b61169581611c1c565b82525050565b6116a481611c1c565b82525050565b6116b381611c77565b82525050565b6116c281611c77565b82525050565b60006116d382611bcc565b6116dd8185611be8565b93506116ed818560208601611cbc565b6116f681611cef565b840191505092915050565b600061170c82611bcc565b6117168185611bf9565b9350611726818560208601611cbc565b61172f81611cef565b840191505092915050565b6000611747602683611bf9565b91507f4f776e61626c653a206e6577206f776e657220697320746865207a65726f206160008301527f64647265737300000000000000000000000000000000000000000000000000006020830152604082019050919050565b60006117ad602583611bf9565b91507f6f6e6c79206e6f6e436c69656e74732063616e2075736520746869732066756e60008301527f6374696f6e0000000000000000000000000000000000000000000000000000006020830152604082019050919050565b6000611813601383611bf9565b91507f496e76616c69642064657374696e6174696f6e000000000000000000000000006000830152602082019050919050565b6000611853602083611bf9565b91507f4f776e61626c653a2063616c6c6572206973206e6f7420746865206f776e65726000830152602082019050919050565b6000611893600083611bd7565b9150600082019050919050565b600060c08301600083015184820360008601526118bd82826116c8565b915050602083015184820360208601526118d782826116c8565b915050604083015184820360408601526118f182826116c8565b9150506060830151611906606086018261168c565b5060808301516119196080860182611966565b5060a083015161192c60a0860182611966565b508091505092915050565b60408201600082015161194d60008501826116aa565b5060208201516119606020850182611966565b50505050565b61196f81611c5b565b82525050565b61197e81611c5b565b82525050565b6000602082019050611999600083018461167d565b92915050565b600060a0820190506119b4600083018661166e565b6119c1602083018561166e565b6119ce6040830184611975565b81810360608301526119df81611886565b905081810360808301526119f281611886565b9050949350505050565b6000604082019050611a1160008301856116b9565b611a1e6020830184611975565b9392505050565b600060c0820190508181036000830152611a3f8189611701565b90508181036020830152611a538188611701565b90508181036040830152611a678187611701565b9050611a76606083018661169b565b611a836080830185611975565b611a9060a0830184611975565b979650505050505050565b60006020820190508181036000830152611ab48161173a565b9050919050565b60006020820190508181036000830152611ad4816117a0565b9050919050565b60006020820190508181036000830152611af481611806565b9050919050565b60006020820190508181036000830152611b1481611846565b9050919050565b60006020820190508181036000830152611b3581846118a0565b905092915050565b6000604082019050611b526000830184611937565b92915050565b6000602082019050611b6d6000830184611975565b92915050565b6000604051905081810181811067ffffffffffffffff82111715611b9657600080fd5b8060405250919050565b600067ffffffffffffffff821115611bb757600080fd5b601f19601f8301169050602081019050919050565b600081519050919050565b600082825260208201905092915050565b600082825260208201905092915050565b600082825260208201905092915050565b6000611c1582611c3b565b9050919050565b60008115159050919050565b6000819050611c3682611d00565b919050565b600073ffffffffffffffffffffffffffffffffffffffff82169050919050565b6000819050919050565b6000611c7082611c89565b9050919050565b6000611c8282611c28565b9050919050565b6000611c9482611c9b565b9050919050565b6000611ca682611c3b565b9050919050565b82818337600083830152505050565b60005b83811015611cda578082015181840152602081019050611cbf565b83811115611ce9576000848401525b50505050565b6000601f19601f8301169050919050565b60048110611d0a57fe5b50565b611d1681611c0a565b8114611d2157600080fd5b50565b611d2d81611c1c565b8114611d3857600080fd5b50565b60048110611d4857600080fd5b50565b611d5481611c5b565b8114611d5f57600080fd5b5056fea264697066735822122000ff1bfb5c57070578329e07c85ec9e4803e2e43b86e5831bba1509ac3d56add64736f6c634300060c0033",
  "immutableReferences": {},
  "source": " // SPDX-License-Identifier: MIT\npragma solidity ^0.6.0;\npragma experimental ABIEncoderV2;\nimport \"./TourToken.sol\";\nimport \"@openzeppelin/contracts/utils/Counters.sol\";\nimport \"@openzeppelin/contracts/access/Ownable.sol\";\n\n\ncontract Tourisme is Ownable{\nTourToken private _tour;\n\n\nusing Counters for Counters.Counter;\nCounters.Counter private _clientIds;\nCounters.Counter private _offerIds;\n\naddress payable _agence;\n\n\nuint256 counterClient;\nuint256 counterOffer;\nuint256 totalprice;\n\naddress _addrClient;\naddress payable _addrAgence;\n\n \nmapping (address => Client) public clients;\n\nmapping (uint256 => Offer) public offers;\n\nenum Destination { NewYork, Maldives, Vancouver, Barcelona }\n\n//mapping (address => uint256) public balances_client;\n\n//mapping (address => uint256) public balances_agence;\n\n constructor(address owner) public {\n    transferOwnership(owner);\n    \n }\n\nfunction setTourToken(address tourAddress) external onlyOwner {\n  _tour = TourToken(tourAddress);\n}\n\n/* Variables d'tat */\nstruct Client {\n     string nom;\n     string email;\n     string password;\n     bool isClient;\n     uint256 no_reservation;\n     uint date_registration;\n \n}\n\nstruct Offer {\n    \n    Destination _dest;\n  //  bool isTransport;\n  //  bool isSejour;\n  //  bool isRestauration;\n  //  bool isActivites;\n  //  bool isTours;\n   uint256 priceinTokens;\n}\n\nfunction register(string memory _nom, string memory _email, string memory _password) public {\n    _addrClient = 0x44F31c324702C418d3486174d2A200Df1b345376;\n   // counterClient++;\n    _clientIds.increment();\n    //counterClient++;\n    require (clients[msg.sender].isClient == false, 'only nonClients can use this function');\n    uint newclientId = _clientIds.current();\n    clients[_addrClient] = Client(_nom, _email, _password, true, 0, block.timestamp);\n} \n\n function clientId() public view returns (uint256) {\n        \n        return _clientIds.current();\n    } \n\nfunction getClient(address _addr) public view returns (Client memory) {\n        return clients[_addr];\n    }\n \n\n function choose_offer(Destination _destination, bool _isSejour, bool _isTransport, bool _isRestauration, bool _isActivities, bool _isTours) public returns (uint256) {\n    //counterOffer++;\n\n    _offerIds.increment();\n    uint256 newofferId = _offerIds.current();\n    uint price;\n    uint PRICE_SEJOUR;\n    uint PRICE_TRANSPORT;\n    uint PRICE_RESTAURATION;\n    uint PRICE_ACTIVITIES;\n    uint PRICE_TOURS;\n    if (_destination == Destination.NewYork) {\n        if (_isSejour == true) {\n        PRICE_SEJOUR = 100;\n        price +=100;\n        }\n        if (_isTransport == true) {\n        PRICE_TRANSPORT = 50;\n        price +=50;\n        }\n        if (_isRestauration == true) {\n        PRICE_RESTAURATION = 50;\n        price +=50;\n        }\n        if (_isActivities == true) {\n        PRICE_ACTIVITIES = 50;\n        price +=50;\n        }\n        if (_isTours == true) {\n        PRICE_TOURS = 50;\n        price  += 50;\n        }\n    }\n    else if (_destination == Destination.Maldives) {\n         if (_isSejour == true) {\n        PRICE_SEJOUR = 150;\n        price +=150;\n        }\n        if (_isTransport == true) {\n        PRICE_TRANSPORT = 30;\n        price +=30;\n        }\n        if (_isRestauration == true) {\n        PRICE_RESTAURATION = 50;\n        price +=50;\n        }\n        if (_isActivities == true) {\n        PRICE_ACTIVITIES = 20;\n        price +=20;\n        }\n        if (_isTours == true) {\n        PRICE_TOURS = 50;\n        price  += 50;\n        }\n    }\n    else if (_destination == Destination.Vancouver) {\n        if (_isSejour == true) {\n        PRICE_SEJOUR = 80;\n        price +=80;\n        }\n        if (_isTransport == true) {\n        PRICE_TRANSPORT = 40;\n        price +=40;\n        }\n        if (_isRestauration == true) {\n        PRICE_RESTAURATION = 40;\n        price += 40;\n        }\n        if (_isActivities == true) {\n        PRICE_ACTIVITIES = 30;\n        price +=30;\n        }\n        if (_isTours == true) {\n        PRICE_TOURS = 30;\n        price  += 30;\n        }\n    }\n    else if(_destination == Destination.Barcelona) {\n      if (_isSejour == true) {\n        PRICE_SEJOUR = 50;\n        price +=50;\n        }\n        if (_isTransport == true) {\n        PRICE_TRANSPORT = 30;\n        price +=30;\n        }\n        if (_isRestauration == true) {\n        PRICE_RESTAURATION = 30;\n        price += 30;\n        }\n        if (_isActivities == true) {\n        PRICE_ACTIVITIES = 20;\n        price +=20;\n        }\n        if (_isTours == true) {\n        PRICE_TOURS = 50;\n        price  += 50;\n        }\n    }\n    else revert(\"Invalid destination\");\n   // uint totalPrice = offers[newofferId].priceinTokens;\n    offers[newofferId] = Offer(_destination, price);\n   // totalprice = offers[newofferId].priceinTokens;\n   // Offer memory c = offers[newofferId];\n   // return (c.priceinTokens);\n   return _offerIds.current();\n}\n\nfunction getPrice(uint256 _id) public view returns(uint256) {\n    Offer memory c = offers[_id];\n    return (c.priceinTokens);\n}\n\n    function getOffer(uint256 _id) public view returns (Offer memory) {\n        return offers[_id];\n    } \n \n \nfunction reserveByClient(uint _id) public {\n   \n    _tour.operatorSend(msg.sender, _addrAgence, offers[_id].priceinTokens, \"\", \"\");\n    clients[msg.sender].no_reservation = clients[msg.sender].date_registration;\n  }\n  \n}\n",
  "sourcePath": "/Users/itanis/Desktop/projets/tourisme-back/contracts/Tourisme.sol",
  "compiler": {
    "name": "solc",
    "version": "0.6.12+commit.27d51765.Linux.g++"
  },
  "schemaVersion": "3.3.1",
  "updatedAt": "2020-11-30T11:27:03.768Z",
  "devdoc": {
    "kind": "dev",
    "methods": {
      "owner()": {
        "details": "Returns the address of the current owner."
      },
      "renounceOwnership()": {
        "details": "Leaves the contract without owner. It will not be possible to call `onlyOwner` functions anymore. Can only be called by the current owner. NOTE: Renouncing ownership will leave the contract without an owner, thereby removing any functionality that is only available to the owner."
      },
      "transferOwnership(address)": {
        "details": "Transfers ownership of the contract to a new account (`newOwner`). Can only be called by the current owner."
      }
    },
    "version": 1
  },
  "userdoc": {
    "kind": "user",
    "methods": {},
    "version": 1
  }
}