{
  "contractName": "Tourisme",
  "abi": [
    {
      "inputs": [
        {
          "internalType": "address",
          "name": "owner",
          "type": "address"
        }
      ],
      "stateMutability": "nonpayable",
      "type": "constructor"
    },
    {
      "anonymous": false,
      "inputs": [
        {
          "indexed": true,
          "internalType": "address",
          "name": "previousOwner",
          "type": "address"
        },
        {
          "indexed": true,
          "internalType": "address",
          "name": "newOwner",
          "type": "address"
        }
      ],
      "name": "OwnershipTransferred",
      "type": "event"
    },
    {
      "inputs": [
        {
          "internalType": "address",
          "name": "",
          "type": "address"
        }
      ],
      "name": "clients",
      "outputs": [
        {
          "internalType": "string",
          "name": "name",
          "type": "string"
        },
        {
          "internalType": "string",
          "name": "email",
          "type": "string"
        },
        {
          "internalType": "uint256",
          "name": "no_reservation",
          "type": "uint256"
        },
        {
          "internalType": "uint256",
          "name": "date_registration",
          "type": "uint256"
        }
      ],
      "stateMutability": "view",
      "type": "function"
    },
    {
      "inputs": [
        {
          "internalType": "uint256",
          "name": "",
          "type": "uint256"
        }
      ],
      "name": "offers",
      "outputs": [
        {
          "internalType": "string",
          "name": "destination",
          "type": "string"
        },
        {
          "internalType": "uint256",
          "name": "priceinTokens",
          "type": "uint256"
        }
      ],
      "stateMutability": "view",
      "type": "function"
    },
    {
      "inputs": [],
      "name": "owner",
      "outputs": [
        {
          "internalType": "address",
          "name": "",
          "type": "address"
        }
      ],
      "stateMutability": "view",
      "type": "function"
    },
    {
      "inputs": [],
      "name": "renounceOwnership",
      "outputs": [],
      "stateMutability": "nonpayable",
      "type": "function"
    },
    {
      "inputs": [
        {
          "internalType": "address",
          "name": "newOwner",
          "type": "address"
        }
      ],
      "name": "transferOwnership",
      "outputs": [],
      "stateMutability": "nonpayable",
      "type": "function"
    },
    {
      "inputs": [
        {
          "internalType": "address",
          "name": "tourAddress",
          "type": "address"
        }
      ],
      "name": "setTourToken",
      "outputs": [],
      "stateMutability": "nonpayable",
      "type": "function"
    },
    {
      "inputs": [
        {
          "internalType": "string",
          "name": "_name",
          "type": "string"
        },
        {
          "internalType": "string",
          "name": "_email",
          "type": "string"
        }
      ],
      "name": "register",
      "outputs": [],
      "stateMutability": "nonpayable",
      "type": "function"
    },
    {
      "inputs": [
        {
          "internalType": "address",
          "name": "_addr",
          "type": "address"
        }
      ],
      "name": "isRegistered",
      "outputs": [
        {
          "internalType": "bool",
          "name": "",
          "type": "bool"
        }
      ],
      "stateMutability": "view",
      "type": "function"
    },
    {
      "inputs": [],
      "name": "clientId",
      "outputs": [
        {
          "internalType": "uint256",
          "name": "",
          "type": "uint256"
        }
      ],
      "stateMutability": "view",
      "type": "function"
    },
    {
      "inputs": [
        {
          "internalType": "address",
          "name": "_addr",
          "type": "address"
        }
      ],
      "name": "getClient",
      "outputs": [
        {
          "components": [
            {
              "internalType": "string",
              "name": "name",
              "type": "string"
            },
            {
              "internalType": "string",
              "name": "email",
              "type": "string"
            },
            {
              "internalType": "uint256",
              "name": "no_reservation",
              "type": "uint256"
            },
            {
              "internalType": "uint256",
              "name": "date_registration",
              "type": "uint256"
            }
          ],
          "internalType": "struct Tourisme.Client",
          "name": "",
          "type": "tuple"
        }
      ],
      "stateMutability": "view",
      "type": "function"
    },
    {
      "inputs": [
        {
          "internalType": "string",
          "name": "_destination",
          "type": "string"
        },
        {
          "internalType": "bool",
          "name": "_isSejour",
          "type": "bool"
        },
        {
          "internalType": "bool",
          "name": "_isTransport",
          "type": "bool"
        },
        {
          "internalType": "bool",
          "name": "_isRestauration",
          "type": "bool"
        },
        {
          "internalType": "bool",
          "name": "_isActivities",
          "type": "bool"
        },
        {
          "internalType": "bool",
          "name": "_isTours",
          "type": "bool"
        }
      ],
      "name": "choose_offer",
      "outputs": [],
      "stateMutability": "nonpayable",
      "type": "function"
    },
    {
      "inputs": [],
      "name": "getofferID",
      "outputs": [
        {
          "internalType": "uint256",
          "name": "",
          "type": "uint256"
        }
      ],
      "stateMutability": "view",
      "type": "function"
    },
    {
      "inputs": [
        {
          "internalType": "uint256",
          "name": "_id",
          "type": "uint256"
        }
      ],
      "name": "getPrice",
      "outputs": [
        {
          "internalType": "uint256",
          "name": "",
          "type": "uint256"
        }
      ],
      "stateMutability": "view",
      "type": "function"
    },
    {
      "inputs": [
        {
          "internalType": "uint256",
          "name": "_id",
          "type": "uint256"
        }
      ],
      "name": "getOffer",
      "outputs": [
        {
          "components": [
            {
              "internalType": "string",
              "name": "destination",
              "type": "string"
            },
            {
              "internalType": "uint256",
              "name": "priceinTokens",
              "type": "uint256"
            }
          ],
          "internalType": "struct Tourisme.Offer",
          "name": "",
          "type": "tuple"
        }
      ],
      "stateMutability": "view",
      "type": "function"
    },
    {
      "inputs": [
        {
          "internalType": "uint256",
          "name": "_id",
          "type": "uint256"
        }
      ],
      "name": "reserveByClient",
      "outputs": [],
      "stateMutability": "nonpayable",
      "type": "function"
    }
  ],
  "bytecode": "0x60806040523480156200001157600080fd5b50604051620021a9380380620021a98339818101604052810190620000379190620002ee565b600062000049620000ff60201b60201c565b9050806000806101000a81548173ffffffffffffffffffffffffffffffffffffffff021916908373ffffffffffffffffffffffffffffffffffffffff1602179055508073ffffffffffffffffffffffffffffffffffffffff16600073ffffffffffffffffffffffffffffffffffffffff167f8be0079c531659141344cd1fd0a4f28419497f9722a3daafe3b4186f6b6457e060405160405180910390a350620000f8816200010760201b60201c565b5062000467565b600033905090565b62000117620000ff60201b60201c565b73ffffffffffffffffffffffffffffffffffffffff1660008054906101000a900473ffffffffffffffffffffffffffffffffffffffff1673ffffffffffffffffffffffffffffffffffffffff1614620001a7576040517f08c379a00000000000000000000000000000000000000000000000000000000081526004016200019e90620003e6565b60405180910390fd5b600073ffffffffffffffffffffffffffffffffffffffff168173ffffffffffffffffffffffffffffffffffffffff1614156200021a576040517f08c379a00000000000000000000000000000000000000000000000000000000081526004016200021190620003c4565b60405180910390fd5b8073ffffffffffffffffffffffffffffffffffffffff1660008054906101000a900473ffffffffffffffffffffffffffffffffffffffff1673ffffffffffffffffffffffffffffffffffffffff167f8be0079c531659141344cd1fd0a4f28419497f9722a3daafe3b4186f6b6457e060405160405180910390a3806000806101000a81548173ffffffffffffffffffffffffffffffffffffffff021916908373ffffffffffffffffffffffffffffffffffffffff16021790555050565b600081519050620002e8816200044d565b92915050565b6000602082840312156200030157600080fd5b60006200031184828501620002d7565b91505092915050565b60006200032960268362000408565b91507f4f776e61626c653a206e6577206f776e657220697320746865207a65726f206160008301527f64647265737300000000000000000000000000000000000000000000000000006020830152604082019050919050565b60006200039160208362000408565b91507f4f776e61626c653a2063616c6c6572206973206e6f7420746865206f776e65726000830152602082019050919050565b60006020820190508181036000830152620003df816200031a565b9050919050565b60006020820190508181036000830152620004018162000382565b9050919050565b600082825260208201905092915050565b600062000426826200042d565b9050919050565b600073ffffffffffffffffffffffffffffffffffffffff82169050919050565b620004588162000419565b81146200046457600080fd5b50565b611d3280620004776000396000f3fe608060405234801561001057600080fd5b50600436106100f55760003560e01c80638da5cb5b11610097578063c3c5a54711610066578063c3c5a54714610274578063e7572230146102a4578063e7b61d03146102d4578063f2fde38b146102f2576100f5565b80638da5cb5b146101ee5780639b974d051461020c578063a0e3287014610228578063badb38f614610258576100f5565b806361eed2a9116100d357806361eed2a9146101625780636bb3471a14610195578063715018a6146101b35780638a72ea6a146101bd576100f5565b80632d266b18146100fa5780633ffbd47f146101165780634579268a14610132575b600080fd5b610114600480360381019061010f9190611531565b61030e565b005b610130600480360381019061012b91906115fb565b6103e7565b005b61014c60048036038101906101479190611667565b61052c565b6040516101599190611b12565b60405180910390f35b61017c60048036038101906101779190611531565b610605565b60405161018c94939291906119ed565b60405180910390f35b61019d610765565b6040516101aa9190611b34565b60405180910390f35b6101bb610776565b005b6101d760048036038101906101d29190611667565b6108c9565b6040516101e5929190611a40565b60405180910390f35b6101f6610985565b604051610203919061195a565b60405180910390f35b6102266004803603810190610221919061155a565b6109ae565b005b610242600480360381019061023d9190611531565b610d8f565b60405161024f9190611af0565b60405180910390f35b610272600480360381019061026d9190611667565b610f40565b005b61028e60048036038101906102899190611531565b611095565b60405161029b91906119d2565b60405180910390f35b6102be60048036038101906102b99190611667565b6110e4565b6040516102cb9190611b34565b60405180910390f35b6102dc6111c7565b6040516102e99190611b34565b60405180910390f35b61030c60048036038101906103079190611531565b6111d1565b005b610316611393565b73ffffffffffffffffffffffffffffffffffffffff1660008054906101000a900473ffffffffffffffffffffffffffffffffffffffff1673ffffffffffffffffffffffffffffffffffffffff16146103a3576040517f08c379a000000000000000000000000000000000000000000000000000000000815260040161039a90611ab0565b60405180910390fd5b80600160006101000a81548173ffffffffffffffffffffffffffffffffffffffff021916908373ffffffffffffffffffffffffffffffffffffffff16021790555050565b6000600a60003373ffffffffffffffffffffffffffffffffffffffff1673ffffffffffffffffffffffffffffffffffffffff168152602001908152602001600020600301541461046c576040517f08c379a000000000000000000000000000000000000000000000000000000000815260040161046390611ad0565b60405180910390fd5b610476600261139b565b60405180608001604052808381526020018281526020016000815260200142815250600a60003373ffffffffffffffffffffffffffffffffffffffff1673ffffffffffffffffffffffffffffffffffffffff16815260200190815260200160002060008201518160000190805190602001906104f39291906113bf565b5060208201518160010190805190602001906105109291906113bf565b5060408201518160020155606082015181600301559050505050565b61053461143f565b600b6000838152602001908152602001600020604051806040016040529081600082018054600181600116156101000203166002900480601f0160208091040260200160405190810160405280929190818152602001828054600181600116156101000203166002900480156105eb5780601f106105c0576101008083540402835291602001916105eb565b820191906000526020600020905b8154815290600101906020018083116105ce57829003601f168201915b505050505081526020016001820154815250509050919050565b600a602052806000526040600020600091509050806000018054600181600116156101000203166002900480601f0160208091040260200160405190810160405280929190818152602001828054600181600116156101000203166002900480156106b15780601f10610686576101008083540402835291602001916106b1565b820191906000526020600020905b81548152906001019060200180831161069457829003601f168201915b505050505090806001018054600181600116156101000203166002900480601f01602080910402602001604051908101604052809291908181526020018280546001816001161561010002031660029004801561074f5780601f106107245761010080835404028352916020019161074f565b820191906000526020600020905b81548152906001019060200180831161073257829003601f168201915b5050505050908060020154908060030154905084565b600061077160026113b1565b905090565b61077e611393565b73ffffffffffffffffffffffffffffffffffffffff1660008054906101000a900473ffffffffffffffffffffffffffffffffffffffff1673ffffffffffffffffffffffffffffffffffffffff161461080b576040517f08c379a000000000000000000000000000000000000000000000000000000000815260040161080290611ab0565b60405180910390fd5b600073ffffffffffffffffffffffffffffffffffffffff1660008054906101000a900473ffffffffffffffffffffffffffffffffffffffff1673ffffffffffffffffffffffffffffffffffffffff167f8be0079c531659141344cd1fd0a4f28419497f9722a3daafe3b4186f6b6457e060405160405180910390a360008060006101000a81548173ffffffffffffffffffffffffffffffffffffffff021916908373ffffffffffffffffffffffffffffffffffffffff160217905550565b600b602052806000526040600020600091509050806000018054600181600116156101000203166002900480601f0160208091040260200160405190810160405280929190818152602001828054600181600116156101000203166002900480156109755780601f1061094a57610100808354040283529160200191610975565b820191906000526020600020905b81548152906001019060200180831161095857829003601f168201915b5050505050908060010154905082565b60008060009054906101000a900473ffffffffffffffffffffffffffffffffffffffff16905090565b600660008154809291906001019190505550600060065490506000806000806000806040518060400160405280600781526020017f4e6577596f726b00000000000000000000000000000000000000000000000000815250805190602001208d805190602001201415610a9857600115158c15151415610a3357606494506064860195505b600115158b15151415610a4b57603293506032860195505b600115158a15151415610a6357603292506032860195505b600115158915151415610a7b57603291506032860195505b600115158815151415610a9357603290506032860195505b610d2e565b6040518060400160405280600881526020017f4d616c6469766573000000000000000000000000000000000000000000000000815250805190602001208d805190602001201415610b6057600115158c15151415610afb57609694506096860195505b600115158b15151415610b1357601e9350601e860195505b600115158a15151415610b2b57603292506032860195505b600115158915151415610b4357601491506014860195505b600115158815151415610b5b57603290506032860195505b610d2d565b6040518060400160405280600981526020017f56616e636f757665720000000000000000000000000000000000000000000000815250805190602001208d805190602001201415610c2857600115158c15151415610bc357605094506050860195505b600115158b15151415610bdb57602893506028860195505b600115158a15151415610bf357602892506028860195505b600115158915151415610c0b57601e9150601e860195505b600115158815151415610c2357601e9050601e860195505b610d2c565b6040518060400160405280600981526020017f42617263656c6f6e610000000000000000000000000000000000000000000000815250805190602001208d805190602001201415610cf057600115158c15151415610c8b57603294506032860195505b600115158b15151415610ca357601e9350601e860195505b600115158a15151415610cbb57601e9250601e860195505b600115158915151415610cd357601491506014860195505b600115158815151415610ceb57603290506032860195505b610d2b565b6040517f08c379a0000000000000000000000000000000000000000000000000000000008152600401610d2290611a90565b60405180910390fd5b5b5b5b60405180604001604052808e815260200187815250600b60008981526020019081526020016000206000820151816000019080519060200190610d729291906113bf565b506020820151816001015590505050505050505050505050505050565b610d97611459565b600a60008373ffffffffffffffffffffffffffffffffffffffff1673ffffffffffffffffffffffffffffffffffffffff168152602001908152602001600020604051806080016040529081600082018054600181600116156101000203166002900480601f016020809104026020016040519081016040528092919081815260200182805460018160011615610100020316600290048015610e7a5780601f10610e4f57610100808354040283529160200191610e7a565b820191906000526020600020905b815481529060010190602001808311610e5d57829003601f168201915b50505050508152602001600182018054600181600116156101000203166002900480601f016020809104026020016040519081016040528092919081815260200182805460018160011615610100020316600290048015610f1c5780601f10610ef157610100808354040283529160200191610f1c565b820191906000526020600020905b815481529060010190602001808311610eff57829003601f168201915b50505050508152602001600282015481526020016003820154815250509050919050565b600160009054906101000a900473ffffffffffffffffffffffffffffffffffffffff1673ffffffffffffffffffffffffffffffffffffffff166362ad1b8333600960009054906101000a900473ffffffffffffffffffffffffffffffffffffffff16600b6000868152602001908152602001600020600101546040518463ffffffff1660e01b8152600401610fd793929190611975565b600060405180830381600087803b158015610ff157600080fd5b505af1158015611005573d6000803e3d6000fd5b50505050600a60003373ffffffffffffffffffffffffffffffffffffffff1673ffffffffffffffffffffffffffffffffffffffff16815260200190815260200160002060030154600a60003373ffffffffffffffffffffffffffffffffffffffff1673ffffffffffffffffffffffffffffffffffffffff1681526020019081526020016000206002018190555050565b600080600a60008473ffffffffffffffffffffffffffffffffffffffff1673ffffffffffffffffffffffffffffffffffffffff1681526020019081526020016000206003015414159050919050565b60006110ee61143f565b600b6000848152602001908152602001600020604051806040016040529081600082018054600181600116156101000203166002900480601f0160208091040260200160405190810160405280929190818152602001828054600181600116156101000203166002900480156111a55780601f1061117a576101008083540402835291602001916111a5565b820191906000526020600020905b81548152906001019060200180831161118857829003601f168201915b5050505050815260200160018201548152505090508060200151915050919050565b6000600654905090565b6111d9611393565b73ffffffffffffffffffffffffffffffffffffffff1660008054906101000a900473ffffffffffffffffffffffffffffffffffffffff1673ffffffffffffffffffffffffffffffffffffffff1614611266576040517f08c379a000000000000000000000000000000000000000000000000000000000815260040161125d90611ab0565b60405180910390fd5b600073ffffffffffffffffffffffffffffffffffffffff168173ffffffffffffffffffffffffffffffffffffffff1614156112d6576040517f08c379a00000000000000000000000000000000000000000000000000000000081526004016112cd90611a70565b60405180910390fd5b8073ffffffffffffffffffffffffffffffffffffffff1660008054906101000a900473ffffffffffffffffffffffffffffffffffffffff1673ffffffffffffffffffffffffffffffffffffffff167f8be0079c531659141344cd1fd0a4f28419497f9722a3daafe3b4186f6b6457e060405160405180910390a3806000806101000a81548173ffffffffffffffffffffffffffffffffffffffff021916908373ffffffffffffffffffffffffffffffffffffffff16021790555050565b600033905090565b6001816000016000828254019250508190555050565b600081600001549050919050565b828054600181600116156101000203166002900490600052602060002090601f016020900481019282601f1061140057805160ff191683800117855561142e565b8280016001018555821561142e579182015b8281111561142d578251825591602001919060010190611412565b5b50905061143b9190611481565b5090565b604051806040016040528060608152602001600081525090565b6040518060800160405280606081526020016060815260200160008152602001600081525090565b5b8082111561149a576000816000905550600101611482565b5090565b6000813590506114ad81611cb7565b92915050565b6000813590506114c281611cce565b92915050565b600082601f8301126114d957600080fd5b81356114ec6114e782611b7c565b611b4f565b9150808252602083016020830185838301111561150857600080fd5b611513838284611c64565b50505092915050565b60008135905061152b81611ce5565b92915050565b60006020828403121561154357600080fd5b60006115518482850161149e565b91505092915050565b60008060008060008060c0878903121561157357600080fd5b600087013567ffffffffffffffff81111561158d57600080fd5b61159989828a016114c8565b96505060206115aa89828a016114b3565b95505060406115bb89828a016114b3565b94505060606115cc89828a016114b3565b93505060806115dd89828a016114b3565b92505060a06115ee89828a016114b3565b9150509295509295509295565b6000806040838503121561160e57600080fd5b600083013567ffffffffffffffff81111561162857600080fd5b611634858286016114c8565b925050602083013567ffffffffffffffff81111561165157600080fd5b61165d858286016114c8565b9150509250929050565b60006020828403121561167957600080fd5b60006116878482850161151c565b91505092915050565b61169981611c2e565b82525050565b6116a881611be6565b82525050565b6116b781611bf8565b82525050565b60006116c882611ba8565b6116d28185611bc4565b93506116e2818560208601611c73565b6116eb81611ca6565b840191505092915050565b600061170182611ba8565b61170b8185611bd5565b935061171b818560208601611c73565b61172481611ca6565b840191505092915050565b600061173c602683611bd5565b91507f4f776e61626c653a206e6577206f776e657220697320746865207a65726f206160008301527f64647265737300000000000000000000000000000000000000000000000000006020830152604082019050919050565b60006117a2601383611bd5565b91507f496e76616c69642064657374696e6174696f6e000000000000000000000000006000830152602082019050919050565b60006117e2602083611bd5565b91507f4f776e61626c653a2063616c6c6572206973206e6f7420746865206f776e65726000830152602082019050919050565b6000611822602883611bd5565b91507f6f6e6c792061206e6f6e2d636c69656e742063616e2063616c6c20746869732060008301527f66756e6374696f6e0000000000000000000000000000000000000000000000006020830152604082019050919050565b6000611888600083611bb3565b9150600082019050919050565b600060808301600083015184820360008601526118b282826116bd565b915050602083015184820360208601526118cc82826116bd565b91505060408301516118e1604086018261193c565b5060608301516118f4606086018261193c565b508091505092915050565b6000604083016000830151848203600086015261191c82826116bd565b9150506020830151611931602086018261193c565b508091505092915050565b61194581611c24565b82525050565b61195481611c24565b82525050565b600060208201905061196f600083018461169f565b92915050565b600060a08201905061198a6000830186611690565b6119976020830185611690565b6119a4604083018461194b565b81810360608301526119b58161187b565b905081810360808301526119c88161187b565b9050949350505050565b60006020820190506119e760008301846116ae565b92915050565b60006080820190508181036000830152611a0781876116f6565b90508181036020830152611a1b81866116f6565b9050611a2a604083018561194b565b611a37606083018461194b565b95945050505050565b60006040820190508181036000830152611a5a81856116f6565b9050611a69602083018461194b565b9392505050565b60006020820190508181036000830152611a898161172f565b9050919050565b60006020820190508181036000830152611aa981611795565b9050919050565b60006020820190508181036000830152611ac9816117d5565b9050919050565b60006020820190508181036000830152611ae981611815565b9050919050565b60006020820190508181036000830152611b0a8184611895565b905092915050565b60006020820190508181036000830152611b2c81846118ff565b905092915050565b6000602082019050611b49600083018461194b565b92915050565b6000604051905081810181811067ffffffffffffffff82111715611b7257600080fd5b8060405250919050565b600067ffffffffffffffff821115611b9357600080fd5b601f19601f8301169050602081019050919050565b600081519050919050565b600082825260208201905092915050565b600082825260208201905092915050565b600082825260208201905092915050565b6000611bf182611c04565b9050919050565b60008115159050919050565b600073ffffffffffffffffffffffffffffffffffffffff82169050919050565b6000819050919050565b6000611c3982611c40565b9050919050565b6000611c4b82611c52565b9050919050565b6000611c5d82611c04565b9050919050565b82818337600083830152505050565b60005b83811015611c91578082015181840152602081019050611c76565b83811115611ca0576000848401525b50505050565b6000601f19601f8301169050919050565b611cc081611be6565b8114611ccb57600080fd5b50565b611cd781611bf8565b8114611ce257600080fd5b50565b611cee81611c24565b8114611cf957600080fd5b5056fea2646970667358221220502116c1d4876e500d7218f3bf34d7e2354727d83064f29a36af4cae61b78baa64736f6c634300060c0033",
  "immutableReferences": {},
  "source": "  // SPDX-License-Identifier: MIT\npragma solidity ^0.6.0;\npragma experimental ABIEncoderV2;\nimport \"./TourToken.sol\";\nimport \"@openzeppelin/contracts/utils/Counters.sol\";\nimport \"@openzeppelin/contracts/access/Ownable.sol\";\n\n\ncontract Tourisme is Ownable {\nTourToken private _tour;\n\n\nusing Counters for Counters.Counter;\nCounters.Counter private _clientIds;\nCounters.Counter private _offerIds;\n\naddress payable _agence;\n\nuint256 counterClient;\nuint256 counterOffer;\nuint256 totalprice;\n\naddress _addrClient;\naddress payable _addrAgence;\n//bool isRegistered;\n\nmapping (address => Client) public clients;\n\nmapping (uint256 => Offer) public offers;\n\n constructor(address owner) public {\n    transferOwnership(owner);\n }\n\nfunction setTourToken(address tourAddress) external onlyOwner {\n  _tour = TourToken(tourAddress);\n}\n\n/* Variables d'tat */\nstruct Client {\n    string name;\n    string email;\n    uint256 no_reservation;\n    uint256 date_registration;\n \n}\n\nstruct Offer {\n    \n    string destination;\n   uint256 priceinTokens;\n}\n\nfunction register(string memory _name, string memory _email) onlyNotRegistered public {\n   // _addrClient = 0x44F31c324702C418d3486174d2A200Df1b345376;\n  \n    _clientIds.increment();\n    //counterClient++;\n   \n    clients[msg.sender] = Client(_name, _email, 0, block.timestamp);\n   // isRegistered = clients[msg.sender].isClient;\n   // return confirmRegister();\n} \n\nfunction isRegistered(address _addr) public view returns (bool) {\n    return clients[_addr].date_registration != 0;\n}\n\n function clientId() public view returns (uint256) {\n        \n        return _clientIds.current();\n    } \n\nmodifier onlyClient (){\n            require (clients[msg.sender].date_registration != 0, \"only a client can call this function\");\n            _;\n        } \n\nmodifier onlyNotRegistered (){\n            require (clients[msg.sender].date_registration == 0, \"only a non-client can call this function\");\n            _;\n        }\n\n/* function login(string memory _email, string memory _password) public view onlyClient returns (bool) {\n    require(keccak256(bytes(_email)) == keccak256(bytes(clients[msg.sender].email)) &&  keccak256(bytes(_password)) == keccak256(bytes(clients[msg.sender].password)), \"a client should provide the correct email and password used for his registration.\");\n    return true;\n} */\n\n\nfunction getClient(address _addr) public view returns (Client memory) {\n        return clients[_addr];\n    }\n \n function choose_offer(string memory _destination, bool _isSejour, bool _isTransport, bool _isRestauration, bool _isActivities, bool _isTours) public {\n    counterOffer++;\n\n    //_offerIds.increment();\n    uint256 newofferId = counterOffer;\n    uint price;\n    uint PRICE_SEJOUR;\n    uint PRICE_TRANSPORT;\n    uint PRICE_RESTAURATION;\n    uint PRICE_ACTIVITIES;\n    uint PRICE_TOURS;\n    if (keccak256(bytes(_destination)) == keccak256(bytes(\"NewYork\"))) {\n        if (_isSejour == true) {\n        PRICE_SEJOUR = 100;\n        price +=100;\n        }\n        if (_isTransport == true) {\n        PRICE_TRANSPORT = 50;\n        price +=50;\n        }\n        if (_isRestauration == true) {\n        PRICE_RESTAURATION = 50;\n        price +=50;\n        }\n        if (_isActivities == true) {\n        PRICE_ACTIVITIES = 50;\n        price +=50;\n        }\n        if (_isTours == true) {\n        PRICE_TOURS = 50;\n        price  += 50;\n        }\n    }\n    else if (keccak256(bytes(_destination)) == keccak256(bytes(\"Maldives\"))) {\n         if (_isSejour == true) {\n        PRICE_SEJOUR = 150;\n        price +=150;\n        }\n        if (_isTransport == true) {\n        PRICE_TRANSPORT = 30;\n        price +=30;\n        }\n        if (_isRestauration == true) {\n        PRICE_RESTAURATION = 50;\n        price +=50;\n        }\n        if (_isActivities == true) {\n        PRICE_ACTIVITIES = 20;\n        price +=20;\n        }\n        if (_isTours == true) {\n        PRICE_TOURS = 50;\n        price  += 50;\n        }\n    }\n    else if (keccak256(bytes(_destination)) == keccak256(bytes(\"Vancouver\"))) {\n        if (_isSejour == true) {\n        PRICE_SEJOUR = 80;\n        price +=80;\n        }\n        if (_isTransport == true) {\n        PRICE_TRANSPORT = 40;\n        price +=40;\n        }\n        if (_isRestauration == true) {\n        PRICE_RESTAURATION = 40;\n        price += 40;\n        }\n        if (_isActivities == true) {\n        PRICE_ACTIVITIES = 30;\n        price +=30;\n        }\n        if (_isTours == true) {\n        PRICE_TOURS = 30;\n        price  += 30;\n        }\n    }\n    else if(keccak256(bytes(_destination)) == keccak256(bytes(\"Barcelona\"))) {\n      if (_isSejour == true) {\n        PRICE_SEJOUR = 50;\n        price +=50;\n        }\n        if (_isTransport == true) {\n        PRICE_TRANSPORT = 30;\n        price +=30;\n        }\n        if (_isRestauration == true) {\n        PRICE_RESTAURATION = 30;\n        price += 30;\n        }\n        if (_isActivities == true) {\n        PRICE_ACTIVITIES = 20;\n        price +=20;\n        }\n        if (_isTours == true) {\n        PRICE_TOURS = 50;\n        price  += 50;\n        }\n    }\n    else revert(\"Invalid destination\");\n  \n    offers[newofferId] = Offer(_destination, price);\n}\n\n function getofferID() public view returns (uint256) {\n  \n    return counterOffer;\n  \n}\n\nfunction getPrice(uint256 _id) public view returns(uint256) {\n    Offer memory c = offers[_id];\n    return (c.priceinTokens);\n}\n\nfunction getOffer(uint256 _id) public view returns (Offer memory) {\n        return offers[_id];\n    } \n \n//function buyTourToken\n \nfunction reserveByClient(uint _id) public {\n   \n    _tour.operatorSend(msg.sender, _addrAgence, offers[_id].priceinTokens, \"\", \"\");\n    clients[msg.sender].no_reservation = clients[msg.sender].date_registration;\n  }\n  \n}",
  "sourcePath": "/Users/itanis/Desktop/projets/tourisme-back/contracts/Tourisme.sol",
  "compiler": {
    "name": "solc",
    "version": "0.6.12+commit.27d51765.Linux.g++"
  },
  "schemaVersion": "3.3.1",
  "updatedAt": "2020-12-08T08:53:52.588Z",
  "devdoc": {
    "kind": "dev",
    "methods": {
      "owner()": {
        "details": "Returns the address of the current owner."
      },
      "renounceOwnership()": {
        "details": "Leaves the contract without owner. It will not be possible to call `onlyOwner` functions anymore. Can only be called by the current owner. NOTE: Renouncing ownership will leave the contract without an owner, thereby removing any functionality that is only available to the owner."
      },
      "transferOwnership(address)": {
        "details": "Transfers ownership of the contract to a new account (`newOwner`). Can only be called by the current owner."
      }
    },
    "version": 1
  },
  "userdoc": {
    "kind": "user",
    "methods": {},
    "version": 1
  }
}