{
  "contractName": "Tourisme",
  "abi": [
    {
      "inputs": [
        {
          "internalType": "address",
          "name": "owner",
          "type": "address"
        }
      ],
      "stateMutability": "nonpayable",
      "type": "constructor"
    },
    {
      "anonymous": false,
      "inputs": [
        {
          "indexed": true,
          "internalType": "address",
          "name": "previousOwner",
          "type": "address"
        },
        {
          "indexed": true,
          "internalType": "address",
          "name": "newOwner",
          "type": "address"
        }
      ],
      "name": "OwnershipTransferred",
      "type": "event"
    },
    {
      "inputs": [
        {
          "internalType": "address",
          "name": "",
          "type": "address"
        }
      ],
      "name": "clients",
      "outputs": [
        {
          "internalType": "string",
          "name": "email",
          "type": "string"
        },
        {
          "internalType": "string",
          "name": "password",
          "type": "string"
        },
        {
          "internalType": "bool",
          "name": "isClient",
          "type": "bool"
        },
        {
          "internalType": "uint256",
          "name": "no_reservation",
          "type": "uint256"
        },
        {
          "internalType": "uint256",
          "name": "date_registration",
          "type": "uint256"
        }
      ],
      "stateMutability": "view",
      "type": "function",
      "constant": true
    },
    {
      "inputs": [
        {
          "internalType": "uint256",
          "name": "",
          "type": "uint256"
        }
      ],
      "name": "offers",
      "outputs": [
        {
          "internalType": "string",
          "name": "destination",
          "type": "string"
        },
        {
          "internalType": "uint256",
          "name": "priceinTokens",
          "type": "uint256"
        }
      ],
      "stateMutability": "view",
      "type": "function",
      "constant": true
    },
    {
      "inputs": [],
      "name": "owner",
      "outputs": [
        {
          "internalType": "address",
          "name": "",
          "type": "address"
        }
      ],
      "stateMutability": "view",
      "type": "function",
      "constant": true
    },
    {
      "inputs": [],
      "name": "renounceOwnership",
      "outputs": [],
      "stateMutability": "nonpayable",
      "type": "function"
    },
    {
      "inputs": [
        {
          "internalType": "address",
          "name": "newOwner",
          "type": "address"
        }
      ],
      "name": "transferOwnership",
      "outputs": [],
      "stateMutability": "nonpayable",
      "type": "function"
    },
    {
      "inputs": [
        {
          "internalType": "address",
          "name": "tourAddress",
          "type": "address"
        }
      ],
      "name": "setTourToken",
      "outputs": [],
      "stateMutability": "nonpayable",
      "type": "function"
    },
    {
      "inputs": [
        {
          "internalType": "string",
          "name": "_email",
          "type": "string"
        },
        {
          "internalType": "string",
          "name": "_password",
          "type": "string"
        }
      ],
      "name": "register",
      "outputs": [],
      "stateMutability": "nonpayable",
      "type": "function"
    },
    {
      "inputs": [],
      "name": "clientId",
      "outputs": [
        {
          "internalType": "uint256",
          "name": "",
          "type": "uint256"
        }
      ],
      "stateMutability": "view",
      "type": "function",
      "constant": true
    },
    {
      "inputs": [
        {
          "internalType": "address",
          "name": "_addr",
          "type": "address"
        }
      ],
      "name": "getClient",
      "outputs": [
        {
          "components": [
            {
              "internalType": "string",
              "name": "email",
              "type": "string"
            },
            {
              "internalType": "string",
              "name": "password",
              "type": "string"
            },
            {
              "internalType": "bool",
              "name": "isClient",
              "type": "bool"
            },
            {
              "internalType": "uint256",
              "name": "no_reservation",
              "type": "uint256"
            },
            {
              "internalType": "uint256",
              "name": "date_registration",
              "type": "uint256"
            }
          ],
          "internalType": "struct Tourisme.Client",
          "name": "",
          "type": "tuple"
        }
      ],
      "stateMutability": "view",
      "type": "function",
      "constant": true
    },
    {
      "inputs": [
        {
          "internalType": "string",
          "name": "_destination",
          "type": "string"
        },
        {
          "internalType": "bool",
          "name": "_isSejour",
          "type": "bool"
        },
        {
          "internalType": "bool",
          "name": "_isTransport",
          "type": "bool"
        },
        {
          "internalType": "bool",
          "name": "_isRestauration",
          "type": "bool"
        },
        {
          "internalType": "bool",
          "name": "_isActivities",
          "type": "bool"
        },
        {
          "internalType": "bool",
          "name": "_isTours",
          "type": "bool"
        }
      ],
      "name": "choose_offer",
      "outputs": [],
      "stateMutability": "nonpayable",
      "type": "function"
    },
    {
      "inputs": [],
      "name": "getofferID",
      "outputs": [
        {
          "internalType": "uint256",
          "name": "",
          "type": "uint256"
        }
      ],
      "stateMutability": "view",
      "type": "function",
      "constant": true
    },
    {
      "inputs": [
        {
          "internalType": "uint256",
          "name": "_id",
          "type": "uint256"
        }
      ],
      "name": "getPrice",
      "outputs": [
        {
          "internalType": "uint256",
          "name": "",
          "type": "uint256"
        }
      ],
      "stateMutability": "view",
      "type": "function",
      "constant": true
    },
    {
      "inputs": [
        {
          "internalType": "uint256",
          "name": "_id",
          "type": "uint256"
        }
      ],
      "name": "getOffer",
      "outputs": [
        {
          "components": [
            {
              "internalType": "string",
              "name": "destination",
              "type": "string"
            },
            {
              "internalType": "uint256",
              "name": "priceinTokens",
              "type": "uint256"
            }
          ],
          "internalType": "struct Tourisme.Offer",
          "name": "",
          "type": "tuple"
        }
      ],
      "stateMutability": "view",
      "type": "function",
      "constant": true
    },
    {
      "inputs": [
        {
          "internalType": "uint256",
          "name": "_id",
          "type": "uint256"
        }
      ],
      "name": "reserveByClient",
      "outputs": [],
      "stateMutability": "nonpayable",
      "type": "function"
    }
  ],
  "bytecode": "0x60806040523480156200001157600080fd5b50604051620021a6380380620021a68339818101604052810190620000379190620002ee565b600062000049620000ff60201b60201c565b9050806000806101000a81548173ffffffffffffffffffffffffffffffffffffffff021916908373ffffffffffffffffffffffffffffffffffffffff1602179055508073ffffffffffffffffffffffffffffffffffffffff16600073ffffffffffffffffffffffffffffffffffffffff167f8be0079c531659141344cd1fd0a4f28419497f9722a3daafe3b4186f6b6457e060405160405180910390a350620000f8816200010760201b60201c565b5062000467565b600033905090565b62000117620000ff60201b60201c565b73ffffffffffffffffffffffffffffffffffffffff1660008054906101000a900473ffffffffffffffffffffffffffffffffffffffff1673ffffffffffffffffffffffffffffffffffffffff1614620001a7576040517f08c379a00000000000000000000000000000000000000000000000000000000081526004016200019e90620003e6565b60405180910390fd5b600073ffffffffffffffffffffffffffffffffffffffff168173ffffffffffffffffffffffffffffffffffffffff1614156200021a576040517f08c379a00000000000000000000000000000000000000000000000000000000081526004016200021190620003c4565b60405180910390fd5b8073ffffffffffffffffffffffffffffffffffffffff1660008054906101000a900473ffffffffffffffffffffffffffffffffffffffff1673ffffffffffffffffffffffffffffffffffffffff167f8be0079c531659141344cd1fd0a4f28419497f9722a3daafe3b4186f6b6457e060405160405180910390a3806000806101000a81548173ffffffffffffffffffffffffffffffffffffffff021916908373ffffffffffffffffffffffffffffffffffffffff16021790555050565b600081519050620002e8816200044d565b92915050565b6000602082840312156200030157600080fd5b60006200031184828501620002d7565b91505092915050565b60006200032960268362000408565b91507f4f776e61626c653a206e6577206f776e657220697320746865207a65726f206160008301527f64647265737300000000000000000000000000000000000000000000000000006020830152604082019050919050565b60006200039160208362000408565b91507f4f776e61626c653a2063616c6c6572206973206e6f7420746865206f776e65726000830152602082019050919050565b60006020820190508181036000830152620003df816200031a565b9050919050565b60006020820190508181036000830152620004018162000382565b9050919050565b600082825260208201905092915050565b600062000426826200042d565b9050919050565b600073ffffffffffffffffffffffffffffffffffffffff82169050919050565b620004588162000419565b81146200046457600080fd5b50565b611d2f80620004776000396000f3fe608060405234801561001057600080fd5b50600436106100ea5760003560e01c80638da5cb5b1161008c578063badb38f611610066578063badb38f61461024e578063e75722301461026a578063e7b61d031461029a578063f2fde38b146102b8576100ea565b80638da5cb5b146101e45780639b974d0514610202578063a0e328701461021e576100ea565b806361eed2a9116100c857806361eed2a9146101575780636bb3471a1461018b578063715018a6146101a95780638a72ea6a146101b3576100ea565b80632d266b18146100ef5780633ffbd47f1461010b5780634579268a14610127575b600080fd5b61010960048036038101906101049190611519565b6102d4565b005b610125600480360381019061012091906115e3565b6103ad565b005b610141600480360381019061013c919061164f565b61052c565b60405161014e9190611b0f565b60405180910390f35b610171600480360381019061016c9190611519565b610605565b6040516101829594939291906119dc565b60405180910390f35b610193610778565b6040516101a09190611b31565b60405180910390f35b6101b1610789565b005b6101cd60048036038101906101c8919061164f565b6108dc565b6040516101db929190611a3d565b60405180910390f35b6101ec610998565b6040516101f99190611964565b60405180910390f35b61021c60048036038101906102179190611542565b6109c1565b005b61023860048036038101906102339190611519565b610da2565b6040516102459190611aed565b60405180910390f35b6102686004803603810190610263919061164f565b610f6e565b005b610284600480360381019061027f919061164f565b6110c3565b6040516102919190611b31565b60405180910390f35b6102a26111a6565b6040516102af9190611b31565b60405180910390f35b6102d260048036038101906102cd9190611519565b6111b0565b005b6102dc611372565b73ffffffffffffffffffffffffffffffffffffffff1660008054906101000a900473ffffffffffffffffffffffffffffffffffffffff1673ffffffffffffffffffffffffffffffffffffffff1614610369576040517f08c379a000000000000000000000000000000000000000000000000000000000815260040161036090611acd565b60405180910390fd5b80600160006101000a81548173ffffffffffffffffffffffffffffffffffffffff021916908373ffffffffffffffffffffffffffffffffffffffff16021790555050565b6103b7600261137a565b60001515600a60003373ffffffffffffffffffffffffffffffffffffffff1673ffffffffffffffffffffffffffffffffffffffff16815260200190815260200160002060020160009054906101000a900460ff1615151461044d576040517f08c379a000000000000000000000000000000000000000000000000000000000815260040161044490611a8d565b60405180910390fd5b6040518060a001604052808381526020018281526020016001151581526020016000815260200142815250600a60003373ffffffffffffffffffffffffffffffffffffffff1673ffffffffffffffffffffffffffffffffffffffff16815260200190815260200160002060008201518160000190805190602001906104d392919061139e565b5060208201518160010190805190602001906104f092919061139e565b5060408201518160020160006101000a81548160ff02191690831515021790555060608201518160030155608082015181600401559050505050565b61053461141e565b600b6000838152602001908152602001600020604051806040016040529081600082018054600181600116156101000203166002900480601f0160208091040260200160405190810160405280929190818152602001828054600181600116156101000203166002900480156105eb5780601f106105c0576101008083540402835291602001916105eb565b820191906000526020600020905b8154815290600101906020018083116105ce57829003601f168201915b505050505081526020016001820154815250509050919050565b600a602052806000526040600020600091509050806000018054600181600116156101000203166002900480601f0160208091040260200160405190810160405280929190818152602001828054600181600116156101000203166002900480156106b15780601f10610686576101008083540402835291602001916106b1565b820191906000526020600020905b81548152906001019060200180831161069457829003601f168201915b505050505090806001018054600181600116156101000203166002900480601f01602080910402602001604051908101604052809291908181526020018280546001816001161561010002031660029004801561074f5780601f106107245761010080835404028352916020019161074f565b820191906000526020600020905b81548152906001019060200180831161073257829003601f168201915b5050505050908060020160009054906101000a900460ff16908060030154908060040154905085565b60006107846002611390565b905090565b610791611372565b73ffffffffffffffffffffffffffffffffffffffff1660008054906101000a900473ffffffffffffffffffffffffffffffffffffffff1673ffffffffffffffffffffffffffffffffffffffff161461081e576040517f08c379a000000000000000000000000000000000000000000000000000000000815260040161081590611acd565b60405180910390fd5b600073ffffffffffffffffffffffffffffffffffffffff1660008054906101000a900473ffffffffffffffffffffffffffffffffffffffff1673ffffffffffffffffffffffffffffffffffffffff167f8be0079c531659141344cd1fd0a4f28419497f9722a3daafe3b4186f6b6457e060405160405180910390a360008060006101000a81548173ffffffffffffffffffffffffffffffffffffffff021916908373ffffffffffffffffffffffffffffffffffffffff160217905550565b600b602052806000526040600020600091509050806000018054600181600116156101000203166002900480601f0160208091040260200160405190810160405280929190818152602001828054600181600116156101000203166002900480156109885780601f1061095d57610100808354040283529160200191610988565b820191906000526020600020905b81548152906001019060200180831161096b57829003601f168201915b5050505050908060010154905082565b60008060009054906101000a900473ffffffffffffffffffffffffffffffffffffffff16905090565b600660008154809291906001019190505550600060065490506000806000806000806040518060400160405280600781526020017f4e6577596f726b00000000000000000000000000000000000000000000000000815250805190602001208d805190602001201415610aab57600115158c15151415610a4657606494506064860195505b600115158b15151415610a5e57603293506032860195505b600115158a15151415610a7657603292506032860195505b600115158915151415610a8e57603291506032860195505b600115158815151415610aa657603290506032860195505b610d41565b6040518060400160405280600881526020017f4d616c6469766573000000000000000000000000000000000000000000000000815250805190602001208d805190602001201415610b7357600115158c15151415610b0e57609694506096860195505b600115158b15151415610b2657601e9350601e860195505b600115158a15151415610b3e57603292506032860195505b600115158915151415610b5657601491506014860195505b600115158815151415610b6e57603290506032860195505b610d40565b6040518060400160405280600981526020017f56616e636f757665720000000000000000000000000000000000000000000000815250805190602001208d805190602001201415610c3b57600115158c15151415610bd657605094506050860195505b600115158b15151415610bee57602893506028860195505b600115158a15151415610c0657602892506028860195505b600115158915151415610c1e57601e9150601e860195505b600115158815151415610c3657601e9050601e860195505b610d3f565b6040518060400160405280600981526020017f42617263656c6f6e610000000000000000000000000000000000000000000000815250805190602001208d805190602001201415610d0357600115158c15151415610c9e57603294506032860195505b600115158b15151415610cb657601e9350601e860195505b600115158a15151415610cce57601e9250601e860195505b600115158915151415610ce657601491506014860195505b600115158815151415610cfe57603290506032860195505b610d3e565b6040517f08c379a0000000000000000000000000000000000000000000000000000000008152600401610d3590611aad565b60405180910390fd5b5b5b5b60405180604001604052808e815260200187815250600b60008981526020019081526020016000206000820151816000019080519060200190610d8592919061139e565b506020820151816001015590505050505050505050505050505050565b610daa611438565b600a60008373ffffffffffffffffffffffffffffffffffffffff1673ffffffffffffffffffffffffffffffffffffffff1681526020019081526020016000206040518060a0016040529081600082018054600181600116156101000203166002900480601f016020809104026020016040519081016040528092919081815260200182805460018160011615610100020316600290048015610e8d5780601f10610e6257610100808354040283529160200191610e8d565b820191906000526020600020905b815481529060010190602001808311610e7057829003601f168201915b50505050508152602001600182018054600181600116156101000203166002900480601f016020809104026020016040519081016040528092919081815260200182805460018160011615610100020316600290048015610f2f5780601f10610f0457610100808354040283529160200191610f2f565b820191906000526020600020905b815481529060010190602001808311610f1257829003601f168201915b505050505081526020016002820160009054906101000a900460ff16151515158152602001600382015481526020016004820154815250509050919050565b600160009054906101000a900473ffffffffffffffffffffffffffffffffffffffff1673ffffffffffffffffffffffffffffffffffffffff166362ad1b8333600960009054906101000a900473ffffffffffffffffffffffffffffffffffffffff16600b6000868152602001908152602001600020600101546040518463ffffffff1660e01b81526004016110059392919061197f565b600060405180830381600087803b15801561101f57600080fd5b505af1158015611033573d6000803e3d6000fd5b50505050600a60003373ffffffffffffffffffffffffffffffffffffffff1673ffffffffffffffffffffffffffffffffffffffff16815260200190815260200160002060040154600a60003373ffffffffffffffffffffffffffffffffffffffff1673ffffffffffffffffffffffffffffffffffffffff1681526020019081526020016000206003018190555050565b60006110cd61141e565b600b6000848152602001908152602001600020604051806040016040529081600082018054600181600116156101000203166002900480601f0160208091040260200160405190810160405280929190818152602001828054600181600116156101000203166002900480156111845780601f1061115957610100808354040283529160200191611184565b820191906000526020600020905b81548152906001019060200180831161116757829003601f168201915b5050505050815260200160018201548152505090508060200151915050919050565b6000600654905090565b6111b8611372565b73ffffffffffffffffffffffffffffffffffffffff1660008054906101000a900473ffffffffffffffffffffffffffffffffffffffff1673ffffffffffffffffffffffffffffffffffffffff1614611245576040517f08c379a000000000000000000000000000000000000000000000000000000000815260040161123c90611acd565b60405180910390fd5b600073ffffffffffffffffffffffffffffffffffffffff168173ffffffffffffffffffffffffffffffffffffffff1614156112b5576040517f08c379a00000000000000000000000000000000000000000000000000000000081526004016112ac90611a6d565b60405180910390fd5b8073ffffffffffffffffffffffffffffffffffffffff1660008054906101000a900473ffffffffffffffffffffffffffffffffffffffff1673ffffffffffffffffffffffffffffffffffffffff167f8be0079c531659141344cd1fd0a4f28419497f9722a3daafe3b4186f6b6457e060405160405180910390a3806000806101000a81548173ffffffffffffffffffffffffffffffffffffffff021916908373ffffffffffffffffffffffffffffffffffffffff16021790555050565b600033905090565b6001816000016000828254019250508190555050565b600081600001549050919050565b828054600181600116156101000203166002900490600052602060002090601f016020900481019282601f106113df57805160ff191683800117855561140d565b8280016001018555821561140d579182015b8281111561140c5782518255916020019190600101906113f1565b5b50905061141a9190611469565b5090565b604051806040016040528060608152602001600081525090565b6040518060a00160405280606081526020016060815260200160001515815260200160008152602001600081525090565b5b8082111561148257600081600090555060010161146a565b5090565b60008135905061149581611cb4565b92915050565b6000813590506114aa81611ccb565b92915050565b600082601f8301126114c157600080fd5b81356114d46114cf82611b79565b611b4c565b915080825260208301602083018583830111156114f057600080fd5b6114fb838284611c61565b50505092915050565b60008135905061151381611ce2565b92915050565b60006020828403121561152b57600080fd5b600061153984828501611486565b91505092915050565b60008060008060008060c0878903121561155b57600080fd5b600087013567ffffffffffffffff81111561157557600080fd5b61158189828a016114b0565b965050602061159289828a0161149b565b95505060406115a389828a0161149b565b94505060606115b489828a0161149b565b93505060806115c589828a0161149b565b92505060a06115d689828a0161149b565b9150509295509295509295565b600080604083850312156115f657600080fd5b600083013567ffffffffffffffff81111561161057600080fd5b61161c858286016114b0565b925050602083013567ffffffffffffffff81111561163957600080fd5b611645858286016114b0565b9150509250929050565b60006020828403121561166157600080fd5b600061166f84828501611504565b91505092915050565b61168181611c2b565b82525050565b61169081611be3565b82525050565b61169f81611bf5565b82525050565b6116ae81611bf5565b82525050565b60006116bf82611ba5565b6116c98185611bc1565b93506116d9818560208601611c70565b6116e281611ca3565b840191505092915050565b60006116f882611ba5565b6117028185611bd2565b9350611712818560208601611c70565b61171b81611ca3565b840191505092915050565b6000611733602683611bd2565b91507f4f776e61626c653a206e6577206f776e657220697320746865207a65726f206160008301527f64647265737300000000000000000000000000000000000000000000000000006020830152604082019050919050565b6000611799602583611bd2565b91507f6f6e6c79206e6f6e436c69656e74732063616e2075736520746869732066756e60008301527f6374696f6e0000000000000000000000000000000000000000000000000000006020830152604082019050919050565b60006117ff601383611bd2565b91507f496e76616c69642064657374696e6174696f6e000000000000000000000000006000830152602082019050919050565b600061183f602083611bd2565b91507f4f776e61626c653a2063616c6c6572206973206e6f7420746865206f776e65726000830152602082019050919050565b600061187f600083611bb0565b9150600082019050919050565b600060a08301600083015184820360008601526118a982826116b4565b915050602083015184820360208601526118c382826116b4565b91505060408301516118d86040860182611696565b5060608301516118eb6060860182611946565b5060808301516118fe6080860182611946565b508091505092915050565b6000604083016000830151848203600086015261192682826116b4565b915050602083015161193b6020860182611946565b508091505092915050565b61194f81611c21565b82525050565b61195e81611c21565b82525050565b60006020820190506119796000830184611687565b92915050565b600060a0820190506119946000830186611678565b6119a16020830185611678565b6119ae6040830184611955565b81810360608301526119bf81611872565b905081810360808301526119d281611872565b9050949350505050565b600060a08201905081810360008301526119f681886116ed565b90508181036020830152611a0a81876116ed565b9050611a1960408301866116a5565b611a266060830185611955565b611a336080830184611955565b9695505050505050565b60006040820190508181036000830152611a5781856116ed565b9050611a666020830184611955565b9392505050565b60006020820190508181036000830152611a8681611726565b9050919050565b60006020820190508181036000830152611aa68161178c565b9050919050565b60006020820190508181036000830152611ac6816117f2565b9050919050565b60006020820190508181036000830152611ae681611832565b9050919050565b60006020820190508181036000830152611b07818461188c565b905092915050565b60006020820190508181036000830152611b298184611909565b905092915050565b6000602082019050611b466000830184611955565b92915050565b6000604051905081810181811067ffffffffffffffff82111715611b6f57600080fd5b8060405250919050565b600067ffffffffffffffff821115611b9057600080fd5b601f19601f8301169050602081019050919050565b600081519050919050565b600082825260208201905092915050565b600082825260208201905092915050565b600082825260208201905092915050565b6000611bee82611c01565b9050919050565b60008115159050919050565b600073ffffffffffffffffffffffffffffffffffffffff82169050919050565b6000819050919050565b6000611c3682611c3d565b9050919050565b6000611c4882611c4f565b9050919050565b6000611c5a82611c01565b9050919050565b82818337600083830152505050565b60005b83811015611c8e578082015181840152602081019050611c73565b83811115611c9d576000848401525b50505050565b6000601f19601f8301169050919050565b611cbd81611be3565b8114611cc857600080fd5b50565b611cd481611bf5565b8114611cdf57600080fd5b50565b611ceb81611c21565b8114611cf657600080fd5b5056fea264697066735822122035db4358f3e6422308e71949e1e7bc12e4e8286d7c3f654cd386919e25b3032e64736f6c634300060c0033",
  "immutableReferences": {},
  "source": " // SPDX-License-Identifier: MIT\npragma solidity ^0.6.0;\npragma experimental ABIEncoderV2;\nimport \"./TourToken.sol\";\nimport \"@openzeppelin/contracts/utils/Counters.sol\";\nimport \"@openzeppelin/contracts/access/Ownable.sol\";\n\n\ncontract Tourisme is Ownable{\nTourToken private _tour;\n\n\nusing Counters for Counters.Counter;\nCounters.Counter private _clientIds;\nCounters.Counter private _offerIds;\n\naddress payable _agence;\n\n\nuint256 counterClient;\nuint256 counterOffer;\nuint256 totalprice;\n\naddress _addrClient;\naddress payable _addrAgence;\n\n\nmapping (address => Client) public clients;\n\nmapping (uint256 => Offer) public offers;\n\n//enum Destination { NewYork, Maldives, Vancouver, Barcelona }\n\n//Destination internal _dest;\n\n constructor(address owner) public {\n    transferOwnership(owner);\n }\n\nfunction setTourToken(address tourAddress) external onlyOwner {\n  _tour = TourToken(tourAddress);\n}\n\n/* Variables d'tat */\nstruct Client {\n     string email;\n     string password;\n     bool isClient;\n     uint256 no_reservation;\n     uint date_registration;\n \n}\n\nstruct Offer {\n    \n    string destination;\n  //  bool isTransport;\n  //  bool isSejour;\n  //  bool isRestauration;\n  //  bool isActivites;\n  //  bool isTours;\n   uint256 priceinTokens;\n}\n\nfunction register(string memory _email, string memory _password) public {\n   // _addrClient = 0x44F31c324702C418d3486174d2A200Df1b345376;\n   // counterClient++;\n    _clientIds.increment();\n    //counterClient++;\n    require (clients[msg.sender].isClient == false, 'only nonClients can use this function');\n    //uint newclientId = _clientIds.current();\n    clients[msg.sender] = Client(_email, _password, true, 0, block.timestamp);\n} \n\n function clientId() public view returns (uint256) {\n        \n        return _clientIds.current();\n    } \n\nfunction getClient(address _addr) public view returns (Client memory) {\n        return clients[_addr];\n    }\n \n function choose_offer(string memory _destination, bool _isSejour, bool _isTransport, bool _isRestauration, bool _isActivities, bool _isTours) public {\n    counterOffer++;\n\n    //_offerIds.increment();\n    uint256 newofferId = counterOffer;\n    uint price;\n    uint PRICE_SEJOUR;\n    uint PRICE_TRANSPORT;\n    uint PRICE_RESTAURATION;\n    uint PRICE_ACTIVITIES;\n    uint PRICE_TOURS;\n    if (keccak256(bytes(_destination)) == keccak256(bytes(\"NewYork\"))) {\n        if (_isSejour == true) {\n        PRICE_SEJOUR = 100;\n        price +=100;\n        }\n        if (_isTransport == true) {\n        PRICE_TRANSPORT = 50;\n        price +=50;\n        }\n        if (_isRestauration == true) {\n        PRICE_RESTAURATION = 50;\n        price +=50;\n        }\n        if (_isActivities == true) {\n        PRICE_ACTIVITIES = 50;\n        price +=50;\n        }\n        if (_isTours == true) {\n        PRICE_TOURS = 50;\n        price  += 50;\n        }\n    }\n    else if (keccak256(bytes(_destination)) == keccak256(bytes(\"Maldives\"))) {\n         if (_isSejour == true) {\n        PRICE_SEJOUR = 150;\n        price +=150;\n        }\n        if (_isTransport == true) {\n        PRICE_TRANSPORT = 30;\n        price +=30;\n        }\n        if (_isRestauration == true) {\n        PRICE_RESTAURATION = 50;\n        price +=50;\n        }\n        if (_isActivities == true) {\n        PRICE_ACTIVITIES = 20;\n        price +=20;\n        }\n        if (_isTours == true) {\n        PRICE_TOURS = 50;\n        price  += 50;\n        }\n    }\n    else if (keccak256(bytes(_destination)) == keccak256(bytes(\"Vancouver\"))) {\n        if (_isSejour == true) {\n        PRICE_SEJOUR = 80;\n        price +=80;\n        }\n        if (_isTransport == true) {\n        PRICE_TRANSPORT = 40;\n        price +=40;\n        }\n        if (_isRestauration == true) {\n        PRICE_RESTAURATION = 40;\n        price += 40;\n        }\n        if (_isActivities == true) {\n        PRICE_ACTIVITIES = 30;\n        price +=30;\n        }\n        if (_isTours == true) {\n        PRICE_TOURS = 30;\n        price  += 30;\n        }\n    }\n    else if(keccak256(bytes(_destination)) == keccak256(bytes(\"Barcelona\"))) {\n      if (_isSejour == true) {\n        PRICE_SEJOUR = 50;\n        price +=50;\n        }\n        if (_isTransport == true) {\n        PRICE_TRANSPORT = 30;\n        price +=30;\n        }\n        if (_isRestauration == true) {\n        PRICE_RESTAURATION = 30;\n        price += 30;\n        }\n        if (_isActivities == true) {\n        PRICE_ACTIVITIES = 20;\n        price +=20;\n        }\n        if (_isTours == true) {\n        PRICE_TOURS = 50;\n        price  += 50;\n        }\n    }\n    else revert(\"Invalid destination\");\n   // uint totalPrice = offers[newofferId].priceinTokens;\n    offers[newofferId] = Offer(_destination, price);\n   // totalprice = offers[newofferId].priceinTokens;\n   // Offer memory c = offers[newofferId];\n   //counterOffer = _offerIds.current();\n   // return (c.priceinTokens);\n  // return _offerIds.current();\n}\n\n function getofferID() public view returns (uint256) {\n  \n    return counterOffer;\n  \n}\n\nfunction getPrice(uint256 _id) public view returns(uint256) {\n    Offer memory c = offers[_id];\n    \n    return (c.priceinTokens);\n}\n\nfunction getOffer(uint256 _id) public view returns (Offer memory) {\n        return offers[_id];\n    } \n \n \nfunction reserveByClient(uint _id) public {\n   \n    _tour.operatorSend(msg.sender, _addrAgence, offers[_id].priceinTokens, \"\", \"\");\n    clients[msg.sender].no_reservation = clients[msg.sender].date_registration;\n  }\n  \n}\n",
  "sourcePath": "/Users/itanis/Desktop/projets/tourisme-back/contracts/Tourisme.sol",
  "compiler": {
    "name": "solc",
    "version": "0.6.12+commit.27d51765.Linux.g++"
  },
  "schemaVersion": "3.3.1",
  "updatedAt": "2020-12-03T09:10:23.031Z",
  "networkType": "ethereum",
  "devdoc": {
    "kind": "dev",
    "methods": {
      "owner()": {
        "details": "Returns the address of the current owner."
      },
      "renounceOwnership()": {
        "details": "Leaves the contract without owner. It will not be possible to call `onlyOwner` functions anymore. Can only be called by the current owner. NOTE: Renouncing ownership will leave the contract without an owner, thereby removing any functionality that is only available to the owner."
      },
      "transferOwnership(address)": {
        "details": "Transfers ownership of the contract to a new account (`newOwner`). Can only be called by the current owner."
      }
    },
    "version": 1
  },
  "userdoc": {
    "kind": "user",
    "methods": {},
    "version": 1
  }
}