{
  "contractName": "Tourisme",
  "abi": [
    {
      "inputs": [
        {
          "internalType": "address",
          "name": "owner",
          "type": "address"
        }
      ],
      "stateMutability": "nonpayable",
      "type": "constructor"
    },
    {
      "anonymous": false,
      "inputs": [
        {
          "indexed": true,
          "internalType": "address",
          "name": "previousOwner",
          "type": "address"
        },
        {
          "indexed": true,
          "internalType": "address",
          "name": "newOwner",
          "type": "address"
        }
      ],
      "name": "OwnershipTransferred",
      "type": "event"
    },
    {
      "inputs": [
        {
          "internalType": "address",
          "name": "",
          "type": "address"
        }
      ],
      "name": "balances_agence",
      "outputs": [
        {
          "internalType": "uint256",
          "name": "",
          "type": "uint256"
        }
      ],
      "stateMutability": "view",
      "type": "function",
      "constant": true
    },
    {
      "inputs": [
        {
          "internalType": "address",
          "name": "",
          "type": "address"
        }
      ],
      "name": "balances_client",
      "outputs": [
        {
          "internalType": "uint256",
          "name": "",
          "type": "uint256"
        }
      ],
      "stateMutability": "view",
      "type": "function",
      "constant": true
    },
    {
      "inputs": [
        {
          "internalType": "address",
          "name": "",
          "type": "address"
        }
      ],
      "name": "clients",
      "outputs": [
        {
          "internalType": "string",
          "name": "nom",
          "type": "string"
        },
        {
          "internalType": "string",
          "name": "email",
          "type": "string"
        },
        {
          "internalType": "string",
          "name": "password",
          "type": "string"
        },
        {
          "internalType": "bool",
          "name": "isClient",
          "type": "bool"
        },
        {
          "internalType": "uint256",
          "name": "age",
          "type": "uint256"
        },
        {
          "internalType": "uint256",
          "name": "no_reservation",
          "type": "uint256"
        },
        {
          "internalType": "uint256",
          "name": "date_registration",
          "type": "uint256"
        }
      ],
      "stateMutability": "view",
      "type": "function",
      "constant": true
    },
    {
      "inputs": [
        {
          "internalType": "uint256",
          "name": "",
          "type": "uint256"
        }
      ],
      "name": "offers",
      "outputs": [
        {
          "internalType": "string",
          "name": "destination",
          "type": "string"
        },
        {
          "internalType": "bool",
          "name": "isTransport",
          "type": "bool"
        },
        {
          "internalType": "bool",
          "name": "isSejour",
          "type": "bool"
        },
        {
          "internalType": "bool",
          "name": "isRestauration",
          "type": "bool"
        },
        {
          "internalType": "bool",
          "name": "isActivites",
          "type": "bool"
        },
        {
          "internalType": "bool",
          "name": "isTours",
          "type": "bool"
        },
        {
          "internalType": "uint256",
          "name": "priceinTokens",
          "type": "uint256"
        }
      ],
      "stateMutability": "view",
      "type": "function",
      "constant": true
    },
    {
      "inputs": [],
      "name": "owner",
      "outputs": [
        {
          "internalType": "address",
          "name": "",
          "type": "address"
        }
      ],
      "stateMutability": "view",
      "type": "function",
      "constant": true
    },
    {
      "inputs": [],
      "name": "renounceOwnership",
      "outputs": [],
      "stateMutability": "nonpayable",
      "type": "function"
    },
    {
      "inputs": [
        {
          "internalType": "address",
          "name": "newOwner",
          "type": "address"
        }
      ],
      "name": "transferOwnership",
      "outputs": [],
      "stateMutability": "nonpayable",
      "type": "function"
    },
    {
      "inputs": [
        {
          "internalType": "address",
          "name": "tourAddress",
          "type": "address"
        }
      ],
      "name": "setTourToken",
      "outputs": [],
      "stateMutability": "nonpayable",
      "type": "function"
    },
    {
      "inputs": [
        {
          "internalType": "string",
          "name": "_nom",
          "type": "string"
        },
        {
          "internalType": "string",
          "name": "_email",
          "type": "string"
        },
        {
          "internalType": "string",
          "name": "_password",
          "type": "string"
        },
        {
          "internalType": "uint256",
          "name": "_age",
          "type": "uint256"
        }
      ],
      "name": "register",
      "outputs": [],
      "stateMutability": "nonpayable",
      "type": "function"
    },
    {
      "inputs": [],
      "name": "clientId",
      "outputs": [
        {
          "internalType": "uint256",
          "name": "",
          "type": "uint256"
        }
      ],
      "stateMutability": "view",
      "type": "function",
      "constant": true
    },
    {
      "inputs": [
        {
          "internalType": "address",
          "name": "_addr",
          "type": "address"
        }
      ],
      "name": "getClient",
      "outputs": [
        {
          "components": [
            {
              "internalType": "string",
              "name": "nom",
              "type": "string"
            },
            {
              "internalType": "string",
              "name": "email",
              "type": "string"
            },
            {
              "internalType": "string",
              "name": "password",
              "type": "string"
            },
            {
              "internalType": "bool",
              "name": "isClient",
              "type": "bool"
            },
            {
              "internalType": "uint256",
              "name": "age",
              "type": "uint256"
            },
            {
              "internalType": "uint256",
              "name": "no_reservation",
              "type": "uint256"
            },
            {
              "internalType": "uint256",
              "name": "date_registration",
              "type": "uint256"
            }
          ],
          "internalType": "struct Tourisme.Client",
          "name": "",
          "type": "tuple"
        }
      ],
      "stateMutability": "view",
      "type": "function",
      "constant": true
    },
    {
      "inputs": [
        {
          "internalType": "string",
          "name": "_destination",
          "type": "string"
        },
        {
          "internalType": "bool",
          "name": "_isTransport",
          "type": "bool"
        },
        {
          "internalType": "bool",
          "name": "_isSejour",
          "type": "bool"
        },
        {
          "internalType": "bool",
          "name": "_isRestauration",
          "type": "bool"
        },
        {
          "internalType": "bool",
          "name": "_isActivites",
          "type": "bool"
        },
        {
          "internalType": "bool",
          "name": "_isTours",
          "type": "bool"
        }
      ],
      "name": "choose_offer",
      "outputs": [],
      "stateMutability": "nonpayable",
      "type": "function"
    },
    {
      "inputs": [
        {
          "internalType": "uint256",
          "name": "_id",
          "type": "uint256"
        }
      ],
      "name": "getOffer",
      "outputs": [
        {
          "components": [
            {
              "internalType": "string",
              "name": "destination",
              "type": "string"
            },
            {
              "internalType": "bool",
              "name": "isTransport",
              "type": "bool"
            },
            {
              "internalType": "bool",
              "name": "isSejour",
              "type": "bool"
            },
            {
              "internalType": "bool",
              "name": "isRestauration",
              "type": "bool"
            },
            {
              "internalType": "bool",
              "name": "isActivites",
              "type": "bool"
            },
            {
              "internalType": "bool",
              "name": "isTours",
              "type": "bool"
            },
            {
              "internalType": "uint256",
              "name": "priceinTokens",
              "type": "uint256"
            }
          ],
          "internalType": "struct Tourisme.Offer",
          "name": "",
          "type": "tuple"
        }
      ],
      "stateMutability": "view",
      "type": "function",
      "constant": true
    },
    {
      "inputs": [
        {
          "internalType": "uint256",
          "name": "_id",
          "type": "uint256"
        },
        {
          "internalType": "address",
          "name": "dst",
          "type": "address"
        }
      ],
      "name": "reserveByClient",
      "outputs": [],
      "stateMutability": "nonpayable",
      "type": "function"
    }
  ],
  "bytecode": "0x60806040523480156200001157600080fd5b50604051620022fe380380620022fe8339818101604052810190620000379190620002ee565b600062000049620000ff60201b60201c565b9050806000806101000a81548173ffffffffffffffffffffffffffffffffffffffff021916908373ffffffffffffffffffffffffffffffffffffffff1602179055508073ffffffffffffffffffffffffffffffffffffffff16600073ffffffffffffffffffffffffffffffffffffffff167f8be0079c531659141344cd1fd0a4f28419497f9722a3daafe3b4186f6b6457e060405160405180910390a350620000f8816200010760201b60201c565b5062000467565b600033905090565b62000117620000ff60201b60201c565b73ffffffffffffffffffffffffffffffffffffffff1660008054906101000a900473ffffffffffffffffffffffffffffffffffffffff1673ffffffffffffffffffffffffffffffffffffffff1614620001a7576040517f08c379a00000000000000000000000000000000000000000000000000000000081526004016200019e90620003e6565b60405180910390fd5b600073ffffffffffffffffffffffffffffffffffffffff168173ffffffffffffffffffffffffffffffffffffffff1614156200021a576040517f08c379a00000000000000000000000000000000000000000000000000000000081526004016200021190620003c4565b60405180910390fd5b8073ffffffffffffffffffffffffffffffffffffffff1660008054906101000a900473ffffffffffffffffffffffffffffffffffffffff1673ffffffffffffffffffffffffffffffffffffffff167f8be0079c531659141344cd1fd0a4f28419497f9722a3daafe3b4186f6b6457e060405160405180910390a3806000806101000a81548173ffffffffffffffffffffffffffffffffffffffff021916908373ffffffffffffffffffffffffffffffffffffffff16021790555050565b600081519050620002e8816200044d565b92915050565b6000602082840312156200030157600080fd5b60006200031184828501620002d7565b91505092915050565b60006200032960268362000408565b91507f4f776e61626c653a206e6577206f776e657220697320746865207a65726f206160008301527f64647265737300000000000000000000000000000000000000000000000000006020830152604082019050919050565b60006200039160208362000408565b91507f4f776e61626c653a2063616c6c6572206973206e6f7420746865206f776e65726000830152602082019050919050565b60006020820190508181036000830152620003df816200031a565b9050919050565b60006020820190508181036000830152620004018162000382565b9050919050565b600082825260208201905092915050565b600062000426826200042d565b9050919050565b600073ffffffffffffffffffffffffffffffffffffffff82169050919050565b620004588162000419565b81146200046457600080fd5b50565b611e8780620004776000396000f3fe608060405234801561001057600080fd5b50600436106100ea5760003560e01c8063766f47e71161008c5780639b974d05116100665780639b974d0514610255578063a0e3287014610271578063ca2b3c6c146102a1578063f2fde38b146102d1576100ea565b8063766f47e7146101d15780638a72ea6a146102015780638da5cb5b14610237576100ea565b80634579268a116100c85780634579268a1461014357806361eed2a9146101735780636bb3471a146101a9578063715018a6146101c7576100ea565b806302110d25146100ef5780632d266b181461010b5780633ec8395114610127575b600080fd5b6101096004803603810190610104919061162b565b6102ed565b005b61012560048036038101906101209190611561565b610527565b005b610141600480360381019061013c91906116ff565b610600565b005b61015d600480360381019061015891906116d6565b610736565b60405161016a9190611c67565b60405180910390f35b61018d60048036038101906101889190611561565b610896565b6040516101a09796959493929190611b61565b60405180910390f35b6101b1610aad565b6040516101be9190611c89565b60405180910390f35b6101cf610abe565b005b6101eb60048036038101906101e69190611561565b610c11565b6040516101f89190611c89565b60405180910390f35b61021b600480360381019061021691906116d6565b610c29565b60405161022e9796959493929190611aeb565b60405180910390f35b61023f610d44565b60405161024c9190611a73565b60405180910390f35b61026f600480360381019061026a919061158a565b610d6d565b005b61028b60048036038101906102869190611561565b610f2d565b6040516102989190611c45565b60405180910390f35b6102bb60048036038101906102b69190611561565b6111a5565b6040516102c89190611c89565b60405180910390f35b6102eb60048036038101906102e69190611561565b6111bd565b005b7344f31c324702c418d3486174d2a200df1b345376600760006101000a81548173ffffffffffffffffffffffffffffffffffffffff021916908373ffffffffffffffffffffffffffffffffffffffff16021790555061034c600261137f565b60001515600860003373ffffffffffffffffffffffffffffffffffffffff1673ffffffffffffffffffffffffffffffffffffffff16815260200190815260200160002060030160009054906101000a900460ff161515146103e2576040517f08c379a00000000000000000000000000000000000000000000000000000000081526004016103d990611c05565b60405180910390fd5b60006103ee6002611395565b90506040518060e00160405280868152602001858152602001848152602001600115158152602001838152602001600081526020014281525060086000600760009054906101000a900473ffffffffffffffffffffffffffffffffffffffff1673ffffffffffffffffffffffffffffffffffffffff1673ffffffffffffffffffffffffffffffffffffffff16815260200190815260200160002060008201518160000190805190602001906104a49291906113ab565b5060208201518160010190805190602001906104c19291906113ab565b5060408201518160020190805190602001906104de9291906113ab565b5060608201518160030160006101000a81548160ff0219169083151502179055506080820151816004015560a0820151816005015560c082015181600601559050505050505050565b61052f6113a3565b73ffffffffffffffffffffffffffffffffffffffff1660008054906101000a900473ffffffffffffffffffffffffffffffffffffffff1673ffffffffffffffffffffffffffffffffffffffff16146105bc576040517f08c379a00000000000000000000000000000000000000000000000000000000081526004016105b390611c25565b60405180910390fd5b80600160006101000a81548173ffffffffffffffffffffffffffffffffffffffff021916908373ffffffffffffffffffffffffffffffffffffffff16021790555050565b600160009054906101000a900473ffffffffffffffffffffffffffffffffffffffff1673ffffffffffffffffffffffffffffffffffffffff166362ad1b83338360096000878152602001908152602001600020600201546040518463ffffffff1660e01b815260040161067593929190611a8e565b600060405180830381600087803b15801561068f57600080fd5b505af11580156106a3573d6000803e3d6000fd5b50505050600860003373ffffffffffffffffffffffffffffffffffffffff1673ffffffffffffffffffffffffffffffffffffffff168152602001908152602001600020600601548201600860003373ffffffffffffffffffffffffffffffffffffffff1673ffffffffffffffffffffffffffffffffffffffff168152602001908152602001600020600501819055505050565b61073e61142b565b600960008381526020019081526020016000206040518060e0016040529081600082018054600181600116156101000203166002900480601f0160208091040260200160405190810160405280929190818152602001828054600181600116156101000203166002900480156107f55780601f106107ca576101008083540402835291602001916107f5565b820191906000526020600020905b8154815290600101906020018083116107d857829003601f168201915b505050505081526020016001820160009054906101000a900460ff161515151581526020016001820160019054906101000a900460ff161515151581526020016001820160029054906101000a900460ff161515151581526020016001820160039054906101000a900460ff161515151581526020016001820160049054906101000a900460ff161515151581526020016002820154815250509050919050565b6008602052806000526040600020600091509050806000018054600181600116156101000203166002900480601f0160208091040260200160405190810160405280929190818152602001828054600181600116156101000203166002900480156109425780601f1061091757610100808354040283529160200191610942565b820191906000526020600020905b81548152906001019060200180831161092557829003601f168201915b505050505090806001018054600181600116156101000203166002900480601f0160208091040260200160405190810160405280929190818152602001828054600181600116156101000203166002900480156109e05780601f106109b5576101008083540402835291602001916109e0565b820191906000526020600020905b8154815290600101906020018083116109c357829003601f168201915b505050505090806002018054600181600116156101000203166002900480601f016020809104026020016040519081016040528092919081815260200182805460018160011615610100020316600290048015610a7e5780601f10610a5357610100808354040283529160200191610a7e565b820191906000526020600020905b815481529060010190602001808311610a6157829003601f168201915b5050505050908060030160009054906101000a900460ff16908060040154908060050154908060060154905087565b6000610ab96002611395565b905090565b610ac66113a3565b73ffffffffffffffffffffffffffffffffffffffff1660008054906101000a900473ffffffffffffffffffffffffffffffffffffffff1673ffffffffffffffffffffffffffffffffffffffff1614610b53576040517f08c379a0000000000000000000000000000000000000000000000000000000008152600401610b4a90611c25565b60405180910390fd5b600073ffffffffffffffffffffffffffffffffffffffff1660008054906101000a900473ffffffffffffffffffffffffffffffffffffffff1673ffffffffffffffffffffffffffffffffffffffff167f8be0079c531659141344cd1fd0a4f28419497f9722a3daafe3b4186f6b6457e060405160405180910390a360008060006101000a81548173ffffffffffffffffffffffffffffffffffffffff021916908373ffffffffffffffffffffffffffffffffffffffff160217905550565b600b6020528060005260406000206000915090505481565b6009602052806000526040600020600091509050806000018054600181600116156101000203166002900480601f016020809104026020016040519081016040528092919081815260200182805460018160011615610100020316600290048015610cd55780601f10610caa57610100808354040283529160200191610cd5565b820191906000526020600020905b815481529060010190602001808311610cb857829003601f168201915b5050505050908060010160009054906101000a900460ff16908060010160019054906101000a900460ff16908060010160029054906101000a900460ff16908060010160039054906101000a900460ff16908060010160049054906101000a900460ff16908060020154905087565b60008060009054906101000a900473ffffffffffffffffffffffffffffffffffffffff16905090565b610d77600361137f565b6000610d836003611395565b90506000600115158715151415610da1576000603290508082019150505b600115158615151415610dbb576000606490508082019150505b600115158515151415610dd5576000603290508082019150505b600115158415151415610def576000603290508082019150505b600115158315151415610e09576000603290508082019150505b6040518060e001604052808981526020018815158152602001871515815260200186151581526020018515158152602001841515815260200182815250600960008481526020019081526020016000206000820151816000019080519060200190610e759291906113ab565b5060208201518160010160006101000a81548160ff02191690831515021790555060408201518160010160016101000a81548160ff02191690831515021790555060608201518160010160026101000a81548160ff02191690831515021790555060808201518160010160036101000a81548160ff02191690831515021790555060a08201518160010160046101000a81548160ff02191690831515021790555060c082015181600201559050505050505050505050565b610f35611472565b600860008373ffffffffffffffffffffffffffffffffffffffff1673ffffffffffffffffffffffffffffffffffffffff1681526020019081526020016000206040518060e0016040529081600082018054600181600116156101000203166002900480601f0160208091040260200160405190810160405280929190818152602001828054600181600116156101000203166002900480156110185780601f10610fed57610100808354040283529160200191611018565b820191906000526020600020905b815481529060010190602001808311610ffb57829003601f168201915b50505050508152602001600182018054600181600116156101000203166002900480601f0160208091040260200160405190810160405280929190818152602001828054600181600116156101000203166002900480156110ba5780601f1061108f576101008083540402835291602001916110ba565b820191906000526020600020905b81548152906001019060200180831161109d57829003601f168201915b50505050508152602001600282018054600181600116156101000203166002900480601f01602080910402602001604051908101604052809291908181526020018280546001816001161561010002031660029004801561115c5780601f106111315761010080835404028352916020019161115c565b820191906000526020600020905b81548152906001019060200180831161113f57829003601f168201915b505050505081526020016003820160009054906101000a900460ff1615151515815260200160048201548152602001600582015481526020016006820154815250509050919050565b600a6020528060005260406000206000915090505481565b6111c56113a3565b73ffffffffffffffffffffffffffffffffffffffff1660008054906101000a900473ffffffffffffffffffffffffffffffffffffffff1673ffffffffffffffffffffffffffffffffffffffff1614611252576040517f08c379a000000000000000000000000000000000000000000000000000000000815260040161124990611c25565b60405180910390fd5b600073ffffffffffffffffffffffffffffffffffffffff168173ffffffffffffffffffffffffffffffffffffffff1614156112c2576040517f08c379a00000000000000000000000000000000000000000000000000000000081526004016112b990611be5565b60405180910390fd5b8073ffffffffffffffffffffffffffffffffffffffff1660008054906101000a900473ffffffffffffffffffffffffffffffffffffffff1673ffffffffffffffffffffffffffffffffffffffff167f8be0079c531659141344cd1fd0a4f28419497f9722a3daafe3b4186f6b6457e060405160405180910390a3806000806101000a81548173ffffffffffffffffffffffffffffffffffffffff021916908373ffffffffffffffffffffffffffffffffffffffff16021790555050565b6001816000016000828254019250508190555050565b600081600001549050919050565b600033905090565b828054600181600116156101000203166002900490600052602060002090601f016020900481019282601f106113ec57805160ff191683800117855561141a565b8280016001018555821561141a579182015b828111156114195782518255916020019190600101906113fe565b5b50905061142791906114b1565b5090565b6040518060e0016040528060608152602001600015158152602001600015158152602001600015158152602001600015158152602001600015158152602001600081525090565b6040518060e001604052806060815260200160608152602001606081526020016000151581526020016000815260200160008152602001600081525090565b5b808211156114ca5760008160009055506001016114b2565b5090565b6000813590506114dd81611e0c565b92915050565b6000813590506114f281611e23565b92915050565b600082601f83011261150957600080fd5b813561151c61151782611cd1565b611ca4565b9150808252602083016020830185838301111561153857600080fd5b611543838284611db9565b50505092915050565b60008135905061155b81611e3a565b92915050565b60006020828403121561157357600080fd5b6000611581848285016114ce565b91505092915050565b60008060008060008060c087890312156115a357600080fd5b600087013567ffffffffffffffff8111156115bd57600080fd5b6115c989828a016114f8565b96505060206115da89828a016114e3565b95505060406115eb89828a016114e3565b94505060606115fc89828a016114e3565b935050608061160d89828a016114e3565b92505060a061161e89828a016114e3565b9150509295509295509295565b6000806000806080858703121561164157600080fd5b600085013567ffffffffffffffff81111561165b57600080fd5b611667878288016114f8565b945050602085013567ffffffffffffffff81111561168457600080fd5b611690878288016114f8565b935050604085013567ffffffffffffffff8111156116ad57600080fd5b6116b9878288016114f8565b92505060606116ca8782880161154c565b91505092959194509250565b6000602082840312156116e857600080fd5b60006116f68482850161154c565b91505092915050565b6000806040838503121561171257600080fd5b60006117208582860161154c565b9250506020611731858286016114ce565b9150509250929050565b61174481611d83565b82525050565b61175381611d3b565b82525050565b61176281611d4d565b82525050565b61177181611d4d565b82525050565b600061178282611cfd565b61178c8185611d19565b935061179c818560208601611dc8565b6117a581611dfb565b840191505092915050565b60006117bb82611cfd565b6117c58185611d2a565b93506117d5818560208601611dc8565b6117de81611dfb565b840191505092915050565b60006117f6602683611d2a565b91507f4f776e61626c653a206e6577206f776e657220697320746865207a65726f206160008301527f64647265737300000000000000000000000000000000000000000000000000006020830152604082019050919050565b600061185c602583611d2a565b91507f6f6e6c79206e6f6e436c69656e74732063616e2075736520746869732066756e60008301527f6374696f6e0000000000000000000000000000000000000000000000000000006020830152604082019050919050565b60006118c2602083611d2a565b91507f4f776e61626c653a2063616c6c6572206973206e6f7420746865206f776e65726000830152602082019050919050565b6000611902600083611d08565b9150600082019050919050565b600060e083016000830151848203600086015261192c8282611777565b915050602083015184820360208601526119468282611777565b915050604083015184820360408601526119608282611777565b91505060608301516119756060860182611759565b5060808301516119886080860182611a55565b5060a083015161199b60a0860182611a55565b5060c08301516119ae60c0860182611a55565b508091505092915050565b600060e08301600083015184820360008601526119d68282611777565b91505060208301516119eb6020860182611759565b5060408301516119fe6040860182611759565b506060830151611a116060860182611759565b506080830151611a246080860182611759565b5060a0830151611a3760a0860182611759565b5060c0830151611a4a60c0860182611a55565b508091505092915050565b611a5e81611d79565b82525050565b611a6d81611d79565b82525050565b6000602082019050611a88600083018461174a565b92915050565b600060a082019050611aa3600083018661173b565b611ab0602083018561174a565b611abd6040830184611a64565b8181036060830152611ace816118f5565b90508181036080830152611ae1816118f5565b9050949350505050565b600060e0820190508181036000830152611b05818a6117b0565b9050611b146020830189611768565b611b216040830188611768565b611b2e6060830187611768565b611b3b6080830186611768565b611b4860a0830185611768565b611b5560c0830184611a64565b98975050505050505050565b600060e0820190508181036000830152611b7b818a6117b0565b90508181036020830152611b8f81896117b0565b90508181036040830152611ba381886117b0565b9050611bb26060830187611768565b611bbf6080830186611a64565b611bcc60a0830185611a64565b611bd960c0830184611a64565b98975050505050505050565b60006020820190508181036000830152611bfe816117e9565b9050919050565b60006020820190508181036000830152611c1e8161184f565b9050919050565b60006020820190508181036000830152611c3e816118b5565b9050919050565b60006020820190508181036000830152611c5f818461190f565b905092915050565b60006020820190508181036000830152611c8181846119b9565b905092915050565b6000602082019050611c9e6000830184611a64565b92915050565b6000604051905081810181811067ffffffffffffffff82111715611cc757600080fd5b8060405250919050565b600067ffffffffffffffff821115611ce857600080fd5b601f19601f8301169050602081019050919050565b600081519050919050565b600082825260208201905092915050565b600082825260208201905092915050565b600082825260208201905092915050565b6000611d4682611d59565b9050919050565b60008115159050919050565b600073ffffffffffffffffffffffffffffffffffffffff82169050919050565b6000819050919050565b6000611d8e82611d95565b9050919050565b6000611da082611da7565b9050919050565b6000611db282611d59565b9050919050565b82818337600083830152505050565b60005b83811015611de6578082015181840152602081019050611dcb565b83811115611df5576000848401525b50505050565b6000601f19601f8301169050919050565b611e1581611d3b565b8114611e2057600080fd5b50565b611e2c81611d4d565b8114611e3757600080fd5b50565b611e4381611d79565b8114611e4e57600080fd5b5056fea2646970667358221220ad12650d42ce1dedf10bd4665808f5193177bac325c69d29d62eb76fdd3df18a64736f6c634300060c0033",
  "immutableReferences": {},
  "source": " // SPDX-License-Identifier: MIT\npragma solidity ^0.6.0;\npragma experimental ABIEncoderV2;\nimport \"./TourToken.sol\";\nimport \"@openzeppelin/contracts/utils/Counters.sol\";\nimport \"@openzeppelin/contracts/access/Ownable.sol\";\n\n\ncontract Tourisme is Ownable{\nTourToken private _tour;\n\n\nusing Counters for Counters.Counter;\nCounters.Counter private _clientIds;\nCounters.Counter private _offerIds;\n\naddress payable _agence;\n\nuint256 counterClient;\nuint256 counterOffer;\n//uint256 price;\n\naddress _addrClient;\n//address payable _addrAgence;\n\n \nmapping (address => Client) public clients;\n\nmapping (uint256 => Offer) public offers;\n\nmapping (address => uint256) public balances_client;\n\nmapping (address => uint256) public balances_agence;\n\n constructor(address owner) public {\n    transferOwnership(owner);\n    \n }\n\nfunction setTourToken(address tourAddress) external onlyOwner {\n  _tour = TourToken(tourAddress);\n}\n\n/* Variables d'tat */\nstruct Client {\n     string nom;\n     string email;\n     string password;\n     bool isClient;\n     uint256 age;\n     uint256 no_reservation;\n     uint date_registration;\n \n}\n\nstruct Offer {\n    \n    string destination;\n    bool isTransport;\n    bool isSejour;\n    bool isRestauration;\n    bool isActivites;\n    bool isTours;\n   uint256 priceinTokens;\n}\n\n/* function getCurrentPrice() public view returns (uint256) {\n    return _price;\n  } */\n\nfunction register(string memory _nom, string memory _email, string memory _password, uint _age) public {\n    _addrClient = 0x44F31c324702C418d3486174d2A200Df1b345376;\n   // counterClient++;\n    _clientIds.increment();\n    //counterClient++;\n    require (clients[msg.sender].isClient == false, 'only nonClients can use this function');\n    uint newclientId = _clientIds.current();\n    clients[_addrClient] = Client(_nom, _email, _password, true, _age, 0, block.timestamp);\n} \n\n function clientId() public view returns (uint256) {\n        \n        return _clientIds.current();\n    } \n\nfunction getClient(address _addr) public view returns (Client memory) {\n        return clients[_addr];\n    }\n \n\nfunction choose_offer(string memory _destination, bool _isTransport, bool _isSejour, bool _isRestauration, bool _isActivites, bool _isTours) public {\n    //counterOffer++;\n    _offerIds.increment();\n    uint256 newofferId = _offerIds.current();\n    uint price;\n    if (_isTransport == true) {\n    uint PRICE_TRANSPORT = 50;\n    price += PRICE_TRANSPORT;\n    }\n    if (_isSejour == true) {\n    uint PRICE_SEJOUR = 100;\n    price += PRICE_SEJOUR;\n    }\n    if (_isRestauration == true) {\n    uint PRICE_RESTAURATION = 50;\n    price += PRICE_RESTAURATION;\n    }\n    if (_isActivites == true) {\n    uint PRICE_ACTIVITIES = 50;\n    price += PRICE_ACTIVITIES;\n    }\n    if (_isTours == true) {\n    uint PRICE_TOURS = 50;\n    price += PRICE_TOURS;\n    }\n   // uint totalPrice = offers[newofferId].priceinTokens;\n    offers[newofferId] = Offer(_destination, _isTransport, _isSejour, _isRestauration, _isActivites, _isTours, price);\n}\n\n function getOffer(uint256 _id) public view returns (Offer memory) {\n        return offers[_id];\n    }\n \n \nfunction reserveByClient (uint256 _id, address dst) public {\n\n    _tour.operatorSend(msg.sender, dst, offers[_id].priceinTokens, \"\", \"\");\n    clients[msg.sender].no_reservation = _id + clients[msg.sender].date_registration;\n  }\n  \n}\n",
  "sourcePath": "/Users/itanis/Desktop/projets/tourisme-back/contracts/Tourisme.sol",
  "compiler": {
    "name": "solc",
    "version": "0.6.12+commit.27d51765.Emscripten.clang"
  },
  "schemaVersion": "3.3.1",
  "updatedAt": "2020-11-27T10:58:50.460Z",
  "networkType": "ethereum",
  "devdoc": {
    "kind": "dev",
    "methods": {
      "owner()": {
        "details": "Returns the address of the current owner."
      },
      "renounceOwnership()": {
        "details": "Leaves the contract without owner. It will not be possible to call `onlyOwner` functions anymore. Can only be called by the current owner. NOTE: Renouncing ownership will leave the contract without an owner, thereby removing any functionality that is only available to the owner."
      },
      "transferOwnership(address)": {
        "details": "Transfers ownership of the contract to a new account (`newOwner`). Can only be called by the current owner."
      }
    },
    "version": 1
  },
  "userdoc": {
    "kind": "user",
    "methods": {},
    "version": 1
  }
}