{
  "contractName": "Tourisme",
  "abi": [
    {
      "inputs": [
        {
          "internalType": "address",
          "name": "owner",
          "type": "address"
        },
        {
          "internalType": "uint256",
          "name": "_price",
          "type": "uint256"
        },
        {
          "internalType": "address payable",
          "name": "_addrAgence",
          "type": "address"
        }
      ],
      "stateMutability": "nonpayable",
      "type": "constructor"
    },
    {
      "anonymous": false,
      "inputs": [
        {
          "indexed": true,
          "internalType": "address",
          "name": "previousOwner",
          "type": "address"
        },
        {
          "indexed": true,
          "internalType": "address",
          "name": "newOwner",
          "type": "address"
        }
      ],
      "name": "OwnershipTransferred",
      "type": "event"
    },
    {
      "inputs": [
        {
          "internalType": "address",
          "name": "",
          "type": "address"
        }
      ],
      "name": "clients",
      "outputs": [
        {
          "internalType": "string",
          "name": "name",
          "type": "string"
        },
        {
          "internalType": "string",
          "name": "email",
          "type": "string"
        },
        {
          "internalType": "uint256",
          "name": "no_reservation",
          "type": "uint256"
        },
        {
          "internalType": "uint256",
          "name": "date_registration",
          "type": "uint256"
        }
      ],
      "stateMutability": "view",
      "type": "function"
    },
    {
      "inputs": [
        {
          "internalType": "uint256",
          "name": "",
          "type": "uint256"
        }
      ],
      "name": "offers",
      "outputs": [
        {
          "internalType": "string",
          "name": "destination",
          "type": "string"
        },
        {
          "internalType": "uint256",
          "name": "priceinTokens",
          "type": "uint256"
        }
      ],
      "stateMutability": "view",
      "type": "function"
    },
    {
      "inputs": [],
      "name": "owner",
      "outputs": [
        {
          "internalType": "address",
          "name": "",
          "type": "address"
        }
      ],
      "stateMutability": "view",
      "type": "function"
    },
    {
      "inputs": [],
      "name": "renounceOwnership",
      "outputs": [],
      "stateMutability": "nonpayable",
      "type": "function"
    },
    {
      "inputs": [
        {
          "internalType": "address",
          "name": "newOwner",
          "type": "address"
        }
      ],
      "name": "transferOwnership",
      "outputs": [],
      "stateMutability": "nonpayable",
      "type": "function"
    },
    {
      "inputs": [
        {
          "internalType": "address",
          "name": "tourAddress",
          "type": "address"
        }
      ],
      "name": "setTourToken",
      "outputs": [],
      "stateMutability": "nonpayable",
      "type": "function"
    },
    {
      "inputs": [
        {
          "internalType": "string",
          "name": "_name",
          "type": "string"
        },
        {
          "internalType": "string",
          "name": "_email",
          "type": "string"
        }
      ],
      "name": "register",
      "outputs": [],
      "stateMutability": "nonpayable",
      "type": "function"
    },
    {
      "inputs": [
        {
          "internalType": "address",
          "name": "_addr",
          "type": "address"
        }
      ],
      "name": "isRegistered",
      "outputs": [
        {
          "internalType": "bool",
          "name": "",
          "type": "bool"
        }
      ],
      "stateMutability": "view",
      "type": "function"
    },
    {
      "inputs": [],
      "name": "clientId",
      "outputs": [
        {
          "internalType": "uint256",
          "name": "",
          "type": "uint256"
        }
      ],
      "stateMutability": "view",
      "type": "function"
    },
    {
      "inputs": [
        {
          "internalType": "address",
          "name": "_addr",
          "type": "address"
        }
      ],
      "name": "getClient",
      "outputs": [
        {
          "components": [
            {
              "internalType": "string",
              "name": "name",
              "type": "string"
            },
            {
              "internalType": "string",
              "name": "email",
              "type": "string"
            },
            {
              "internalType": "uint256",
              "name": "no_reservation",
              "type": "uint256"
            },
            {
              "internalType": "uint256",
              "name": "date_registration",
              "type": "uint256"
            }
          ],
          "internalType": "struct Tourisme.Client",
          "name": "",
          "type": "tuple"
        }
      ],
      "stateMutability": "view",
      "type": "function"
    },
    {
      "inputs": [
        {
          "internalType": "string",
          "name": "_destination",
          "type": "string"
        },
        {
          "internalType": "bool",
          "name": "_isSejour",
          "type": "bool"
        },
        {
          "internalType": "bool",
          "name": "_isTransport",
          "type": "bool"
        },
        {
          "internalType": "bool",
          "name": "_isRestauration",
          "type": "bool"
        },
        {
          "internalType": "bool",
          "name": "_isActivities",
          "type": "bool"
        },
        {
          "internalType": "bool",
          "name": "_isTours",
          "type": "bool"
        }
      ],
      "name": "choose_offer",
      "outputs": [],
      "stateMutability": "nonpayable",
      "type": "function"
    },
    {
      "inputs": [],
      "name": "getofferID",
      "outputs": [
        {
          "internalType": "uint256",
          "name": "",
          "type": "uint256"
        }
      ],
      "stateMutability": "view",
      "type": "function"
    },
    {
      "inputs": [
        {
          "internalType": "uint256",
          "name": "_id",
          "type": "uint256"
        }
      ],
      "name": "getPrice",
      "outputs": [
        {
          "internalType": "uint256",
          "name": "",
          "type": "uint256"
        }
      ],
      "stateMutability": "view",
      "type": "function"
    },
    {
      "inputs": [
        {
          "internalType": "uint256",
          "name": "_id",
          "type": "uint256"
        }
      ],
      "name": "getOffer",
      "outputs": [
        {
          "components": [
            {
              "internalType": "string",
              "name": "destination",
              "type": "string"
            },
            {
              "internalType": "uint256",
              "name": "priceinTokens",
              "type": "uint256"
            }
          ],
          "internalType": "struct Tourisme.Offer",
          "name": "",
          "type": "tuple"
        }
      ],
      "stateMutability": "view",
      "type": "function"
    },
    {
      "inputs": [
        {
          "internalType": "uint256",
          "name": "nbTokens",
          "type": "uint256"
        }
      ],
      "name": "buyTokens",
      "outputs": [
        {
          "internalType": "bool",
          "name": "",
          "type": "bool"
        }
      ],
      "stateMutability": "payable",
      "type": "function"
    },
    {
      "inputs": [
        {
          "internalType": "uint256",
          "name": "_id",
          "type": "uint256"
        }
      ],
      "name": "reserveByClient",
      "outputs": [],
      "stateMutability": "nonpayable",
      "type": "function"
    }
  ],
  "bytecode": "0x60806040523480156200001157600080fd5b506040516200268738038062002687833981810160405281019062000037919062000366565b6000620000496200014960201b60201c565b9050806000806101000a81548173ffffffffffffffffffffffffffffffffffffffff021916908373ffffffffffffffffffffffffffffffffffffffff1602179055508073ffffffffffffffffffffffffffffffffffffffff16600073ffffffffffffffffffffffffffffffffffffffff167f8be0079c531659141344cd1fd0a4f28419497f9722a3daafe3b4186f6b6457e060405160405180910390a350620000f8836200015160201b60201c565b8160058190555080600a60006101000a81548173ffffffffffffffffffffffffffffffffffffffff021916908373ffffffffffffffffffffffffffffffffffffffff1602179055505050506200055b565b600033905090565b620001616200014960201b60201c565b73ffffffffffffffffffffffffffffffffffffffff1660008054906101000a900473ffffffffffffffffffffffffffffffffffffffff1673ffffffffffffffffffffffffffffffffffffffff1614620001f1576040517f08c379a0000000000000000000000000000000000000000000000000000000008152600401620001e89062000488565b60405180910390fd5b600073ffffffffffffffffffffffffffffffffffffffff168173ffffffffffffffffffffffffffffffffffffffff16141562000264576040517f08c379a00000000000000000000000000000000000000000000000000000000081526004016200025b9062000466565b60405180910390fd5b8073ffffffffffffffffffffffffffffffffffffffff1660008054906101000a900473ffffffffffffffffffffffffffffffffffffffff1673ffffffffffffffffffffffffffffffffffffffff167f8be0079c531659141344cd1fd0a4f28419497f9722a3daafe3b4186f6b6457e060405160405180910390a3806000806101000a81548173ffffffffffffffffffffffffffffffffffffffff021916908373ffffffffffffffffffffffffffffffffffffffff16021790555050565b60008151905062000332816200050d565b92915050565b600081519050620003498162000527565b92915050565b600081519050620003608162000541565b92915050565b6000806000606084860312156200037c57600080fd5b60006200038c8682870162000321565b93505060206200039f868287016200034f565b9250506040620003b28682870162000338565b9150509250925092565b6000620003cb602683620004aa565b91507f4f776e61626c653a206e6577206f776e657220697320746865207a65726f206160008301527f64647265737300000000000000000000000000000000000000000000000000006020830152604082019050919050565b600062000433602083620004aa565b91507f4f776e61626c653a2063616c6c6572206973206e6f7420746865206f776e65726000830152602082019050919050565b600060208201905081810360008301526200048181620003bc565b9050919050565b60006020820190508181036000830152620004a38162000424565b9050919050565b600082825260208201905092915050565b6000620004c882620004e3565b9050919050565b6000620004dc82620004e3565b9050919050565b600073ffffffffffffffffffffffffffffffffffffffff82169050919050565b6000819050919050565b6200051881620004bb565b81146200052457600080fd5b50565b6200053281620004cf565b81146200053e57600080fd5b50565b6200054c8162000503565b81146200055857600080fd5b50565b61211c806200056b6000396000f3fe6080604052600436106100f35760003560e01c80638da5cb5b1161008a578063c3c5a54711610059578063c3c5a54714610331578063e75722301461036e578063e7b61d03146103ab578063f2fde38b146103d6576100f3565b80638da5cb5b146102775780639b974d05146102a2578063a0e32870146102cb578063badb38f614610308576100f3565b806361eed2a9116100c657806361eed2a9146101b75780636bb3471a146101f7578063715018a6146102225780638a72ea6a14610239576100f3565b80632d266b18146100f85780633610724e146101215780633ffbd47f146101515780634579268a1461017a575b600080fd5b34801561010457600080fd5b5061011f600480360381019061011a9190611835565b6103ff565b005b61013b6004803603810190610136919061196b565b6104d8565b6040516101489190611d7c565b60405180910390f35b34801561015d57600080fd5b50610178600480360381019061017391906118ff565b6106eb565b005b34801561018657600080fd5b506101a1600480360381019061019c919061196b565b610830565b6040516101ae9190611efc565b60405180910390f35b3480156101c357600080fd5b506101de60048036038101906101d99190611835565b610909565b6040516101ee9493929190611d97565b60405180910390f35b34801561020357600080fd5b5061020c610a69565b6040516102199190611f1e565b60405180910390f35b34801561022e57600080fd5b50610237610a7a565b005b34801561024557600080fd5b50610260600480360381019061025b919061196b565b610bcd565b60405161026e929190611dea565b60405180910390f35b34801561028357600080fd5b5061028c610c89565b6040516102999190611d04565b60405180910390f35b3480156102ae57600080fd5b506102c960048036038101906102c4919061185e565b610cb2565b005b3480156102d757600080fd5b506102f260048036038101906102ed9190611835565b611093565b6040516102ff9190611eda565b60405180910390f35b34801561031457600080fd5b5061032f600480360381019061032a919061196b565b611244565b005b34801561033d57600080fd5b5061035860048036038101906103539190611835565b611399565b6040516103659190611d7c565b60405180910390f35b34801561037a57600080fd5b506103956004803603810190610390919061196b565b6113e8565b6040516103a29190611f1e565b60405180910390f35b3480156103b757600080fd5b506103c06114cb565b6040516103cd9190611f1e565b60405180910390f35b3480156103e257600080fd5b506103fd60048036038101906103f89190611835565b6114d5565b005b610407611697565b73ffffffffffffffffffffffffffffffffffffffff1660008054906101000a900473ffffffffffffffffffffffffffffffffffffffff1673ffffffffffffffffffffffffffffffffffffffff1614610494576040517f08c379a000000000000000000000000000000000000000000000000000000000815260040161048b90611e7a565b60405180910390fd5b80600160006101000a81548173ffffffffffffffffffffffffffffffffffffffff021916908373ffffffffffffffffffffffffffffffffffffffff16021790555050565b600080341161051c576040517f08c379a000000000000000000000000000000000000000000000000000000000815260040161051390611e1a565b60405180910390fd5b3460055483021115610563576040517f08c379a000000000000000000000000000000000000000000000000000000000815260040161055a90611eba565b60405180910390fd5b60006005548302905060008134039050600a60009054906101000a900473ffffffffffffffffffffffffffffffffffffffff1673ffffffffffffffffffffffffffffffffffffffff166108fc839081150290604051600060405180830381858888f193505050501580156105db573d6000803e3d6000fd5b50600160009054906101000a900473ffffffffffffffffffffffffffffffffffffffff1673ffffffffffffffffffffffffffffffffffffffff166362ad1b83600a60009054906101000a900473ffffffffffffffffffffffffffffffffffffffff1633876040518463ffffffff1660e01b815260040161065d93929190611d1f565b600060405180830381600087803b15801561067757600080fd5b505af115801561068b573d6000803e3d6000fd5b5050505060008111156106e0573373ffffffffffffffffffffffffffffffffffffffff166108fc829081150290604051600060405180830381858888f193505050501580156106de573d6000803e3d6000fd5b505b600192505050919050565b6000600b60003373ffffffffffffffffffffffffffffffffffffffff1673ffffffffffffffffffffffffffffffffffffffff1681526020019081526020016000206003015414610770576040517f08c379a000000000000000000000000000000000000000000000000000000000815260040161076790611e9a565b60405180910390fd5b61077a600261169f565b60405180608001604052808381526020018281526020016000815260200142815250600b60003373ffffffffffffffffffffffffffffffffffffffff1673ffffffffffffffffffffffffffffffffffffffff16815260200190815260200160002060008201518160000190805190602001906107f79291906116c3565b5060208201518160010190805190602001906108149291906116c3565b5060408201518160020155606082015181600301559050505050565b610838611743565b600c6000838152602001908152602001600020604051806040016040529081600082018054600181600116156101000203166002900480601f0160208091040260200160405190810160405280929190818152602001828054600181600116156101000203166002900480156108ef5780601f106108c4576101008083540402835291602001916108ef565b820191906000526020600020905b8154815290600101906020018083116108d257829003601f168201915b505050505081526020016001820154815250509050919050565b600b602052806000526040600020600091509050806000018054600181600116156101000203166002900480601f0160208091040260200160405190810160405280929190818152602001828054600181600116156101000203166002900480156109b55780601f1061098a576101008083540402835291602001916109b5565b820191906000526020600020905b81548152906001019060200180831161099857829003601f168201915b505050505090806001018054600181600116156101000203166002900480601f016020809104026020016040519081016040528092919081815260200182805460018160011615610100020316600290048015610a535780601f10610a2857610100808354040283529160200191610a53565b820191906000526020600020905b815481529060010190602001808311610a3657829003601f168201915b5050505050908060020154908060030154905084565b6000610a7560026116b5565b905090565b610a82611697565b73ffffffffffffffffffffffffffffffffffffffff1660008054906101000a900473ffffffffffffffffffffffffffffffffffffffff1673ffffffffffffffffffffffffffffffffffffffff1614610b0f576040517f08c379a0000000000000000000000000000000000000000000000000000000008152600401610b0690611e7a565b60405180910390fd5b600073ffffffffffffffffffffffffffffffffffffffff1660008054906101000a900473ffffffffffffffffffffffffffffffffffffffff1673ffffffffffffffffffffffffffffffffffffffff167f8be0079c531659141344cd1fd0a4f28419497f9722a3daafe3b4186f6b6457e060405160405180910390a360008060006101000a81548173ffffffffffffffffffffffffffffffffffffffff021916908373ffffffffffffffffffffffffffffffffffffffff160217905550565b600c602052806000526040600020600091509050806000018054600181600116156101000203166002900480601f016020809104026020016040519081016040528092919081815260200182805460018160011615610100020316600290048015610c795780601f10610c4e57610100808354040283529160200191610c79565b820191906000526020600020905b815481529060010190602001808311610c5c57829003601f168201915b5050505050908060010154905082565b60008060009054906101000a900473ffffffffffffffffffffffffffffffffffffffff16905090565b600760008154809291906001019190505550600060075490506000806000806000806040518060400160405280600781526020017f4e6577596f726b00000000000000000000000000000000000000000000000000815250805190602001208d805190602001201415610d9c57600115158c15151415610d3757606494506064860195505b600115158b15151415610d4f57603293506032860195505b600115158a15151415610d6757603292506032860195505b600115158915151415610d7f57603291506032860195505b600115158815151415610d9757603290506032860195505b611032565b6040518060400160405280600881526020017f4d616c6469766573000000000000000000000000000000000000000000000000815250805190602001208d805190602001201415610e6457600115158c15151415610dff57609694506096860195505b600115158b15151415610e1757601e9350601e860195505b600115158a15151415610e2f57603292506032860195505b600115158915151415610e4757601491506014860195505b600115158815151415610e5f57603290506032860195505b611031565b6040518060400160405280600981526020017f56616e636f757665720000000000000000000000000000000000000000000000815250805190602001208d805190602001201415610f2c57600115158c15151415610ec757605094506050860195505b600115158b15151415610edf57602893506028860195505b600115158a15151415610ef757602892506028860195505b600115158915151415610f0f57601e9150601e860195505b600115158815151415610f2757601e9050601e860195505b611030565b6040518060400160405280600981526020017f42617263656c6f6e610000000000000000000000000000000000000000000000815250805190602001208d805190602001201415610ff457600115158c15151415610f8f57603294506032860195505b600115158b15151415610fa757601e9350601e860195505b600115158a15151415610fbf57601e9250601e860195505b600115158915151415610fd757601491506014860195505b600115158815151415610fef57603290506032860195505b61102f565b6040517f08c379a000000000000000000000000000000000000000000000000000000000815260040161102690611e5a565b60405180910390fd5b5b5b5b60405180604001604052808e815260200187815250600c600089815260200190815260200160002060008201518160000190805190602001906110769291906116c3565b506020820151816001015590505050505050505050505050505050565b61109b61175d565b600b60008373ffffffffffffffffffffffffffffffffffffffff1673ffffffffffffffffffffffffffffffffffffffff168152602001908152602001600020604051806080016040529081600082018054600181600116156101000203166002900480601f01602080910402602001604051908101604052809291908181526020018280546001816001161561010002031660029004801561117e5780601f106111535761010080835404028352916020019161117e565b820191906000526020600020905b81548152906001019060200180831161116157829003601f168201915b50505050508152602001600182018054600181600116156101000203166002900480601f0160208091040260200160405190810160405280929190818152602001828054600181600116156101000203166002900480156112205780601f106111f557610100808354040283529160200191611220565b820191906000526020600020905b81548152906001019060200180831161120357829003601f168201915b50505050508152602001600282015481526020016003820154815250509050919050565b600160009054906101000a900473ffffffffffffffffffffffffffffffffffffffff1673ffffffffffffffffffffffffffffffffffffffff166362ad1b8333600a60009054906101000a900473ffffffffffffffffffffffffffffffffffffffff16600c6000868152602001908152602001600020600101546040518463ffffffff1660e01b81526004016112db93929190611d1f565b600060405180830381600087803b1580156112f557600080fd5b505af1158015611309573d6000803e3d6000fd5b50505050600b60003373ffffffffffffffffffffffffffffffffffffffff1673ffffffffffffffffffffffffffffffffffffffff16815260200190815260200160002060030154600b60003373ffffffffffffffffffffffffffffffffffffffff1673ffffffffffffffffffffffffffffffffffffffff1681526020019081526020016000206002018190555050565b600080600b60008473ffffffffffffffffffffffffffffffffffffffff1673ffffffffffffffffffffffffffffffffffffffff1681526020019081526020016000206003015414159050919050565b60006113f2611743565b600c6000848152602001908152602001600020604051806040016040529081600082018054600181600116156101000203166002900480601f0160208091040260200160405190810160405280929190818152602001828054600181600116156101000203166002900480156114a95780601f1061147e576101008083540402835291602001916114a9565b820191906000526020600020905b81548152906001019060200180831161148c57829003601f168201915b5050505050815260200160018201548152505090508060200151915050919050565b6000600754905090565b6114dd611697565b73ffffffffffffffffffffffffffffffffffffffff1660008054906101000a900473ffffffffffffffffffffffffffffffffffffffff1673ffffffffffffffffffffffffffffffffffffffff161461156a576040517f08c379a000000000000000000000000000000000000000000000000000000000815260040161156190611e7a565b60405180910390fd5b600073ffffffffffffffffffffffffffffffffffffffff168173ffffffffffffffffffffffffffffffffffffffff1614156115da576040517f08c379a00000000000000000000000000000000000000000000000000000000081526004016115d190611e3a565b60405180910390fd5b8073ffffffffffffffffffffffffffffffffffffffff1660008054906101000a900473ffffffffffffffffffffffffffffffffffffffff1673ffffffffffffffffffffffffffffffffffffffff167f8be0079c531659141344cd1fd0a4f28419497f9722a3daafe3b4186f6b6457e060405160405180910390a3806000806101000a81548173ffffffffffffffffffffffffffffffffffffffff021916908373ffffffffffffffffffffffffffffffffffffffff16021790555050565b600033905090565b6001816000016000828254019250508190555050565b600081600001549050919050565b828054600181600116156101000203166002900490600052602060002090601f016020900481019282601f1061170457805160ff1916838001178555611732565b82800160010185558215611732579182015b82811115611731578251825591602001919060010190611716565b5b50905061173f9190611785565b5090565b604051806040016040528060608152602001600081525090565b6040518060800160405280606081526020016060815260200160008152602001600081525090565b5b8082111561179e576000816000905550600101611786565b5090565b6000813590506117b1816120a1565b92915050565b6000813590506117c6816120b8565b92915050565b600082601f8301126117dd57600080fd5b81356117f06117eb82611f66565b611f39565b9150808252602083016020830185838301111561180c57600080fd5b61181783828461204e565b50505092915050565b60008135905061182f816120cf565b92915050565b60006020828403121561184757600080fd5b6000611855848285016117a2565b91505092915050565b60008060008060008060c0878903121561187757600080fd5b600087013567ffffffffffffffff81111561189157600080fd5b61189d89828a016117cc565b96505060206118ae89828a016117b7565b95505060406118bf89828a016117b7565b94505060606118d089828a016117b7565b93505060806118e189828a016117b7565b92505060a06118f289828a016117b7565b9150509295509295509295565b6000806040838503121561191257600080fd5b600083013567ffffffffffffffff81111561192c57600080fd5b611938858286016117cc565b925050602083013567ffffffffffffffff81111561195557600080fd5b611961858286016117cc565b9150509250929050565b60006020828403121561197d57600080fd5b600061198b84828501611820565b91505092915050565b61199d81612018565b82525050565b6119ac81611fd0565b82525050565b6119bb81611fe2565b82525050565b60006119cc82611f92565b6119d68185611fae565b93506119e681856020860161205d565b6119ef81612090565b840191505092915050565b6000611a0582611f92565b611a0f8185611fbf565b9350611a1f81856020860161205d565b611a2881612090565b840191505092915050565b6000611a40600e83611fbf565b91507f206d696e696d756d2031207765690000000000000000000000000000000000006000830152602082019050919050565b6000611a80602683611fbf565b91507f4f776e61626c653a206e6577206f776e657220697320746865207a65726f206160008301527f64647265737300000000000000000000000000000000000000000000000000006020830152604082019050919050565b6000611ae6601383611fbf565b91507f496e76616c69642064657374696e6174696f6e000000000000000000000000006000830152602082019050919050565b6000611b26602083611fbf565b91507f4f776e61626c653a2063616c6c6572206973206e6f7420746865206f776e65726000830152602082019050919050565b6000611b66602883611fbf565b91507f6f6e6c792061206e6f6e2d636c69656e742063616e2063616c6c20746869732060008301527f66756e6374696f6e0000000000000000000000000000000000000000000000006020830152604082019050919050565b6000611bcc603283611fbf565b91507f4e6f7420656e6f75676820457468657220746f2070757263686173652074686960008301527f73206e756d626572206f6620746f6b656e7300000000000000000000000000006020830152604082019050919050565b6000611c32600083611f9d565b9150600082019050919050565b60006080830160008301518482036000860152611c5c82826119c1565b91505060208301518482036020860152611c7682826119c1565b9150506040830151611c8b6040860182611ce6565b506060830151611c9e6060860182611ce6565b508091505092915050565b60006040830160008301518482036000860152611cc682826119c1565b9150506020830151611cdb6020860182611ce6565b508091505092915050565b611cef8161200e565b82525050565b611cfe8161200e565b82525050565b6000602082019050611d1960008301846119a3565b92915050565b600060a082019050611d346000830186611994565b611d416020830185611994565b611d4e6040830184611cf5565b8181036060830152611d5f81611c25565b90508181036080830152611d7281611c25565b9050949350505050565b6000602082019050611d9160008301846119b2565b92915050565b60006080820190508181036000830152611db181876119fa565b90508181036020830152611dc581866119fa565b9050611dd46040830185611cf5565b611de16060830184611cf5565b95945050505050565b60006040820190508181036000830152611e0481856119fa565b9050611e136020830184611cf5565b9392505050565b60006020820190508181036000830152611e3381611a33565b9050919050565b60006020820190508181036000830152611e5381611a73565b9050919050565b60006020820190508181036000830152611e7381611ad9565b9050919050565b60006020820190508181036000830152611e9381611b19565b9050919050565b60006020820190508181036000830152611eb381611b59565b9050919050565b60006020820190508181036000830152611ed381611bbf565b9050919050565b60006020820190508181036000830152611ef48184611c3f565b905092915050565b60006020820190508181036000830152611f168184611ca9565b905092915050565b6000602082019050611f336000830184611cf5565b92915050565b6000604051905081810181811067ffffffffffffffff82111715611f5c57600080fd5b8060405250919050565b600067ffffffffffffffff821115611f7d57600080fd5b601f19601f8301169050602081019050919050565b600081519050919050565b600082825260208201905092915050565b600082825260208201905092915050565b600082825260208201905092915050565b6000611fdb82611fee565b9050919050565b60008115159050919050565b600073ffffffffffffffffffffffffffffffffffffffff82169050919050565b6000819050919050565b60006120238261202a565b9050919050565b60006120358261203c565b9050919050565b600061204782611fee565b9050919050565b82818337600083830152505050565b60005b8381101561207b578082015181840152602081019050612060565b8381111561208a576000848401525b50505050565b6000601f19601f8301169050919050565b6120aa81611fd0565b81146120b557600080fd5b50565b6120c181611fe2565b81146120cc57600080fd5b50565b6120d88161200e565b81146120e357600080fd5b5056fea264697066735822122052fdbcf57bfd36101e8ed73e26cb4d8209bebc53d509377024d7faa2067d909664736f6c634300060c0033",
  "immutableReferences": {},
  "source": "  // SPDX-License-Identifier: MIT\npragma solidity ^0.6.0;\npragma experimental ABIEncoderV2;\nimport \"./TourToken.sol\";\nimport \"@openzeppelin/contracts/utils/Counters.sol\";\nimport \"@openzeppelin/contracts/access/Ownable.sol\";\n\n\ncontract Tourisme is Ownable {\nTourToken private _tour;\n\n\nusing Counters for Counters.Counter;\nCounters.Counter private _clientIds;\nCounters.Counter private _offerIds;\n\naddress payable _agence;\nuint256 price_token;\nuint256 counterClient;\nuint256 counterOffer;\nuint256 totalprice;\n\naddress _addrClient;\naddress payable addrAgence;\n//bool isRegistered;\n\nmapping (address => Client) public clients;\n\nmapping (uint256 => Offer) public offers;\n\n constructor(address owner, uint256 _price, address payable _addrAgence) public {\n    transferOwnership(owner);\n    price_token = _price;\n    addrAgence = _addrAgence;\n }\n\nfunction setTourToken(address tourAddress) external onlyOwner {\n  _tour = TourToken(tourAddress);\n}\n\n/* Variables d'tat */\nstruct Client {\n    string name;\n    string email;\n    uint256 no_reservation;\n    uint256 date_registration;\n \n}\n\nstruct Offer {\n    \n    string destination;\n   uint256 priceinTokens;\n}\n\nfunction register(string memory _name, string memory _email) onlyNotRegistered public {\n   // _addrClient = 0x44F31c324702C418d3486174d2A200Df1b345376;\n  \n    _clientIds.increment();\n    //counterClient++;\n   \n    clients[msg.sender] = Client(_name, _email, 0, block.timestamp);\n   \n} \n\nfunction isRegistered(address _addr) public view returns (bool) {\n    return clients[_addr].date_registration != 0;\n}\n\n function clientId() public view returns (uint256) {\n        \n        return _clientIds.current();\n    } \n\nmodifier onlyClient (){\n            require (clients[msg.sender].date_registration != 0, \"only a client can call this function\");\n            _;\n        } \n\nmodifier onlyNotRegistered (){\n            require (clients[msg.sender].date_registration == 0, \"only a non-client can call this function\");\n            _;\n        }\n\nfunction getClient(address _addr) public view returns (Client memory) {\n        return clients[_addr];\n    }\n \n function choose_offer(string memory _destination, bool _isSejour, bool _isTransport, bool _isRestauration, bool _isActivities, bool _isTours) public {\n    counterOffer++;\n\n    //_offerIds.increment();\n    uint256 newofferId = counterOffer;\n    uint price;\n    uint PRICE_SEJOUR;\n    uint PRICE_TRANSPORT;\n    uint PRICE_RESTAURATION;\n    uint PRICE_ACTIVITIES;\n    uint PRICE_TOURS;\n    if (keccak256(bytes(_destination)) == keccak256(bytes(\"NewYork\"))) {\n        if (_isSejour == true) {\n        PRICE_SEJOUR = 100;\n        price +=100;\n        }\n        if (_isTransport == true) {\n        PRICE_TRANSPORT = 50;\n        price +=50;\n        }\n        if (_isRestauration == true) {\n        PRICE_RESTAURATION = 50;\n        price +=50;\n        }\n        if (_isActivities == true) {\n        PRICE_ACTIVITIES = 50;\n        price +=50;\n        }\n        if (_isTours == true) {\n        PRICE_TOURS = 50;\n        price  += 50;\n        }\n    }\n    else if (keccak256(bytes(_destination)) == keccak256(bytes(\"Maldives\"))) {\n         if (_isSejour == true) {\n        PRICE_SEJOUR = 150;\n        price +=150;\n        }\n        if (_isTransport == true) {\n        PRICE_TRANSPORT = 30;\n        price +=30;\n        }\n        if (_isRestauration == true) {\n        PRICE_RESTAURATION = 50;\n        price +=50;\n        }\n        if (_isActivities == true) {\n        PRICE_ACTIVITIES = 20;\n        price +=20;\n        }\n        if (_isTours == true) {\n        PRICE_TOURS = 50;\n        price  += 50;\n        }\n    }\n    else if (keccak256(bytes(_destination)) == keccak256(bytes(\"Vancouver\"))) {\n        if (_isSejour == true) {\n        PRICE_SEJOUR = 80;\n        price +=80;\n        }\n        if (_isTransport == true) {\n        PRICE_TRANSPORT = 40;\n        price +=40;\n        }\n        if (_isRestauration == true) {\n        PRICE_RESTAURATION = 40;\n        price += 40;\n        }\n        if (_isActivities == true) {\n        PRICE_ACTIVITIES = 30;\n        price +=30;\n        }\n        if (_isTours == true) {\n        PRICE_TOURS = 30;\n        price  += 30;\n        }\n    }\n    else if(keccak256(bytes(_destination)) == keccak256(bytes(\"Barcelona\"))) {\n      if (_isSejour == true) {\n        PRICE_SEJOUR = 50;\n        price +=50;\n        }\n        if (_isTransport == true) {\n        PRICE_TRANSPORT = 30;\n        price +=30;\n        }\n        if (_isRestauration == true) {\n        PRICE_RESTAURATION = 30;\n        price += 30;\n        }\n        if (_isActivities == true) {\n        PRICE_ACTIVITIES = 20;\n        price +=20;\n        }\n        if (_isTours == true) {\n        PRICE_TOURS = 50;\n        price  += 50;\n        }\n    }\n    else revert(\"Invalid destination\");\n  \n    offers[newofferId] = Offer(_destination, price);\n}\n\n function getofferID() public view returns (uint256) {\n  \n    return counterOffer;\n  \n}\n\nfunction getPrice(uint256 _id) public view returns(uint256) {\n    Offer memory c = offers[_id];\n    return (c.priceinTokens);\n}\n\nfunction getOffer(uint256 _id) public view returns (Offer memory) {\n        return offers[_id];\n    } \n \n\nfunction buyTokens(uint256 nbTokens) public payable returns (bool) {\n        \n        require(msg.value > 0, \" minimum 1 wei\");\n    \n        require(\n            (nbTokens * price_token) <= msg.value,\n            \"Not enough Ether to purchase this number of tokens\"\n        );\n        uint256 realPrice = (nbTokens * price_token);\n        uint256 remain = msg.value - realPrice;\n        addrAgence.transfer(realPrice);\n        _tour.operatorSend(addrAgence, msg.sender, nbTokens, \"\", \"\");\n        if (remain > 0) {\n            msg.sender.transfer(remain);\n        }\n        return true;\n    }\n \nfunction reserveByClient(uint _id) public {\n   \n    _tour.operatorSend(msg.sender, addrAgence, offers[_id].priceinTokens, \"\", \"\");\n    clients[msg.sender].no_reservation = clients[msg.sender].date_registration;\n  }\n  \n}",
  "sourcePath": "/Users/itanis/Desktop/projets/tourisme-back/contracts/Tourisme.sol",
  "compiler": {
    "name": "solc",
    "version": "0.6.12+commit.27d51765.Linux.g++"
  },
  "schemaVersion": "3.3.1",
  "updatedAt": "2020-12-11T16:29:29.213Z",
  "devdoc": {
    "kind": "dev",
    "methods": {
      "owner()": {
        "details": "Returns the address of the current owner."
      },
      "renounceOwnership()": {
        "details": "Leaves the contract without owner. It will not be possible to call `onlyOwner` functions anymore. Can only be called by the current owner. NOTE: Renouncing ownership will leave the contract without an owner, thereby removing any functionality that is only available to the owner."
      },
      "transferOwnership(address)": {
        "details": "Transfers ownership of the contract to a new account (`newOwner`). Can only be called by the current owner."
      }
    },
    "version": 1
  },
  "userdoc": {
    "kind": "user",
    "methods": {},
    "version": 1
  }
}