{
  "contractName": "Tourisme",
  "abi": [
    {
      "inputs": [
        {
          "internalType": "address",
          "name": "owner",
          "type": "address"
        },
        {
          "internalType": "uint256",
          "name": "_price",
          "type": "uint256"
        },
        {
          "internalType": "address payable",
          "name": "_addrAgence",
          "type": "address"
        }
      ],
      "stateMutability": "nonpayable",
      "type": "constructor"
    },
    {
      "anonymous": false,
      "inputs": [
        {
          "indexed": true,
          "internalType": "address",
          "name": "previousOwner",
          "type": "address"
        },
        {
          "indexed": true,
          "internalType": "address",
          "name": "newOwner",
          "type": "address"
        }
      ],
      "name": "OwnershipTransferred",
      "type": "event"
    },
    {
      "inputs": [
        {
          "internalType": "address",
          "name": "",
          "type": "address"
        }
      ],
      "name": "clients",
      "outputs": [
        {
          "internalType": "string",
          "name": "name",
          "type": "string"
        },
        {
          "internalType": "string",
          "name": "email",
          "type": "string"
        },
        {
          "internalType": "uint256",
          "name": "no_reservation",
          "type": "uint256"
        },
        {
          "internalType": "uint256",
          "name": "date_registration",
          "type": "uint256"
        }
      ],
      "stateMutability": "view",
      "type": "function"
    },
    {
      "inputs": [
        {
          "internalType": "uint256",
          "name": "",
          "type": "uint256"
        }
      ],
      "name": "offers",
      "outputs": [
        {
          "internalType": "string",
          "name": "destination",
          "type": "string"
        },
        {
          "internalType": "uint256",
          "name": "priceinTokens",
          "type": "uint256"
        }
      ],
      "stateMutability": "view",
      "type": "function"
    },
    {
      "inputs": [],
      "name": "owner",
      "outputs": [
        {
          "internalType": "address",
          "name": "",
          "type": "address"
        }
      ],
      "stateMutability": "view",
      "type": "function"
    },
    {
      "inputs": [],
      "name": "renounceOwnership",
      "outputs": [],
      "stateMutability": "nonpayable",
      "type": "function"
    },
    {
      "inputs": [
        {
          "internalType": "address",
          "name": "newOwner",
          "type": "address"
        }
      ],
      "name": "transferOwnership",
      "outputs": [],
      "stateMutability": "nonpayable",
      "type": "function"
    },
    {
      "inputs": [
        {
          "internalType": "address",
          "name": "tourAddress",
          "type": "address"
        }
      ],
      "name": "setTourToken",
      "outputs": [],
      "stateMutability": "nonpayable",
      "type": "function"
    },
    {
      "inputs": [
        {
          "internalType": "string",
          "name": "_name",
          "type": "string"
        },
        {
          "internalType": "string",
          "name": "_email",
          "type": "string"
        }
      ],
      "name": "register",
      "outputs": [],
      "stateMutability": "nonpayable",
      "type": "function"
    },
    {
      "inputs": [
        {
          "internalType": "address",
          "name": "_addr",
          "type": "address"
        }
      ],
      "name": "isRegistered",
      "outputs": [
        {
          "internalType": "bool",
          "name": "",
          "type": "bool"
        }
      ],
      "stateMutability": "view",
      "type": "function"
    },
    {
      "inputs": [],
      "name": "clientId",
      "outputs": [
        {
          "internalType": "uint256",
          "name": "",
          "type": "uint256"
        }
      ],
      "stateMutability": "view",
      "type": "function"
    },
    {
      "inputs": [
        {
          "internalType": "address",
          "name": "_addr",
          "type": "address"
        }
      ],
      "name": "getClient",
      "outputs": [
        {
          "components": [
            {
              "internalType": "string",
              "name": "name",
              "type": "string"
            },
            {
              "internalType": "string",
              "name": "email",
              "type": "string"
            },
            {
              "internalType": "uint256",
              "name": "no_reservation",
              "type": "uint256"
            },
            {
              "internalType": "uint256",
              "name": "date_registration",
              "type": "uint256"
            }
          ],
          "internalType": "struct Tourisme.Client",
          "name": "",
          "type": "tuple"
        }
      ],
      "stateMutability": "view",
      "type": "function"
    },
    {
      "inputs": [
        {
          "internalType": "string",
          "name": "_destination",
          "type": "string"
        },
        {
          "internalType": "bool",
          "name": "_isSejour",
          "type": "bool"
        },
        {
          "internalType": "bool",
          "name": "_isTransport",
          "type": "bool"
        },
        {
          "internalType": "bool",
          "name": "_isRestauration",
          "type": "bool"
        },
        {
          "internalType": "bool",
          "name": "_isActivities",
          "type": "bool"
        },
        {
          "internalType": "bool",
          "name": "_isTours",
          "type": "bool"
        }
      ],
      "name": "choose_offer",
      "outputs": [],
      "stateMutability": "nonpayable",
      "type": "function"
    },
    {
      "inputs": [],
      "name": "getofferID",
      "outputs": [
        {
          "internalType": "uint256",
          "name": "",
          "type": "uint256"
        }
      ],
      "stateMutability": "view",
      "type": "function"
    },
    {
      "inputs": [
        {
          "internalType": "uint256",
          "name": "_id",
          "type": "uint256"
        }
      ],
      "name": "getPrice",
      "outputs": [
        {
          "internalType": "uint256",
          "name": "",
          "type": "uint256"
        }
      ],
      "stateMutability": "view",
      "type": "function"
    },
    {
      "inputs": [
        {
          "internalType": "uint256",
          "name": "_id",
          "type": "uint256"
        }
      ],
      "name": "getOffer",
      "outputs": [
        {
          "components": [
            {
              "internalType": "string",
              "name": "destination",
              "type": "string"
            },
            {
              "internalType": "uint256",
              "name": "priceinTokens",
              "type": "uint256"
            }
          ],
          "internalType": "struct Tourisme.Offer",
          "name": "",
          "type": "tuple"
        }
      ],
      "stateMutability": "view",
      "type": "function"
    },
    {
      "inputs": [
        {
          "internalType": "uint256",
          "name": "nbTokens",
          "type": "uint256"
        }
      ],
      "name": "buyTokens",
      "outputs": [
        {
          "internalType": "bool",
          "name": "",
          "type": "bool"
        }
      ],
      "stateMutability": "payable",
      "type": "function"
    },
    {
      "inputs": [
        {
          "internalType": "uint256",
          "name": "_id",
          "type": "uint256"
        }
      ],
      "name": "reserveByClient",
      "outputs": [],
      "stateMutability": "nonpayable",
      "type": "function"
    }
  ],
  "bytecode": "0x60806040523480156200001157600080fd5b506040516200282338038062002823833981810160405281019062000037919062000366565b6000620000496200014960201b60201c565b9050806000806101000a81548173ffffffffffffffffffffffffffffffffffffffff021916908373ffffffffffffffffffffffffffffffffffffffff1602179055508073ffffffffffffffffffffffffffffffffffffffff16600073ffffffffffffffffffffffffffffffffffffffff167f8be0079c531659141344cd1fd0a4f28419497f9722a3daafe3b4186f6b6457e060405160405180910390a350620000f8836200015160201b60201c565b8160048190555080600760006101000a81548173ffffffffffffffffffffffffffffffffffffffff021916908373ffffffffffffffffffffffffffffffffffffffff1602179055505050506200055b565b600033905090565b620001616200014960201b60201c565b73ffffffffffffffffffffffffffffffffffffffff1660008054906101000a900473ffffffffffffffffffffffffffffffffffffffff1673ffffffffffffffffffffffffffffffffffffffff1614620001f1576040517f08c379a0000000000000000000000000000000000000000000000000000000008152600401620001e89062000488565b60405180910390fd5b600073ffffffffffffffffffffffffffffffffffffffff168173ffffffffffffffffffffffffffffffffffffffff16141562000264576040517f08c379a00000000000000000000000000000000000000000000000000000000081526004016200025b9062000466565b60405180910390fd5b8073ffffffffffffffffffffffffffffffffffffffff1660008054906101000a900473ffffffffffffffffffffffffffffffffffffffff1673ffffffffffffffffffffffffffffffffffffffff167f8be0079c531659141344cd1fd0a4f28419497f9722a3daafe3b4186f6b6457e060405160405180910390a3806000806101000a81548173ffffffffffffffffffffffffffffffffffffffff021916908373ffffffffffffffffffffffffffffffffffffffff16021790555050565b60008151905062000332816200050d565b92915050565b600081519050620003498162000527565b92915050565b600081519050620003608162000541565b92915050565b6000806000606084860312156200037c57600080fd5b60006200038c8682870162000321565b93505060206200039f868287016200034f565b9250506040620003b28682870162000338565b9150509250925092565b6000620003cb602683620004aa565b91507f4f776e61626c653a206e6577206f776e657220697320746865207a65726f206160008301527f64647265737300000000000000000000000000000000000000000000000000006020830152604082019050919050565b600062000433602083620004aa565b91507f4f776e61626c653a2063616c6c6572206973206e6f7420746865206f776e65726000830152602082019050919050565b600060208201905081810360008301526200048181620003bc565b9050919050565b60006020820190508181036000830152620004a38162000424565b9050919050565b600082825260208201905092915050565b6000620004c882620004e3565b9050919050565b6000620004dc82620004e3565b9050919050565b600073ffffffffffffffffffffffffffffffffffffffff82169050919050565b6000819050919050565b6200051881620004bb565b81146200052457600080fd5b50565b6200053281620004cf565b81146200053e57600080fd5b50565b6200054c8162000503565b81146200055857600080fd5b50565b6122b8806200056b6000396000f3fe6080604052600436106100f35760003560e01c80638da5cb5b1161008a578063c3c5a54711610059578063c3c5a54714610331578063e75722301461036e578063e7b61d03146103ab578063f2fde38b146103d6576100f3565b80638da5cb5b146102775780639b974d05146102a2578063a0e32870146102cb578063badb38f614610308576100f3565b806361eed2a9116100c657806361eed2a9146101b75780636bb3471a146101f7578063715018a6146102225780638a72ea6a14610239576100f3565b80632d266b18146100f85780633610724e146101215780633ffbd47f146101515780634579268a1461017a575b600080fd5b34801561010457600080fd5b5061011f600480360381019061011a919061194b565b6103ff565b005b61013b60048036038101906101369190611a81565b6104d8565b6040516101489190611ef8565b60405180910390f35b34801561015d57600080fd5b5061017860048036038101906101739190611a15565b610771565b005b34801561018657600080fd5b506101a1600480360381019061019c9190611a81565b6108b6565b6040516101ae9190612098565b60405180910390f35b3480156101c357600080fd5b506101de60048036038101906101d9919061194b565b61098f565b6040516101ee9493929190611f13565b60405180910390f35b34801561020357600080fd5b5061020c610aef565b60405161021991906120ba565b60405180910390f35b34801561022e57600080fd5b50610237610b00565b005b34801561024557600080fd5b50610260600480360381019061025b9190611a81565b610c53565b60405161026e929190611f66565b60405180910390f35b34801561028357600080fd5b5061028c610d0f565b6040516102999190611e80565b60405180910390f35b3480156102ae57600080fd5b506102c960048036038101906102c49190611974565b610d38565b005b3480156102d757600080fd5b506102f260048036038101906102ed919061194b565b61111c565b6040516102ff9190612076565b60405180910390f35b34801561031457600080fd5b5061032f600480360381019061032a9190611a81565b6112cd565b005b34801561033d57600080fd5b506103586004803603810190610353919061194b565b6114a8565b6040516103659190611ef8565b60405180910390f35b34801561037a57600080fd5b5061039560048036038101906103909190611a81565b6114f7565b6040516103a291906120ba565b60405180910390f35b3480156103b757600080fd5b506103c06115da565b6040516103cd91906120ba565b60405180910390f35b3480156103e257600080fd5b506103fd60048036038101906103f8919061194b565b6115eb565b005b6104076117ad565b73ffffffffffffffffffffffffffffffffffffffff1660008054906101000a900473ffffffffffffffffffffffffffffffffffffffff1673ffffffffffffffffffffffffffffffffffffffff1614610494576040517f08c379a000000000000000000000000000000000000000000000000000000000815260040161048b90612016565b60405180910390fd5b80600160006101000a81548173ffffffffffffffffffffffffffffffffffffffff021916908373ffffffffffffffffffffffffffffffffffffffff16021790555050565b600080600860003373ffffffffffffffffffffffffffffffffffffffff1673ffffffffffffffffffffffffffffffffffffffff16815260200190815260200160002060030154141561055f576040517f08c379a000000000000000000000000000000000000000000000000000000000815260040161055690611fd6565b60405180910390fd5b600034116105a2576040517f08c379a000000000000000000000000000000000000000000000000000000000815260040161059990611f96565b60405180910390fd5b34600454830211156105e9576040517f08c379a00000000000000000000000000000000000000000000000000000000081526004016105e090612056565b60405180910390fd5b60006004548302905060008134039050600760009054906101000a900473ffffffffffffffffffffffffffffffffffffffff1673ffffffffffffffffffffffffffffffffffffffff166108fc839081150290604051600060405180830381858888f19350505050158015610661573d6000803e3d6000fd5b50600160009054906101000a900473ffffffffffffffffffffffffffffffffffffffff1673ffffffffffffffffffffffffffffffffffffffff166362ad1b83600760009054906101000a900473ffffffffffffffffffffffffffffffffffffffff1633876040518463ffffffff1660e01b81526004016106e393929190611e9b565b600060405180830381600087803b1580156106fd57600080fd5b505af1158015610711573d6000803e3d6000fd5b505050506000811115610766573373ffffffffffffffffffffffffffffffffffffffff166108fc829081150290604051600060405180830381858888f19350505050158015610764573d6000803e3d6000fd5b505b600192505050919050565b6000600860003373ffffffffffffffffffffffffffffffffffffffff1673ffffffffffffffffffffffffffffffffffffffff16815260200190815260200160002060030154146107f6576040517f08c379a00000000000000000000000000000000000000000000000000000000081526004016107ed90612036565b60405180910390fd5b61080060026117b5565b60405180608001604052808381526020018281526020016000815260200142815250600860003373ffffffffffffffffffffffffffffffffffffffff1673ffffffffffffffffffffffffffffffffffffffff168152602001908152602001600020600082015181600001908051906020019061087d9291906117d9565b50602082015181600101908051906020019061089a9291906117d9565b5060408201518160020155606082015181600301559050505050565b6108be611859565b60096000838152602001908152602001600020604051806040016040529081600082018054600181600116156101000203166002900480601f0160208091040260200160405190810160405280929190818152602001828054600181600116156101000203166002900480156109755780601f1061094a57610100808354040283529160200191610975565b820191906000526020600020905b81548152906001019060200180831161095857829003601f168201915b505050505081526020016001820154815250509050919050565b6008602052806000526040600020600091509050806000018054600181600116156101000203166002900480601f016020809104026020016040519081016040528092919081815260200182805460018160011615610100020316600290048015610a3b5780601f10610a1057610100808354040283529160200191610a3b565b820191906000526020600020905b815481529060010190602001808311610a1e57829003601f168201915b505050505090806001018054600181600116156101000203166002900480601f016020809104026020016040519081016040528092919081815260200182805460018160011615610100020316600290048015610ad95780601f10610aae57610100808354040283529160200191610ad9565b820191906000526020600020905b815481529060010190602001808311610abc57829003601f168201915b5050505050908060020154908060030154905084565b6000610afb60026117cb565b905090565b610b086117ad565b73ffffffffffffffffffffffffffffffffffffffff1660008054906101000a900473ffffffffffffffffffffffffffffffffffffffff1673ffffffffffffffffffffffffffffffffffffffff1614610b95576040517f08c379a0000000000000000000000000000000000000000000000000000000008152600401610b8c90612016565b60405180910390fd5b600073ffffffffffffffffffffffffffffffffffffffff1660008054906101000a900473ffffffffffffffffffffffffffffffffffffffff1673ffffffffffffffffffffffffffffffffffffffff167f8be0079c531659141344cd1fd0a4f28419497f9722a3daafe3b4186f6b6457e060405160405180910390a360008060006101000a81548173ffffffffffffffffffffffffffffffffffffffff021916908373ffffffffffffffffffffffffffffffffffffffff160217905550565b6009602052806000526040600020600091509050806000018054600181600116156101000203166002900480601f016020809104026020016040519081016040528092919081815260200182805460018160011615610100020316600290048015610cff5780601f10610cd457610100808354040283529160200191610cff565b820191906000526020600020905b815481529060010190602001808311610ce257829003601f168201915b5050505050908060010154905082565b60008060009054906101000a900473ffffffffffffffffffffffffffffffffffffffff16905090565b610d4260036117b5565b6000610d4e60036117cb565b90506000806000806000806040518060400160405280600781526020017f4e6577596f726b00000000000000000000000000000000000000000000000000815250805190602001208d805190602001201415610e2157600115158c15151415610dbc57606494506064860195505b600115158b15151415610dd457603293506032860195505b600115158a15151415610dec57603292506032860195505b600115158915151415610e0457603291506032860195505b600115158815151415610e1c57603290506032860195505b6110b7565b6040518060400160405280600881526020017f4d616c6469766573000000000000000000000000000000000000000000000000815250805190602001208d805190602001201415610ee957600115158c15151415610e8457609694506096860195505b600115158b15151415610e9c57601e9350601e860195505b600115158a15151415610eb457603292506032860195505b600115158915151415610ecc57601491506014860195505b600115158815151415610ee457603290506032860195505b6110b6565b6040518060400160405280600981526020017f56616e636f757665720000000000000000000000000000000000000000000000815250805190602001208d805190602001201415610fb157600115158c15151415610f4c57605094506050860195505b600115158b15151415610f6457602893506028860195505b600115158a15151415610f7c57602892506028860195505b600115158915151415610f9457601e9150601e860195505b600115158815151415610fac57601e9050601e860195505b6110b5565b6040518060400160405280600981526020017f42617263656c6f6e610000000000000000000000000000000000000000000000815250805190602001208d80519060200120141561107957600115158c1515141561101457603294506032860195505b600115158b1515141561102c57601e9350601e860195505b600115158a1515141561104457601e9250601e860195505b60011515891515141561105c57601491506014860195505b60011515881515141561107457603290506032860195505b6110b4565b6040517f08c379a00000000000000000000000000000000000000000000000000000000081526004016110ab90611ff6565b60405180910390fd5b5b5b5b60405180604001604052808e8152602001878152506009600089815260200190815260200160002060008201518160000190805190602001906110fb9291906117d9565b50602082015181600101559050506000955050505050505050505050505050565b611124611873565b600860008373ffffffffffffffffffffffffffffffffffffffff1673ffffffffffffffffffffffffffffffffffffffff168152602001908152602001600020604051806080016040529081600082018054600181600116156101000203166002900480601f0160208091040260200160405190810160405280929190818152602001828054600181600116156101000203166002900480156112075780601f106111dc57610100808354040283529160200191611207565b820191906000526020600020905b8154815290600101906020018083116111ea57829003601f168201915b50505050508152602001600182018054600181600116156101000203166002900480601f0160208091040260200160405190810160405280929190818152602001828054600181600116156101000203166002900480156112a95780601f1061127e576101008083540402835291602001916112a9565b820191906000526020600020905b81548152906001019060200180831161128c57829003601f168201915b50505050508152602001600282015481526020016003820154815250509050919050565b6000600860003373ffffffffffffffffffffffffffffffffffffffff1673ffffffffffffffffffffffffffffffffffffffff168152602001908152602001600020600301541415611353576040517f08c379a000000000000000000000000000000000000000000000000000000000815260040161134a90611fd6565b60405180910390fd5b600160009054906101000a900473ffffffffffffffffffffffffffffffffffffffff1673ffffffffffffffffffffffffffffffffffffffff166362ad1b8333600760009054906101000a900473ffffffffffffffffffffffffffffffffffffffff1660096000868152602001908152602001600020600101546040518463ffffffff1660e01b81526004016113ea93929190611e9b565b600060405180830381600087803b15801561140457600080fd5b505af1158015611418573d6000803e3d6000fd5b50505050600860003373ffffffffffffffffffffffffffffffffffffffff1673ffffffffffffffffffffffffffffffffffffffff16815260200190815260200160002060030154600860003373ffffffffffffffffffffffffffffffffffffffff1673ffffffffffffffffffffffffffffffffffffffff1681526020019081526020016000206002018190555050565b600080600860008473ffffffffffffffffffffffffffffffffffffffff1673ffffffffffffffffffffffffffffffffffffffff1681526020019081526020016000206003015414159050919050565b6000611501611859565b60096000848152602001908152602001600020604051806040016040529081600082018054600181600116156101000203166002900480601f0160208091040260200160405190810160405280929190818152602001828054600181600116156101000203166002900480156115b85780601f1061158d576101008083540402835291602001916115b8565b820191906000526020600020905b81548152906001019060200180831161159b57829003601f168201915b5050505050815260200160018201548152505090508060200151915050919050565b60006115e660036117cb565b905090565b6115f36117ad565b73ffffffffffffffffffffffffffffffffffffffff1660008054906101000a900473ffffffffffffffffffffffffffffffffffffffff1673ffffffffffffffffffffffffffffffffffffffff1614611680576040517f08c379a000000000000000000000000000000000000000000000000000000000815260040161167790612016565b60405180910390fd5b600073ffffffffffffffffffffffffffffffffffffffff168173ffffffffffffffffffffffffffffffffffffffff1614156116f0576040517f08c379a00000000000000000000000000000000000000000000000000000000081526004016116e790611fb6565b60405180910390fd5b8073ffffffffffffffffffffffffffffffffffffffff1660008054906101000a900473ffffffffffffffffffffffffffffffffffffffff1673ffffffffffffffffffffffffffffffffffffffff167f8be0079c531659141344cd1fd0a4f28419497f9722a3daafe3b4186f6b6457e060405160405180910390a3806000806101000a81548173ffffffffffffffffffffffffffffffffffffffff021916908373ffffffffffffffffffffffffffffffffffffffff16021790555050565b600033905090565b6001816000016000828254019250508190555050565b600081600001549050919050565b828054600181600116156101000203166002900490600052602060002090601f016020900481019282601f1061181a57805160ff1916838001178555611848565b82800160010185558215611848579182015b8281111561184757825182559160200191906001019061182c565b5b509050611855919061189b565b5090565b604051806040016040528060608152602001600081525090565b6040518060800160405280606081526020016060815260200160008152602001600081525090565b5b808211156118b457600081600090555060010161189c565b5090565b6000813590506118c78161223d565b92915050565b6000813590506118dc81612254565b92915050565b600082601f8301126118f357600080fd5b813561190661190182612102565b6120d5565b9150808252602083016020830185838301111561192257600080fd5b61192d8382846121ea565b50505092915050565b6000813590506119458161226b565b92915050565b60006020828403121561195d57600080fd5b600061196b848285016118b8565b91505092915050565b60008060008060008060c0878903121561198d57600080fd5b600087013567ffffffffffffffff8111156119a757600080fd5b6119b389828a016118e2565b96505060206119c489828a016118cd565b95505060406119d589828a016118cd565b94505060606119e689828a016118cd565b93505060806119f789828a016118cd565b92505060a0611a0889828a016118cd565b9150509295509295509295565b60008060408385031215611a2857600080fd5b600083013567ffffffffffffffff811115611a4257600080fd5b611a4e858286016118e2565b925050602083013567ffffffffffffffff811115611a6b57600080fd5b611a77858286016118e2565b9150509250929050565b600060208284031215611a9357600080fd5b6000611aa184828501611936565b91505092915050565b611ab3816121b4565b82525050565b611ac28161216c565b82525050565b611ad18161217e565b82525050565b6000611ae28261212e565b611aec818561214a565b9350611afc8185602086016121f9565b611b058161222c565b840191505092915050565b6000611b1b8261212e565b611b25818561215b565b9350611b358185602086016121f9565b611b3e8161222c565b840191505092915050565b6000611b56600e8361215b565b91507f206d696e696d756d2031207765690000000000000000000000000000000000006000830152602082019050919050565b6000611b9660268361215b565b91507f4f776e61626c653a206e6577206f776e657220697320746865207a65726f206160008301527f64647265737300000000000000000000000000000000000000000000000000006020830152604082019050919050565b6000611bfc60248361215b565b91507f6f6e6c79206120636c69656e742063616e2063616c6c20746869732066756e6360008301527f74696f6e000000000000000000000000000000000000000000000000000000006020830152604082019050919050565b6000611c6260138361215b565b91507f496e76616c69642064657374696e6174696f6e000000000000000000000000006000830152602082019050919050565b6000611ca260208361215b565b91507f4f776e61626c653a2063616c6c6572206973206e6f7420746865206f776e65726000830152602082019050919050565b6000611ce260288361215b565b91507f6f6e6c792061206e6f6e2d636c69656e742063616e2063616c6c20746869732060008301527f66756e6374696f6e0000000000000000000000000000000000000000000000006020830152604082019050919050565b6000611d4860328361215b565b91507f4e6f7420656e6f75676820457468657220746f2070757263686173652074686960008301527f73206e756d626572206f6620746f6b656e7300000000000000000000000000006020830152604082019050919050565b6000611dae600083612139565b9150600082019050919050565b60006080830160008301518482036000860152611dd88282611ad7565b91505060208301518482036020860152611df28282611ad7565b9150506040830151611e076040860182611e62565b506060830151611e1a6060860182611e62565b508091505092915050565b60006040830160008301518482036000860152611e428282611ad7565b9150506020830151611e576020860182611e62565b508091505092915050565b611e6b816121aa565b82525050565b611e7a816121aa565b82525050565b6000602082019050611e956000830184611ab9565b92915050565b600060a082019050611eb06000830186611aaa565b611ebd6020830185611aaa565b611eca6040830184611e71565b8181036060830152611edb81611da1565b90508181036080830152611eee81611da1565b9050949350505050565b6000602082019050611f0d6000830184611ac8565b92915050565b60006080820190508181036000830152611f2d8187611b10565b90508181036020830152611f418186611b10565b9050611f506040830185611e71565b611f5d6060830184611e71565b95945050505050565b60006040820190508181036000830152611f808185611b10565b9050611f8f6020830184611e71565b9392505050565b60006020820190508181036000830152611faf81611b49565b9050919050565b60006020820190508181036000830152611fcf81611b89565b9050919050565b60006020820190508181036000830152611fef81611bef565b9050919050565b6000602082019050818103600083015261200f81611c55565b9050919050565b6000602082019050818103600083015261202f81611c95565b9050919050565b6000602082019050818103600083015261204f81611cd5565b9050919050565b6000602082019050818103600083015261206f81611d3b565b9050919050565b600060208201905081810360008301526120908184611dbb565b905092915050565b600060208201905081810360008301526120b28184611e25565b905092915050565b60006020820190506120cf6000830184611e71565b92915050565b6000604051905081810181811067ffffffffffffffff821117156120f857600080fd5b8060405250919050565b600067ffffffffffffffff82111561211957600080fd5b601f19601f8301169050602081019050919050565b600081519050919050565b600082825260208201905092915050565b600082825260208201905092915050565b600082825260208201905092915050565b60006121778261218a565b9050919050565b60008115159050919050565b600073ffffffffffffffffffffffffffffffffffffffff82169050919050565b6000819050919050565b60006121bf826121c6565b9050919050565b60006121d1826121d8565b9050919050565b60006121e38261218a565b9050919050565b82818337600083830152505050565b60005b838110156122175780820151818401526020810190506121fc565b83811115612226576000848401525b50505050565b6000601f19601f8301169050919050565b6122468161216c565b811461225157600080fd5b50565b61225d8161217e565b811461226857600080fd5b50565b612274816121aa565b811461227f57600080fd5b5056fea264697066735822122024ce5505badbf06fefe62c8d6104e6091772d88d67023d2cd9fb39d0f4ca612364736f6c634300060c0033",
  "immutableReferences": {},
  "source": "  // SPDX-License-Identifier: MIT\npragma solidity ^0.6.0;\npragma experimental ABIEncoderV2;\nimport \"./TourToken.sol\";\nimport \"@openzeppelin/contracts/utils/Counters.sol\";\nimport \"@openzeppelin/contracts/access/Ownable.sol\";\n\n/// contract deployed at 0xff396842c25bD2Ac248A2c5BAa9192CDF840411a \n/// @title Un smart contract qui permet  des utilisateurs de rserver des voyages.\n/// @notice Un Client commence par se register. \n/// @dev Tous les appels de fonction sont actuellement implments sans effets secondaires\n    contract Tourisme is Ownable {\n// Variables d'tat\n/// @dev Intgration des fonctions du contrat TourToken dans Tourisme.\n    TourToken private _tour;\n\n/// @dev Utilisation de la librairie Counters pour les incrmentations.\nusing Counters for Counters.Counter;\nCounters.Counter private _clientIds;\nCounters.Counter private _offerIds;\n/// @dev prix d'un TRM.\nuint256 price_token;\nuint256 totalprice;\n\naddress _addrClient;\n/// @dev address de l'agence.\naddress payable addrAgence;\n\n/// @dev mapping d'une addresse vers un Client.\nmapping (address => Client) public clients;\n\n/// @dev mapping d'un uint vers une Offer.\nmapping (uint256 => Offer) public offers;\n\n// Constructeur\n  /// @param owner : l'owner du contract.\n  /// @param _price : prix d'un TRMen wei.\n  /// @param _addrAgence : addresse de l'agence\n constructor(address owner, uint256 _price, address payable _addrAgence) public {\n  /// @dev fonction du contrat Ownable qui execute un transfert d'ownership\n  /// @param owner : address de l'owner.\n    transferOwnership(owner);\n    price_token = _price;\n    addrAgence = _addrAgence;\n }\n\n /// @dev Seul l'owner peut xecuter cette fonction.\n /// @notice On passe en argument l'addresse du contrat TourToken.\nfunction setTourToken(address tourAddress) external onlyOwner {\n  _tour = TourToken(tourAddress);\n}\n\n/// @dev srtuct Client\nstruct Client {\n    string name;\n    string email;\n    uint256 no_reservation;\n    uint256 date_registration;\n \n}\n/// @dev struct Offer\nstruct Offer {\n    \n    string destination;\n   uint256 priceinTokens;\n}\n\n/// @dev Seul un utilisateur non enregistr peut excuter cette fonction.\n/// @notice Un utilisateur se register comme Client.\n/// @param _name : nom du client.\n/// @param _email : email du client.\nfunction register(string memory _name, string memory _email) onlyNotRegistered public {\n   // _addrClient = 0x44F31c324702C418d3486174d2A200Df1b345376;\n  \n    _clientIds.increment();\n    clients[msg.sender] = Client(_name, _email, 0, block.timestamp);\n} \n\n/// @notice Vrifie si une addresse est dj enregistre.\n/// @param _addr : addresse  vrifier.\nfunction isRegistered(address _addr) public view returns (bool) {\n    return clients[_addr].date_registration != 0;\n}\n\n/// @notice Rcupre l'id du dernier Client enregistr.\n function clientId() public view returns (uint256) {\n        \n        return _clientIds.current();\n    } \n\n/// @dev modifier qui vrifie que l'utilisateur est un Client.\nmodifier onlyClient (){\n            require (clients[msg.sender].date_registration != 0, \"only a client can call this function\");\n            _;\n        } \n\n/// @dev mofifier qui vrifie que l'utilisateur n'est pas un Client.\nmodifier onlyNotRegistered (){\n            require (clients[msg.sender].date_registration == 0, \"only a non-client can call this function\");\n            _;\n        }\n\n/// @notice Rcupration des donnes d'un Client.\n/// @param _addr : addresse du Client.\nfunction getClient(address _addr) public view returns (Client memory) {\n        return clients[_addr];\n    }\n \n/// @dev Seul un Client peut xecuter cette fonction.\n/// @notice Un Client choisis les paramtres de son voyage.\n/// @param _destination : destination demande.\n/// @param _isSejour : validation d'un sjour.\n/// @param _isTransport : validation des billets de transports.\n/// @param _isRestauration : validation de la prise en charge de la restauraton.\n/// @param _isActivities : validation d'un supplment d'activits.\n/// @param _isTours : validation d'un tour guid.\nfunction choose_offer(string memory _destination, bool _isSejour, bool _isTransport, bool _isRestauration, bool _isActivities, bool _isTours) public {\n    _offerIds.increment();\n    // Variables locales\n    uint256 newofferId = _offerIds.current();\n    uint price;\n    uint PRICE_SEJOUR;\n    uint PRICE_TRANSPORT;\n    uint PRICE_RESTAURATION;\n    uint PRICE_ACTIVITIES;\n    uint PRICE_TOURS;\n\n    // Voyage vers New-York\n    if (keccak256(bytes(_destination)) == keccak256(bytes(\"NewYork\"))) {\n        if (_isSejour == true) {\n        PRICE_SEJOUR = 100;\n        price +=100;\n        }\n        if (_isTransport == true) {\n        PRICE_TRANSPORT = 50;\n        price +=50;\n        }\n        if (_isRestauration == true) {\n        PRICE_RESTAURATION = 50;\n        price +=50;\n        }\n        if (_isActivities == true) {\n        PRICE_ACTIVITIES = 50;\n        price +=50;\n        }\n        if (_isTours == true) {\n        PRICE_TOURS = 50;\n        price  += 50;\n        }\n    }\n     // Voyage vers les Maldives\n    else if (keccak256(bytes(_destination)) == keccak256(bytes(\"Maldives\"))) {\n         if (_isSejour == true) {\n        PRICE_SEJOUR = 150;\n        price +=150;\n        }\n        if (_isTransport == true) {\n        PRICE_TRANSPORT = 30;\n        price +=30;\n        }\n        if (_isRestauration == true) {\n        PRICE_RESTAURATION = 50;\n        price +=50;\n        }\n        if (_isActivities == true) {\n        PRICE_ACTIVITIES = 20;\n        price +=20;\n        }\n        if (_isTours == true) {\n        PRICE_TOURS = 50;\n        price  += 50;\n        }\n    }\n    // Voyage vers Vancouver\n    else if (keccak256(bytes(_destination)) == keccak256(bytes(\"Vancouver\"))) {\n        if (_isSejour == true) {\n        PRICE_SEJOUR = 80;\n        price +=80;\n        }\n        if (_isTransport == true) {\n        PRICE_TRANSPORT = 40;\n        price +=40;\n        }\n        if (_isRestauration == true) {\n        PRICE_RESTAURATION = 40;\n        price += 40;\n        }\n        if (_isActivities == true) {\n        PRICE_ACTIVITIES = 30;\n        price +=30;\n        }\n        if (_isTours == true) {\n        PRICE_TOURS = 30;\n        price  += 30;\n        }\n    }\n    // Voyage vers Barcelone\n    else if(keccak256(bytes(_destination)) == keccak256(bytes(\"Barcelona\"))) {\n      if (_isSejour == true) {\n        PRICE_SEJOUR = 50;\n        price +=50;\n        }\n        if (_isTransport == true) {\n        PRICE_TRANSPORT = 30;\n        price +=30;\n        }\n        if (_isRestauration == true) {\n        PRICE_RESTAURATION = 30;\n        price += 30;\n        }\n        if (_isActivities == true) {\n        PRICE_ACTIVITIES = 20;\n        price +=20;\n        }\n        if (_isTours == true) {\n        PRICE_TOURS = 50;\n        price  += 50;\n        }\n    }\n    else revert(\"Invalid destination\");\n  \n    offers[newofferId] = Offer(_destination, price);\n    price = 0;\n}\n\n/// @notice Rcupration de l'id de la dernire Offer.\nfunction getofferID() public view returns (uint256) {\n  \n    return _offerIds.current();\n  \n}\n\n /// @dev Dclaration d'une variable locale de type Offer afin de rcuprer le prix de la rservation.\n /// @param _id : id de l'Offer.\nfunction getPrice(uint256 _id) public view returns(uint256) {\n    Offer memory c = offers[_id];\n    return (c.priceinTokens);\n}\n\n\n/// @notice Rcupration des lments d'une Offer.\n/// @param _id : id de l'Offer.\nfunction getOffer(uint256 _id) public view returns (Offer memory) {\n        return offers[_id];\n    } \n \n\n/// @dev Seul un Client peut xecuter cette fonction.\n/// @notice Achat de tokens TRM auprs de l'agence.\n/// @param nbTokens : nombre de tokens que le Client souhaite acheter.\nfunction buyTokens(uint256 nbTokens) public payable onlyClient returns (bool) {\n        \n        require(msg.value > 0, \" minimum 1 wei\");\n    \n        require(\n            (nbTokens * price_token) <= msg.value,\n            \"Not enough Ether to purchase this number of tokens\"\n        );\n        uint256 realPrice = (nbTokens * price_token);\n        uint256 remain = msg.value - realPrice;\n        /// @dev Utilisation de la fonction transfert de l'ERC777.\n        addrAgence.transfer(realPrice);\n        _tour.operatorSend(addrAgence, msg.sender, nbTokens, \"\", \"\");\n        if (remain > 0) {\n            /// @dev Utilisation de la fonction transfert de l'ERC777.\n            msg.sender.transfer(remain);\n        }\n        return true;\n    }\n \n /// @dev Seul un Client peut excuter cette fonction.\n /// @notice Paiement de la rservation par le Client et enregistrement de sa rservation.\n /// @param _id : id de l'Offer. \nfunction reserveByClient(uint _id) public onlyClient {\n   /// @dev Utilisation de la fonction operatorSend par le contrat TourToken\n    _tour.operatorSend(msg.sender, addrAgence, offers[_id].priceinTokens, \"\", \"\");\n    clients[msg.sender].no_reservation = clients[msg.sender].date_registration;\n  }\n  \n}",
  "sourcePath": "/Users/itanis/Desktop/projets/tourisme-back/contracts/Tourisme.sol",
  "compiler": {
    "name": "solc",
    "version": "0.6.12+commit.27d51765.Linux.g++"
  },
  "schemaVersion": "3.3.1",
  "updatedAt": "2020-12-14T10:46:13.085Z",
  "devdoc": {
    "details": "Tous les appels de fonction sont actuellement implments sans effets secondaires",
    "kind": "dev",
    "methods": {
      "buyTokens(uint256)": {
        "details": "Seul un Client peut xecuter cette fonction.",
        "params": {
          "nbTokens": ": nombre de tokens que le Client souhaite acheter."
        }
      },
      "choose_offer(string,bool,bool,bool,bool,bool)": {
        "details": "Seul un Client peut xecuter cette fonction.",
        "params": {
          "_destination": ": destination demande.",
          "_isActivities": ": validation d'un supplment d'activits.",
          "_isRestauration": ": validation de la prise en charge de la restauraton.",
          "_isSejour": ": validation d'un sjour.",
          "_isTours": ": validation d'un tour guid.",
          "_isTransport": ": validation des billets de transports."
        }
      },
      "constructor": {
        "params": {
          "_addrAgence": ": addresse de l'agence",
          "_price": ": prix d'un TRMen wei.",
          "owner": ": l'owner du contract."
        }
      },
      "getClient(address)": {
        "params": {
          "_addr": ": addresse du Client."
        }
      },
      "getOffer(uint256)": {
        "params": {
          "_id": ": id de l'Offer."
        }
      },
      "getPrice(uint256)": {
        "details": "Dclaration d'une variable locale de type Offer afin de rcuprer le prix de la rservation.",
        "params": {
          "_id": ": id de l'Offer."
        }
      },
      "isRegistered(address)": {
        "params": {
          "_addr": ": addresse  vrifier."
        }
      },
      "owner()": {
        "details": "Returns the address of the current owner."
      },
      "register(string,string)": {
        "details": "Seul un utilisateur non enregistr peut excuter cette fonction.",
        "params": {
          "_email": ": email du client.",
          "_name": ": nom du client."
        }
      },
      "renounceOwnership()": {
        "details": "Leaves the contract without owner. It will not be possible to call `onlyOwner` functions anymore. Can only be called by the current owner. NOTE: Renouncing ownership will leave the contract without an owner, thereby removing any functionality that is only available to the owner."
      },
      "reserveByClient(uint256)": {
        "details": "Seul un Client peut excuter cette fonction.",
        "params": {
          "_id": ": id de l'Offer. "
        }
      },
      "setTourToken(address)": {
        "details": "Seul l'owner peut xecuter cette fonction."
      },
      "transferOwnership(address)": {
        "details": "Transfers ownership of the contract to a new account (`newOwner`). Can only be called by the current owner."
      }
    },
    "stateVariables": {
      "_tour": {
        "details": "Intgration des fonctions du contrat TourToken dans Tourisme."
      },
      "addrAgence": {
        "details": "address de l'agence."
      },
      "clients": {
        "details": "mapping d'une addresse vers un Client."
      },
      "offers": {
        "details": "mapping d'un uint vers une Offer."
      },
      "price_token": {
        "details": "prix d'un TRM."
      }
    },
    "title": "Un smart contract qui permet  des utilisateurs de rserver des voyages.",
    "version": 1
  },
  "userdoc": {
    "kind": "user",
    "methods": {
      "buyTokens(uint256)": {
        "notice": "Achat de tokens TRM auprs de l'agence."
      },
      "choose_offer(string,bool,bool,bool,bool,bool)": {
        "notice": "Un Client choisis les paramtres de son voyage."
      },
      "clientId()": {
        "notice": "Rcupre l'id du dernier Client enregistr."
      },
      "getClient(address)": {
        "notice": "Rcupration des donnes d'un Client."
      },
      "getOffer(uint256)": {
        "notice": "Rcupration des lments d'une Offer."
      },
      "getofferID()": {
        "notice": "Rcupration de l'id de la dernire Offer."
      },
      "isRegistered(address)": {
        "notice": "Vrifie si une addresse est dj enregistre."
      },
      "register(string,string)": {
        "notice": "Un utilisateur se register comme Client."
      },
      "reserveByClient(uint256)": {
        "notice": "Paiement de la rservation par le Client et enregistrement de sa rservation."
      },
      "setTourToken(address)": {
        "notice": "On passe en argument l'addresse du contrat TourToken."
      }
    },
    "notice": "contract deployed at 0xff396842c25bD2Ac248A2c5BAa9192CDF840411a Un Client commence par se register. ",
    "version": 1
  }
}