{
  "contractName": "Tourisme",
  "abi": [
    {
      "inputs": [
        {
          "internalType": "address",
          "name": "owner",
          "type": "address"
        }
      ],
      "stateMutability": "nonpayable",
      "type": "constructor"
    },
    {
      "anonymous": false,
      "inputs": [
        {
          "indexed": true,
          "internalType": "address",
          "name": "previousOwner",
          "type": "address"
        },
        {
          "indexed": true,
          "internalType": "address",
          "name": "newOwner",
          "type": "address"
        }
      ],
      "name": "OwnershipTransferred",
      "type": "event"
    },
    {
      "inputs": [
        {
          "internalType": "address",
          "name": "",
          "type": "address"
        }
      ],
      "name": "balances_agence",
      "outputs": [
        {
          "internalType": "uint256",
          "name": "",
          "type": "uint256"
        }
      ],
      "stateMutability": "view",
      "type": "function"
    },
    {
      "inputs": [
        {
          "internalType": "address",
          "name": "",
          "type": "address"
        }
      ],
      "name": "balances_client",
      "outputs": [
        {
          "internalType": "uint256",
          "name": "",
          "type": "uint256"
        }
      ],
      "stateMutability": "view",
      "type": "function"
    },
    {
      "inputs": [
        {
          "internalType": "address",
          "name": "",
          "type": "address"
        }
      ],
      "name": "clients",
      "outputs": [
        {
          "internalType": "string",
          "name": "nom",
          "type": "string"
        },
        {
          "internalType": "string",
          "name": "email",
          "type": "string"
        },
        {
          "internalType": "string",
          "name": "password",
          "type": "string"
        },
        {
          "internalType": "bool",
          "name": "isClient",
          "type": "bool"
        },
        {
          "internalType": "uint256",
          "name": "age",
          "type": "uint256"
        },
        {
          "internalType": "uint256",
          "name": "no_reservation",
          "type": "uint256"
        },
        {
          "internalType": "uint256",
          "name": "date_registration",
          "type": "uint256"
        },
        {
          "internalType": "uint256",
          "name": "no_client",
          "type": "uint256"
        }
      ],
      "stateMutability": "view",
      "type": "function"
    },
    {
      "inputs": [
        {
          "internalType": "uint256",
          "name": "",
          "type": "uint256"
        }
      ],
      "name": "offers",
      "outputs": [
        {
          "internalType": "uint256",
          "name": "id",
          "type": "uint256"
        },
        {
          "internalType": "string",
          "name": "destination",
          "type": "string"
        },
        {
          "internalType": "bool",
          "name": "isTransport",
          "type": "bool"
        },
        {
          "internalType": "bool",
          "name": "isSejour",
          "type": "bool"
        },
        {
          "internalType": "bool",
          "name": "isRestauration",
          "type": "bool"
        },
        {
          "internalType": "bool",
          "name": "isActivites",
          "type": "bool"
        },
        {
          "internalType": "bool",
          "name": "isTours",
          "type": "bool"
        },
        {
          "internalType": "uint256",
          "name": "priceinTokens",
          "type": "uint256"
        }
      ],
      "stateMutability": "view",
      "type": "function"
    },
    {
      "inputs": [],
      "name": "owner",
      "outputs": [
        {
          "internalType": "address",
          "name": "",
          "type": "address"
        }
      ],
      "stateMutability": "view",
      "type": "function"
    },
    {
      "inputs": [],
      "name": "renounceOwnership",
      "outputs": [],
      "stateMutability": "nonpayable",
      "type": "function"
    },
    {
      "inputs": [
        {
          "internalType": "address",
          "name": "newOwner",
          "type": "address"
        }
      ],
      "name": "transferOwnership",
      "outputs": [],
      "stateMutability": "nonpayable",
      "type": "function"
    },
    {
      "inputs": [
        {
          "internalType": "address",
          "name": "tourAddress",
          "type": "address"
        }
      ],
      "name": "setTourToken",
      "outputs": [],
      "stateMutability": "nonpayable",
      "type": "function"
    },
    {
      "inputs": [
        {
          "internalType": "string",
          "name": "_nom",
          "type": "string"
        },
        {
          "internalType": "string",
          "name": "_email",
          "type": "string"
        },
        {
          "internalType": "string",
          "name": "_password",
          "type": "string"
        },
        {
          "internalType": "uint256",
          "name": "_age",
          "type": "uint256"
        }
      ],
      "name": "register",
      "outputs": [],
      "stateMutability": "nonpayable",
      "type": "function"
    },
    {
      "inputs": [],
      "name": "clientbyId",
      "outputs": [
        {
          "internalType": "uint256",
          "name": "",
          "type": "uint256"
        }
      ],
      "stateMutability": "view",
      "type": "function"
    },
    {
      "inputs": [
        {
          "internalType": "string",
          "name": "_destination",
          "type": "string"
        },
        {
          "internalType": "bool",
          "name": "_isTransport",
          "type": "bool"
        },
        {
          "internalType": "bool",
          "name": "_isSejour",
          "type": "bool"
        },
        {
          "internalType": "bool",
          "name": "_isRestauration",
          "type": "bool"
        },
        {
          "internalType": "bool",
          "name": "_isActivites",
          "type": "bool"
        },
        {
          "internalType": "bool",
          "name": "_isTours",
          "type": "bool"
        }
      ],
      "name": "choose_offer",
      "outputs": [],
      "stateMutability": "nonpayable",
      "type": "function"
    },
    {
      "inputs": [
        {
          "internalType": "uint256",
          "name": "_id",
          "type": "uint256"
        }
      ],
      "name": "getOffer",
      "outputs": [
        {
          "components": [
            {
              "internalType": "uint256",
              "name": "id",
              "type": "uint256"
            },
            {
              "internalType": "string",
              "name": "destination",
              "type": "string"
            },
            {
              "internalType": "bool",
              "name": "isTransport",
              "type": "bool"
            },
            {
              "internalType": "bool",
              "name": "isSejour",
              "type": "bool"
            },
            {
              "internalType": "bool",
              "name": "isRestauration",
              "type": "bool"
            },
            {
              "internalType": "bool",
              "name": "isActivites",
              "type": "bool"
            },
            {
              "internalType": "bool",
              "name": "isTours",
              "type": "bool"
            },
            {
              "internalType": "uint256",
              "name": "priceinTokens",
              "type": "uint256"
            }
          ],
          "internalType": "struct Tourisme.Offer",
          "name": "",
          "type": "tuple"
        }
      ],
      "stateMutability": "view",
      "type": "function"
    },
    {
      "inputs": [
        {
          "internalType": "address",
          "name": "src",
          "type": "address"
        },
        {
          "internalType": "address",
          "name": "dst",
          "type": "address"
        },
        {
          "internalType": "uint256",
          "name": "amount",
          "type": "uint256"
        }
      ],
      "name": "reserveByAdmin",
      "outputs": [],
      "stateMutability": "nonpayable",
      "type": "function"
    }
  ],
  "bytecode": "0x60806040523480156200001157600080fd5b50604051620020d9380380620020d98339818101604052810190620000379190620002ee565b600062000049620000ff60201b60201c565b9050806000806101000a81548173ffffffffffffffffffffffffffffffffffffffff021916908373ffffffffffffffffffffffffffffffffffffffff1602179055508073ffffffffffffffffffffffffffffffffffffffff16600073ffffffffffffffffffffffffffffffffffffffff167f8be0079c531659141344cd1fd0a4f28419497f9722a3daafe3b4186f6b6457e060405160405180910390a350620000f8816200010760201b60201c565b5062000467565b600033905090565b62000117620000ff60201b60201c565b73ffffffffffffffffffffffffffffffffffffffff1660008054906101000a900473ffffffffffffffffffffffffffffffffffffffff1673ffffffffffffffffffffffffffffffffffffffff1614620001a7576040517f08c379a00000000000000000000000000000000000000000000000000000000081526004016200019e90620003e6565b60405180910390fd5b600073ffffffffffffffffffffffffffffffffffffffff168173ffffffffffffffffffffffffffffffffffffffff1614156200021a576040517f08c379a00000000000000000000000000000000000000000000000000000000081526004016200021190620003c4565b60405180910390fd5b8073ffffffffffffffffffffffffffffffffffffffff1660008054906101000a900473ffffffffffffffffffffffffffffffffffffffff1673ffffffffffffffffffffffffffffffffffffffff167f8be0079c531659141344cd1fd0a4f28419497f9722a3daafe3b4186f6b6457e060405160405180910390a3806000806101000a81548173ffffffffffffffffffffffffffffffffffffffff021916908373ffffffffffffffffffffffffffffffffffffffff16021790555050565b600081519050620002e8816200044d565b92915050565b6000602082840312156200030157600080fd5b60006200031184828501620002d7565b91505092915050565b60006200032960268362000408565b91507f4f776e61626c653a206e6577206f776e657220697320746865207a65726f206160008301527f64647265737300000000000000000000000000000000000000000000000000006020830152604082019050919050565b60006200039160208362000408565b91507f4f776e61626c653a2063616c6c6572206973206e6f7420746865206f776e65726000830152602082019050919050565b60006020820190508181036000830152620003df816200031a565b9050919050565b60006020820190508181036000830152620004018162000382565b9050919050565b600082825260208201905092915050565b600062000426826200042d565b9050919050565b600073ffffffffffffffffffffffffffffffffffffffff82169050919050565b620004588162000419565b81146200046457600080fd5b50565b611c6280620004776000396000f3fe608060405234801561001057600080fd5b50600436106100cf5760003560e01c8063766f47e71161008c5780638da5cb5b116100665780638da5cb5b1461021e5780639b974d051461023c578063ca2b3c6c14610258578063f2fde38b14610288576100cf565b8063766f47e71461019b5780638986d106146101cb5780638a72ea6a146101e7576100cf565b806302110d25146100d45780631021d2a8146100f05780632d266b181461010e5780634579268a1461012a57806361eed2a91461015a578063715018a614610191575b600080fd5b6100ee60048036038101906100e99190611475565b6102a4565b005b6100f86104fe565b6040516101059190611a15565b60405180910390f35b6101286004803603810190610123919061135c565b610508565b005b610144600480360381019061013f9190611520565b6105e1565b60405161015191906119f3565b60405180910390f35b610174600480360381019061016f919061135c565b61074c565b6040516101889897969594939291906118e0565b60405180910390f35b610199610969565b005b6101b560048036038101906101b0919061135c565b610abc565b6040516101c29190611a15565b60405180910390f35b6101e560048036038101906101e09190611385565b610ad4565b005b61020160048036038101906101fc9190611520565b610c43565b604051610215989796959493929190611a30565b60405180910390f35b610226610d64565b6040516102339190611868565b60405180910390f35b610256600480360381019061025191906113d4565b610d8d565b005b610272600480360381019061026d919061135c565b610ffb565b60405161027f9190611a15565b60405180910390f35b6102a2600480360381019061029d919061135c565b611013565b005b33600860006101000a81548173ffffffffffffffffffffffffffffffffffffffff021916908373ffffffffffffffffffffffffffffffffffffffff1602179055506005600081548092919060010191905055506000151560096000600860009054906101000a900473ffffffffffffffffffffffffffffffffffffffff1673ffffffffffffffffffffffffffffffffffffffff1673ffffffffffffffffffffffffffffffffffffffff16815260200190815260200160002060030160009054906101000a900460ff161515146103af576040517f08c379a00000000000000000000000000000000000000000000000000000000081526004016103a6906119b3565b60405180910390fd5b60006005549050604051806101000160405280868152602001858152602001848152602001600115158152602001838152602001600081526020014281526020018281525060096000600860009054906101000a900473ffffffffffffffffffffffffffffffffffffffff1673ffffffffffffffffffffffffffffffffffffffff1673ffffffffffffffffffffffffffffffffffffffff16815260200190815260200160002060008201518160000190805190602001906104719291906111dd565b50602082015181600101908051906020019061048e9291906111dd565b5060408201518160020190805190602001906104ab9291906111dd565b5060608201518160030160006101000a81548160ff0219169083151502179055506080820151816004015560a0820151816005015560c0820151816006015560e082015181600701559050505050505050565b6000600554905090565b6105106111d5565b73ffffffffffffffffffffffffffffffffffffffff1660008054906101000a900473ffffffffffffffffffffffffffffffffffffffff1673ffffffffffffffffffffffffffffffffffffffff161461059d576040517f08c379a0000000000000000000000000000000000000000000000000000000008152600401610594906119d3565b60405180910390fd5b80600160006101000a81548173ffffffffffffffffffffffffffffffffffffffff021916908373ffffffffffffffffffffffffffffffffffffffff16021790555050565b6105e961125d565b600a60008381526020019081526020016000206040518061010001604052908160008201548152602001600182018054600181600116156101000203166002900480601f0160208091040260200160405190810160405280929190818152602001828054600181600116156101000203166002900480156106ab5780601f10610680576101008083540402835291602001916106ab565b820191906000526020600020905b81548152906001019060200180831161068e57829003601f168201915b505050505081526020016002820160009054906101000a900460ff161515151581526020016002820160019054906101000a900460ff161515151581526020016002820160029054906101000a900460ff161515151581526020016002820160039054906101000a900460ff161515151581526020016002820160049054906101000a900460ff161515151581526020016003820154815250509050919050565b6009602052806000526040600020600091509050806000018054600181600116156101000203166002900480601f0160208091040260200160405190810160405280929190818152602001828054600181600116156101000203166002900480156107f85780601f106107cd576101008083540402835291602001916107f8565b820191906000526020600020905b8154815290600101906020018083116107db57829003601f168201915b505050505090806001018054600181600116156101000203166002900480601f0160208091040260200160405190810160405280929190818152602001828054600181600116156101000203166002900480156108965780601f1061086b57610100808354040283529160200191610896565b820191906000526020600020905b81548152906001019060200180831161087957829003601f168201915b505050505090806002018054600181600116156101000203166002900480601f0160208091040260200160405190810160405280929190818152602001828054600181600116156101000203166002900480156109345780601f1061090957610100808354040283529160200191610934565b820191906000526020600020905b81548152906001019060200180831161091757829003601f168201915b5050505050908060030160009054906101000a900460ff16908060040154908060050154908060060154908060070154905088565b6109716111d5565b73ffffffffffffffffffffffffffffffffffffffff1660008054906101000a900473ffffffffffffffffffffffffffffffffffffffff1673ffffffffffffffffffffffffffffffffffffffff16146109fe576040517f08c379a00000000000000000000000000000000000000000000000000000000081526004016109f5906119d3565b60405180910390fd5b600073ffffffffffffffffffffffffffffffffffffffff1660008054906101000a900473ffffffffffffffffffffffffffffffffffffffff1673ffffffffffffffffffffffffffffffffffffffff167f8be0079c531659141344cd1fd0a4f28419497f9722a3daafe3b4186f6b6457e060405160405180910390a360008060006101000a81548173ffffffffffffffffffffffffffffffffffffffff021916908373ffffffffffffffffffffffffffffffffffffffff160217905550565b600c6020528060005260406000206000915090505481565b610adc6111d5565b73ffffffffffffffffffffffffffffffffffffffff1660008054906101000a900473ffffffffffffffffffffffffffffffffffffffff1673ffffffffffffffffffffffffffffffffffffffff1614610b69576040517f08c379a0000000000000000000000000000000000000000000000000000000008152600401610b60906119d3565b60405180910390fd5b6007548114610bad576040517f08c379a0000000000000000000000000000000000000000000000000000000008152600401610ba490611973565b60405180910390fd5b600160009054906101000a900473ffffffffffffffffffffffffffffffffffffffff1673ffffffffffffffffffffffffffffffffffffffff166362ad1b838484846040518463ffffffff1660e01b8152600401610c0c93929190611883565b600060405180830381600087803b158015610c2657600080fd5b505af1158015610c3a573d6000803e3d6000fd5b50505050505050565b600a602052806000526040600020600091509050806000015490806001018054600181600116156101000203166002900480601f016020809104026020016040519081016040528092919081815260200182805460018160011615610100020316600290048015610cf55780601f10610cca57610100808354040283529160200191610cf5565b820191906000526020600020905b815481529060010190602001808311610cd857829003601f168201915b5050505050908060020160009054906101000a900460ff16908060020160019054906101000a900460ff16908060020160029054906101000a900460ff16908060020160039054906101000a900460ff16908060020160049054906101000a900460ff16908060030154905088565b60008060009054906101000a900473ffffffffffffffffffffffffffffffffffffffff16905090565b60066000815480929190600101919050555060006006549050600115158615151415610dd9576032600a6000838152602001908152602001600020600301600082825401925050819055505b600115158515151415610e0c576064600a6000838152602001908152602001600020600301600082825401925050819055505b600115158415151415610e3f576064600a6000838152602001908152602001600020600301600082825401925050819055505b600115158315151415610e72576014600a6000838152602001908152602001600020600301600082825401925050819055505b600115158215151415610ea457600a806000838152602001908152602001600020600301600082825401925050819055505b6000600a60008381526020019081526020016000206003015490506040518061010001604052808381526020018981526020018815158152602001871515815260200186151581526020018515158152602001841515815260200182815250600a6000848152602001908152602001600020600082015181600001556020820151816001019080519060200190610f3c9291906111dd565b5060408201518160020160006101000a81548160ff02191690831515021790555060608201518160020160016101000a81548160ff02191690831515021790555060808201518160020160026101000a81548160ff02191690831515021790555060a08201518160020160036101000a81548160ff02191690831515021790555060c08201518160020160046101000a81548160ff02191690831515021790555060e08201518160030155905050806007819055505050505050505050565b600b6020528060005260406000206000915090505481565b61101b6111d5565b73ffffffffffffffffffffffffffffffffffffffff1660008054906101000a900473ffffffffffffffffffffffffffffffffffffffff1673ffffffffffffffffffffffffffffffffffffffff16146110a8576040517f08c379a000000000000000000000000000000000000000000000000000000000815260040161109f906119d3565b60405180910390fd5b600073ffffffffffffffffffffffffffffffffffffffff168173ffffffffffffffffffffffffffffffffffffffff161415611118576040517f08c379a000000000000000000000000000000000000000000000000000000000815260040161110f90611993565b60405180910390fd5b8073ffffffffffffffffffffffffffffffffffffffff1660008054906101000a900473ffffffffffffffffffffffffffffffffffffffff1673ffffffffffffffffffffffffffffffffffffffff167f8be0079c531659141344cd1fd0a4f28419497f9722a3daafe3b4186f6b6457e060405160405180910390a3806000806101000a81548173ffffffffffffffffffffffffffffffffffffffff021916908373ffffffffffffffffffffffffffffffffffffffff16021790555050565b600033905090565b828054600181600116156101000203166002900490600052602060002090601f016020900481019282601f1061121e57805160ff191683800117855561124c565b8280016001018555821561124c579182015b8281111561124b578251825591602001919060010190611230565b5b50905061125991906112ac565b5090565b6040518061010001604052806000815260200160608152602001600015158152602001600015158152602001600015158152602001600015158152602001600015158152602001600081525090565b5b808211156112c55760008160009055506001016112ad565b5090565b6000813590506112d881611be7565b92915050565b6000813590506112ed81611bfe565b92915050565b600082601f83011261130457600080fd5b813561131761131282611ae2565b611ab5565b9150808252602083016020830185838301111561133357600080fd5b61133e838284611b94565b50505092915050565b60008135905061135681611c15565b92915050565b60006020828403121561136e57600080fd5b600061137c848285016112c9565b91505092915050565b60008060006060848603121561139a57600080fd5b60006113a8868287016112c9565b93505060206113b9868287016112c9565b92505060406113ca86828701611347565b9150509250925092565b60008060008060008060c087890312156113ed57600080fd5b600087013567ffffffffffffffff81111561140757600080fd5b61141389828a016112f3565b965050602061142489828a016112de565b955050604061143589828a016112de565b945050606061144689828a016112de565b935050608061145789828a016112de565b92505060a061146889828a016112de565b9150509295509295509295565b6000806000806080858703121561148b57600080fd5b600085013567ffffffffffffffff8111156114a557600080fd5b6114b1878288016112f3565b945050602085013567ffffffffffffffff8111156114ce57600080fd5b6114da878288016112f3565b935050604085013567ffffffffffffffff8111156114f757600080fd5b611503878288016112f3565b925050606061151487828801611347565b91505092959194509250565b60006020828403121561153257600080fd5b600061154084828501611347565b91505092915050565b61155281611b4c565b82525050565b61156181611b5e565b82525050565b61157081611b5e565b82525050565b600061158182611b0e565b61158b8185611b2a565b935061159b818560208601611ba3565b6115a481611bd6565b840191505092915050565b60006115ba82611b0e565b6115c48185611b3b565b93506115d4818560208601611ba3565b6115dd81611bd6565b840191505092915050565b60006115f5604d83611b3b565b91507f7468652066756e6374696f6e2073686f756c64207472616e736665722074686560008301527f20616d6f756e7420636f727273706f6e64696e6720746f20746865207265736560208301527f72766174696f6e207072696365000000000000000000000000000000000000006040830152606082019050919050565b6000611681602683611b3b565b91507f4f776e61626c653a206e6577206f776e657220697320746865207a65726f206160008301527f64647265737300000000000000000000000000000000000000000000000000006020830152604082019050919050565b60006116e7602583611b3b565b91507f6f6e6c79206e6f6e436c69656e74732063616e2075736520746869732066756e60008301527f6374696f6e0000000000000000000000000000000000000000000000000000006020830152604082019050919050565b600061174d602083611b3b565b91507f4f776e61626c653a2063616c6c6572206973206e6f7420746865206f776e65726000830152602082019050919050565b600061178d600083611b19565b9150600082019050919050565b6000610100830160008301516117b3600086018261184a565b50602083015184820360208601526117cb8282611576565b91505060408301516117e06040860182611558565b5060608301516117f36060860182611558565b5060808301516118066080860182611558565b5060a083015161181960a0860182611558565b5060c083015161182c60c0860182611558565b5060e083015161183f60e086018261184a565b508091505092915050565b61185381611b8a565b82525050565b61186281611b8a565b82525050565b600060208201905061187d6000830184611549565b92915050565b600060a0820190506118986000830186611549565b6118a56020830185611549565b6118b26040830184611859565b81810360608301526118c381611780565b905081810360808301526118d681611780565b9050949350505050565b60006101008201905081810360008301526118fb818b6115af565b9050818103602083015261190f818a6115af565b9050818103604083015261192381896115af565b90506119326060830188611567565b61193f6080830187611859565b61194c60a0830186611859565b61195960c0830185611859565b61196660e0830184611859565b9998505050505050505050565b6000602082019050818103600083015261198c816115e8565b9050919050565b600060208201905081810360008301526119ac81611674565b9050919050565b600060208201905081810360008301526119cc816116da565b9050919050565b600060208201905081810360008301526119ec81611740565b9050919050565b60006020820190508181036000830152611a0d818461179a565b905092915050565b6000602082019050611a2a6000830184611859565b92915050565b600061010082019050611a46600083018b611859565b8181036020830152611a58818a6115af565b9050611a676040830189611567565b611a746060830188611567565b611a816080830187611567565b611a8e60a0830186611567565b611a9b60c0830185611567565b611aa860e0830184611859565b9998505050505050505050565b6000604051905081810181811067ffffffffffffffff82111715611ad857600080fd5b8060405250919050565b600067ffffffffffffffff821115611af957600080fd5b601f19601f8301169050602081019050919050565b600081519050919050565b600082825260208201905092915050565b600082825260208201905092915050565b600082825260208201905092915050565b6000611b5782611b6a565b9050919050565b60008115159050919050565b600073ffffffffffffffffffffffffffffffffffffffff82169050919050565b6000819050919050565b82818337600083830152505050565b60005b83811015611bc1578082015181840152602081019050611ba6565b83811115611bd0576000848401525b50505050565b6000601f19601f8301169050919050565b611bf081611b4c565b8114611bfb57600080fd5b50565b611c0781611b5e565b8114611c1257600080fd5b50565b611c1e81611b8a565b8114611c2957600080fd5b5056fea2646970667358221220240f5ce0cd529d9f272c03c29b7828487fd15e72aed786a32f9b2a960ab14d5e64736f6c634300060c0033",
  "immutableReferences": {},
  "source": " // SPDX-License-Identifier: MIT\npragma solidity ^0.6.0;\npragma experimental ABIEncoderV2;\nimport \"./TourToken.sol\";\nimport \"@openzeppelin/contracts/utils/Counters.sol\";\nimport \"@openzeppelin/contracts/access/Ownable.sol\";\n\n\ncontract Tourisme is Ownable{\nTourToken private _tour;\n\n\nusing Counters for Counters.Counter;\nCounters.Counter private _clientIds;\n Counters.Counter private _offerIds;\n\naddress payable superAdmin;\n\nuint256 counterClient;\nuint256 counterOffer;\nuint256 price;\n\naddress _addrClient;\n//address payable _addrAgence;\n\n \nmapping (address => Client) public clients;\n\nmapping (uint256 => Offer) public offers;\n\nmapping (address => uint256) public balances_client;\n\nmapping (address => uint256) public balances_agence;\n\n constructor(address owner) public {\n    transferOwnership(owner);\n    \n }\n\nfunction setTourToken(address tourAddress) external onlyOwner {\n  _tour = TourToken(tourAddress);\n}\n\n/* Variables d'tat */\nstruct Client {\n     string nom;\n     string email;\n     string password;\n     bool isClient;\n     uint256 age;\n     uint256 no_reservation;\n     uint date_registration;\n     uint256 no_client;\n \n}\n\nstruct Offer {\n    uint id;\n    string destination;\n    bool isTransport;\n    bool isSejour;\n    bool isRestauration;\n    bool isActivites;\n    bool isTours;\n   uint256 priceinTokens;\n}\n\n/* function getCurrentPrice() public view returns (uint256) {\n    return _price;\n  } */\n\nfunction register(string memory _nom, string memory _email, string memory _password, uint _age) public {\n    _addrClient = msg.sender;\n    counterClient++;\n   // _clientIds.increment();\n    //counterClient++;\n    require (clients[_addrClient].isClient == false, 'only nonClients can use this function');\n    uint newclientId = counterClient;\n    clients[_addrClient] = Client(_nom, _email, _password, true, _age, 0, block.timestamp, newclientId);\n} \n\n function clientbyId() public view returns (uint256) {\n        \n        return counterClient;\n    } \n\nfunction choose_offer(string memory _destination, bool _isTransport, bool _isSejour, bool _isRestauration, bool _isActivites, bool _isTours) public {\n    counterOffer++;\n    //_offerIds.increment();\n    uint256 newofferId = counterOffer;\n    if (_isTransport == true)\n    offers[newofferId].priceinTokens += 50;\n    if (_isSejour == true)\n    offers[newofferId].priceinTokens += 100;\n    if (_isRestauration == true)\n    offers[newofferId].priceinTokens += 100;\n    if (_isActivites == true)\n    offers[newofferId].priceinTokens += 20;\n    if (_isTours == true)\n    offers[newofferId].priceinTokens += 10;\n    uint totalPrice = offers[newofferId].priceinTokens;\n    offers[newofferId] = Offer(newofferId, _destination, _isTransport, _isSejour, _isRestauration, _isActivites, _isTours, totalPrice);\n    price = totalPrice;\n}\n\n function getOffer(uint256 _id) public view returns (Offer memory) {\n        return offers[_id];\n    }\n \n \nfunction reserveByAdmin (address src, address dst, uint256 amount) public onlyOwner {\n   // amount = offers[_id].priceinTokens;\n   require(amount == price, 'the function should transfer the amount corrsponding to the reservation price');\n    _tour.operatorSend(src, dst, amount, \"\", \"\");\n  }\n  \n}\n",
  "sourcePath": "/Users/itanis/Desktop/projets/tourisme-back/contracts/Tourisme.sol",
  "compiler": {
    "name": "solc",
    "version": "0.6.12+commit.27d51765.Emscripten.clang"
  },
  "schemaVersion": "3.3.1",
  "updatedAt": "2020-11-25T22:53:13.910Z",
  "devdoc": {
    "kind": "dev",
    "methods": {
      "owner()": {
        "details": "Returns the address of the current owner."
      },
      "renounceOwnership()": {
        "details": "Leaves the contract without owner. It will not be possible to call `onlyOwner` functions anymore. Can only be called by the current owner. NOTE: Renouncing ownership will leave the contract without an owner, thereby removing any functionality that is only available to the owner."
      },
      "transferOwnership(address)": {
        "details": "Transfers ownership of the contract to a new account (`newOwner`). Can only be called by the current owner."
      }
    },
    "version": 1
  },
  "userdoc": {
    "kind": "user",
    "methods": {},
    "version": 1
  }
}