{
  "contractName": "Tourisme",
  "abi": [
    {
      "inputs": [
        {
          "internalType": "address",
          "name": "owner",
          "type": "address"
        }
      ],
      "stateMutability": "nonpayable",
      "type": "constructor"
    },
    {
      "anonymous": false,
      "inputs": [
        {
          "indexed": true,
          "internalType": "address",
          "name": "previousOwner",
          "type": "address"
        },
        {
          "indexed": true,
          "internalType": "address",
          "name": "newOwner",
          "type": "address"
        }
      ],
      "name": "OwnershipTransferred",
      "type": "event"
    },
    {
      "inputs": [
        {
          "internalType": "address",
          "name": "",
          "type": "address"
        }
      ],
      "name": "clients",
      "outputs": [
        {
          "internalType": "string",
          "name": "name",
          "type": "string"
        },
        {
          "internalType": "string",
          "name": "email",
          "type": "string"
        },
        {
          "internalType": "string",
          "name": "password",
          "type": "string"
        },
        {
          "internalType": "bool",
          "name": "isClient",
          "type": "bool"
        },
        {
          "internalType": "uint256",
          "name": "no_reservation",
          "type": "uint256"
        },
        {
          "internalType": "uint256",
          "name": "date_registration",
          "type": "uint256"
        }
      ],
      "stateMutability": "view",
      "type": "function"
    },
    {
      "inputs": [
        {
          "internalType": "uint256",
          "name": "",
          "type": "uint256"
        }
      ],
      "name": "offers",
      "outputs": [
        {
          "internalType": "string",
          "name": "destination",
          "type": "string"
        },
        {
          "internalType": "uint256",
          "name": "priceinTokens",
          "type": "uint256"
        }
      ],
      "stateMutability": "view",
      "type": "function"
    },
    {
      "inputs": [],
      "name": "owner",
      "outputs": [
        {
          "internalType": "address",
          "name": "",
          "type": "address"
        }
      ],
      "stateMutability": "view",
      "type": "function"
    },
    {
      "inputs": [],
      "name": "renounceOwnership",
      "outputs": [],
      "stateMutability": "nonpayable",
      "type": "function"
    },
    {
      "inputs": [
        {
          "internalType": "address",
          "name": "newOwner",
          "type": "address"
        }
      ],
      "name": "transferOwnership",
      "outputs": [],
      "stateMutability": "nonpayable",
      "type": "function"
    },
    {
      "inputs": [
        {
          "internalType": "address",
          "name": "tourAddress",
          "type": "address"
        }
      ],
      "name": "setTourToken",
      "outputs": [],
      "stateMutability": "nonpayable",
      "type": "function"
    },
    {
      "inputs": [
        {
          "internalType": "string",
          "name": "_name",
          "type": "string"
        },
        {
          "internalType": "string",
          "name": "_email",
          "type": "string"
        },
        {
          "internalType": "string",
          "name": "_password",
          "type": "string"
        }
      ],
      "name": "register",
      "outputs": [],
      "stateMutability": "nonpayable",
      "type": "function"
    },
    {
      "inputs": [],
      "name": "clientId",
      "outputs": [
        {
          "internalType": "uint256",
          "name": "",
          "type": "uint256"
        }
      ],
      "stateMutability": "view",
      "type": "function"
    },
    {
      "inputs": [
        {
          "internalType": "address",
          "name": "_addr",
          "type": "address"
        }
      ],
      "name": "getClient",
      "outputs": [
        {
          "components": [
            {
              "internalType": "string",
              "name": "name",
              "type": "string"
            },
            {
              "internalType": "string",
              "name": "email",
              "type": "string"
            },
            {
              "internalType": "string",
              "name": "password",
              "type": "string"
            },
            {
              "internalType": "bool",
              "name": "isClient",
              "type": "bool"
            },
            {
              "internalType": "uint256",
              "name": "no_reservation",
              "type": "uint256"
            },
            {
              "internalType": "uint256",
              "name": "date_registration",
              "type": "uint256"
            }
          ],
          "internalType": "struct Tourisme.Client",
          "name": "",
          "type": "tuple"
        }
      ],
      "stateMutability": "view",
      "type": "function"
    },
    {
      "inputs": [
        {
          "internalType": "string",
          "name": "_destination",
          "type": "string"
        },
        {
          "internalType": "bool",
          "name": "_isSejour",
          "type": "bool"
        },
        {
          "internalType": "bool",
          "name": "_isTransport",
          "type": "bool"
        },
        {
          "internalType": "bool",
          "name": "_isRestauration",
          "type": "bool"
        },
        {
          "internalType": "bool",
          "name": "_isActivities",
          "type": "bool"
        },
        {
          "internalType": "bool",
          "name": "_isTours",
          "type": "bool"
        }
      ],
      "name": "choose_offer",
      "outputs": [
        {
          "internalType": "uint256",
          "name": "",
          "type": "uint256"
        }
      ],
      "stateMutability": "nonpayable",
      "type": "function"
    },
    {
      "inputs": [
        {
          "internalType": "uint256",
          "name": "_id",
          "type": "uint256"
        }
      ],
      "name": "getPrice",
      "outputs": [
        {
          "internalType": "uint256",
          "name": "",
          "type": "uint256"
        }
      ],
      "stateMutability": "view",
      "type": "function"
    },
    {
      "inputs": [
        {
          "internalType": "uint256",
          "name": "_id",
          "type": "uint256"
        }
      ],
      "name": "getOffer",
      "outputs": [
        {
          "components": [
            {
              "internalType": "string",
              "name": "destination",
              "type": "string"
            },
            {
              "internalType": "uint256",
              "name": "priceinTokens",
              "type": "uint256"
            }
          ],
          "internalType": "struct Tourisme.Offer",
          "name": "",
          "type": "tuple"
        }
      ],
      "stateMutability": "view",
      "type": "function"
    },
    {
      "inputs": [
        {
          "internalType": "uint256",
          "name": "_id",
          "type": "uint256"
        }
      ],
      "name": "reserveByClient",
      "outputs": [],
      "stateMutability": "nonpayable",
      "type": "function"
    }
  ],
  "bytecode": "0x60806040523480156200001157600080fd5b506040516200234c3803806200234c8339818101604052810190620000379190620002ee565b600062000049620000ff60201b60201c565b9050806000806101000a81548173ffffffffffffffffffffffffffffffffffffffff021916908373ffffffffffffffffffffffffffffffffffffffff1602179055508073ffffffffffffffffffffffffffffffffffffffff16600073ffffffffffffffffffffffffffffffffffffffff167f8be0079c531659141344cd1fd0a4f28419497f9722a3daafe3b4186f6b6457e060405160405180910390a350620000f8816200010760201b60201c565b5062000467565b600033905090565b62000117620000ff60201b60201c565b73ffffffffffffffffffffffffffffffffffffffff1660008054906101000a900473ffffffffffffffffffffffffffffffffffffffff1673ffffffffffffffffffffffffffffffffffffffff1614620001a7576040517f08c379a00000000000000000000000000000000000000000000000000000000081526004016200019e90620003e6565b60405180910390fd5b600073ffffffffffffffffffffffffffffffffffffffff168173ffffffffffffffffffffffffffffffffffffffff1614156200021a576040517f08c379a00000000000000000000000000000000000000000000000000000000081526004016200021190620003c4565b60405180910390fd5b8073ffffffffffffffffffffffffffffffffffffffff1660008054906101000a900473ffffffffffffffffffffffffffffffffffffffff1673ffffffffffffffffffffffffffffffffffffffff167f8be0079c531659141344cd1fd0a4f28419497f9722a3daafe3b4186f6b6457e060405160405180910390a3806000806101000a81548173ffffffffffffffffffffffffffffffffffffffff021916908373ffffffffffffffffffffffffffffffffffffffff16021790555050565b600081519050620002e8816200044d565b92915050565b6000602082840312156200030157600080fd5b60006200031184828501620002d7565b91505092915050565b60006200032960268362000408565b91507f4f776e61626c653a206e6577206f776e657220697320746865207a65726f206160008301527f64647265737300000000000000000000000000000000000000000000000000006020830152604082019050919050565b60006200039160208362000408565b91507f4f776e61626c653a2063616c6c6572206973206e6f7420746865206f776e65726000830152602082019050919050565b60006020820190508181036000830152620003df816200031a565b9050919050565b60006020820190508181036000830152620004018162000382565b9050919050565b600082825260208201905092915050565b600062000426826200042d565b9050919050565b600073ffffffffffffffffffffffffffffffffffffffff82169050919050565b620004588162000419565b81146200046457600080fd5b50565b611ed580620004776000396000f3fe608060405234801561001057600080fd5b50600436106100cf5760003560e01c80638a72ea6a1161008c578063a0e3287011610066578063a0e3287014610218578063badb38f614610248578063e757223014610264578063f2fde38b14610294576100cf565b80638a72ea6a146101995780638da5cb5b146101ca5780639b974d05146101e8576100cf565b80632d266b18146100d45780634579268a146100f05780634cd08d031461012057806361eed2a91461013c5780636bb3471a14610171578063715018a61461018f575b600080fd5b6100ee60048036038101906100e99190611665565b6102b0565b005b61010a600480360381019061010591906117c6565b610389565b6040516101179190611cb5565b60405180910390f35b61013a6004803603810190610135919061172f565b610462565b005b61015660048036038101906101519190611665565b610605565b60405161016896959493929190611b6d565b60405180910390f35b610179610816565b6040516101869190611cd7565b60405180910390f35b610197610827565b005b6101b360048036038101906101ae91906117c6565b61097a565b6040516101c1929190611be3565b60405180910390f35b6101d2610a36565b6040516101df9190611af5565b60405180910390f35b61020260048036038101906101fd919061168e565b610a5f565b60405161020f9190611cd7565b60405180910390f35b610232600480360381019061022d9190611665565b610e4f565b60405161023f9190611c93565b60405180910390f35b610262600480360381019061025d91906117c6565b6110bd565b005b61027e600480360381019061027991906117c6565b611212565b60405161028b9190611cd7565b60405180910390f35b6102ae60048036038101906102a99190611665565b6112f5565b005b6102b86114b7565b73ffffffffffffffffffffffffffffffffffffffff1660008054906101000a900473ffffffffffffffffffffffffffffffffffffffff1673ffffffffffffffffffffffffffffffffffffffff1614610345576040517f08c379a000000000000000000000000000000000000000000000000000000000815260040161033c90611c73565b60405180910390fd5b80600160006101000a81548173ffffffffffffffffffffffffffffffffffffffff021916908373ffffffffffffffffffffffffffffffffffffffff16021790555050565b6103916114e3565b600b6000838152602001908152602001600020604051806040016040529081600082018054600181600116156101000203166002900480601f0160208091040260200160405190810160405280929190818152602001828054600181600116156101000203166002900480156104485780601f1061041d57610100808354040283529160200191610448565b820191906000526020600020905b81548152906001019060200180831161042b57829003601f168201915b505050505081526020016001820154815250509050919050565b61046c60026114bf565b60001515600a60003373ffffffffffffffffffffffffffffffffffffffff1673ffffffffffffffffffffffffffffffffffffffff16815260200190815260200160002060030160009054906101000a900460ff16151514610502576040517f08c379a00000000000000000000000000000000000000000000000000000000081526004016104f990611c33565b60405180910390fd5b6040518060c001604052808481526020018381526020018281526020016001151581526020016000815260200142815250600a60003373ffffffffffffffffffffffffffffffffffffffff1673ffffffffffffffffffffffffffffffffffffffff168152602001908152602001600020600082015181600001908051906020019061058e9291906114fd565b5060208201518160010190805190602001906105ab9291906114fd565b5060408201518160020190805190602001906105c89291906114fd565b5060608201518160030160006101000a81548160ff0219169083151502179055506080820151816004015560a08201518160050155905050505050565b600a602052806000526040600020600091509050806000018054600181600116156101000203166002900480601f0160208091040260200160405190810160405280929190818152602001828054600181600116156101000203166002900480156106b15780601f10610686576101008083540402835291602001916106b1565b820191906000526020600020905b81548152906001019060200180831161069457829003601f168201915b505050505090806001018054600181600116156101000203166002900480601f01602080910402602001604051908101604052809291908181526020018280546001816001161561010002031660029004801561074f5780601f106107245761010080835404028352916020019161074f565b820191906000526020600020905b81548152906001019060200180831161073257829003601f168201915b505050505090806002018054600181600116156101000203166002900480601f0160208091040260200160405190810160405280929190818152602001828054600181600116156101000203166002900480156107ed5780601f106107c2576101008083540402835291602001916107ed565b820191906000526020600020905b8154815290600101906020018083116107d057829003601f168201915b5050505050908060030160009054906101000a900460ff16908060040154908060050154905086565b600061082260026114d5565b905090565b61082f6114b7565b73ffffffffffffffffffffffffffffffffffffffff1660008054906101000a900473ffffffffffffffffffffffffffffffffffffffff1673ffffffffffffffffffffffffffffffffffffffff16146108bc576040517f08c379a00000000000000000000000000000000000000000000000000000000081526004016108b390611c73565b60405180910390fd5b600073ffffffffffffffffffffffffffffffffffffffff1660008054906101000a900473ffffffffffffffffffffffffffffffffffffffff1673ffffffffffffffffffffffffffffffffffffffff167f8be0079c531659141344cd1fd0a4f28419497f9722a3daafe3b4186f6b6457e060405160405180910390a360008060006101000a81548173ffffffffffffffffffffffffffffffffffffffff021916908373ffffffffffffffffffffffffffffffffffffffff160217905550565b600b602052806000526040600020600091509050806000018054600181600116156101000203166002900480601f016020809104026020016040519081016040528092919081815260200182805460018160011615610100020316600290048015610a265780601f106109fb57610100808354040283529160200191610a26565b820191906000526020600020905b815481529060010190602001808311610a0957829003601f168201915b5050505050908060010154905082565b60008060009054906101000a900473ffffffffffffffffffffffffffffffffffffffff16905090565b6000610a6b60036114bf565b6000610a7760036114d5565b90506000806000806000806040518060400160405280600781526020017f4e6577596f726b00000000000000000000000000000000000000000000000000815250805190602001208e805190602001201415610b4a57600115158d15151415610ae557606494506064860195505b600115158c15151415610afd57603293506032860195505b600115158b15151415610b1557603292506032860195505b600115158a15151415610b2d57603291506032860195505b600115158915151415610b4557603290506032860195505b610de0565b6040518060400160405280600881526020017f4d616c6469766573000000000000000000000000000000000000000000000000815250805190602001208e805190602001201415610c1257600115158d15151415610bad57609694506096860195505b600115158c15151415610bc557601e9350601e860195505b600115158b15151415610bdd57603292506032860195505b600115158a15151415610bf557601491506014860195505b600115158915151415610c0d57603290506032860195505b610ddf565b6040518060400160405280600981526020017f56616e636f757665720000000000000000000000000000000000000000000000815250805190602001208e805190602001201415610cda57600115158d15151415610c7557605094506050860195505b600115158c15151415610c8d57602893506028860195505b600115158b15151415610ca557602892506028860195505b600115158a15151415610cbd57601e9150601e860195505b600115158915151415610cd557601e9050601e860195505b610dde565b6040518060400160405280600981526020017f42617263656c6f6e610000000000000000000000000000000000000000000000815250805190602001208e805190602001201415610da257600115158d15151415610d3d57603294506032860195505b600115158c15151415610d5557601e9350601e860195505b600115158b15151415610d6d57601e9250601e860195505b600115158a15151415610d8557601491506014860195505b600115158915151415610d9d57603290506032860195505b610ddd565b6040517f08c379a0000000000000000000000000000000000000000000000000000000008152600401610dd490611c53565b60405180910390fd5b5b5b5b60405180604001604052808f815260200187815250600b60008981526020019081526020016000206000820151816000019080519060200190610e249291906114fd565b5060208201518160010155905050610e3c60036114d5565b9750505050505050509695505050505050565b610e5761157d565b600a60008373ffffffffffffffffffffffffffffffffffffffff1673ffffffffffffffffffffffffffffffffffffffff1681526020019081526020016000206040518060c0016040529081600082018054600181600116156101000203166002900480601f016020809104026020016040519081016040528092919081815260200182805460018160011615610100020316600290048015610f3a5780601f10610f0f57610100808354040283529160200191610f3a565b820191906000526020600020905b815481529060010190602001808311610f1d57829003601f168201915b50505050508152602001600182018054600181600116156101000203166002900480601f016020809104026020016040519081016040528092919081815260200182805460018160011615610100020316600290048015610fdc5780601f10610fb157610100808354040283529160200191610fdc565b820191906000526020600020905b815481529060010190602001808311610fbf57829003601f168201915b50505050508152602001600282018054600181600116156101000203166002900480601f01602080910402602001604051908101604052809291908181526020018280546001816001161561010002031660029004801561107e5780601f106110535761010080835404028352916020019161107e565b820191906000526020600020905b81548152906001019060200180831161106157829003601f168201915b505050505081526020016003820160009054906101000a900460ff16151515158152602001600482015481526020016005820154815250509050919050565b600160009054906101000a900473ffffffffffffffffffffffffffffffffffffffff1673ffffffffffffffffffffffffffffffffffffffff166362ad1b8333600960009054906101000a900473ffffffffffffffffffffffffffffffffffffffff16600b6000868152602001908152602001600020600101546040518463ffffffff1660e01b815260040161115493929190611b10565b600060405180830381600087803b15801561116e57600080fd5b505af1158015611182573d6000803e3d6000fd5b50505050600a60003373ffffffffffffffffffffffffffffffffffffffff1673ffffffffffffffffffffffffffffffffffffffff16815260200190815260200160002060050154600a60003373ffffffffffffffffffffffffffffffffffffffff1673ffffffffffffffffffffffffffffffffffffffff1681526020019081526020016000206004018190555050565b600061121c6114e3565b600b6000848152602001908152602001600020604051806040016040529081600082018054600181600116156101000203166002900480601f0160208091040260200160405190810160405280929190818152602001828054600181600116156101000203166002900480156112d35780601f106112a8576101008083540402835291602001916112d3565b820191906000526020600020905b8154815290600101906020018083116112b657829003601f168201915b5050505050815260200160018201548152505090508060200151915050919050565b6112fd6114b7565b73ffffffffffffffffffffffffffffffffffffffff1660008054906101000a900473ffffffffffffffffffffffffffffffffffffffff1673ffffffffffffffffffffffffffffffffffffffff161461138a576040517f08c379a000000000000000000000000000000000000000000000000000000000815260040161138190611c73565b60405180910390fd5b600073ffffffffffffffffffffffffffffffffffffffff168173ffffffffffffffffffffffffffffffffffffffff1614156113fa576040517f08c379a00000000000000000000000000000000000000000000000000000000081526004016113f190611c13565b60405180910390fd5b8073ffffffffffffffffffffffffffffffffffffffff1660008054906101000a900473ffffffffffffffffffffffffffffffffffffffff1673ffffffffffffffffffffffffffffffffffffffff167f8be0079c531659141344cd1fd0a4f28419497f9722a3daafe3b4186f6b6457e060405160405180910390a3806000806101000a81548173ffffffffffffffffffffffffffffffffffffffff021916908373ffffffffffffffffffffffffffffffffffffffff16021790555050565b600033905090565b6001816000016000828254019250508190555050565b600081600001549050919050565b604051806040016040528060608152602001600081525090565b828054600181600116156101000203166002900490600052602060002090601f016020900481019282601f1061153e57805160ff191683800117855561156c565b8280016001018555821561156c579182015b8281111561156b578251825591602001919060010190611550565b5b50905061157991906115b5565b5090565b6040518060c0016040528060608152602001606081526020016060815260200160001515815260200160008152602001600081525090565b5b808211156115ce5760008160009055506001016115b6565b5090565b6000813590506115e181611e5a565b92915050565b6000813590506115f681611e71565b92915050565b600082601f83011261160d57600080fd5b813561162061161b82611d1f565b611cf2565b9150808252602083016020830185838301111561163c57600080fd5b611647838284611e07565b50505092915050565b60008135905061165f81611e88565b92915050565b60006020828403121561167757600080fd5b6000611685848285016115d2565b91505092915050565b60008060008060008060c087890312156116a757600080fd5b600087013567ffffffffffffffff8111156116c157600080fd5b6116cd89828a016115fc565b96505060206116de89828a016115e7565b95505060406116ef89828a016115e7565b945050606061170089828a016115e7565b935050608061171189828a016115e7565b92505060a061172289828a016115e7565b9150509295509295509295565b60008060006060848603121561174457600080fd5b600084013567ffffffffffffffff81111561175e57600080fd5b61176a868287016115fc565b935050602084013567ffffffffffffffff81111561178757600080fd5b611793868287016115fc565b925050604084013567ffffffffffffffff8111156117b057600080fd5b6117bc868287016115fc565b9150509250925092565b6000602082840312156117d857600080fd5b60006117e684828501611650565b91505092915050565b6117f881611dd1565b82525050565b61180781611d89565b82525050565b61181681611d9b565b82525050565b61182581611d9b565b82525050565b600061183682611d4b565b6118408185611d67565b9350611850818560208601611e16565b61185981611e49565b840191505092915050565b600061186f82611d4b565b6118798185611d78565b9350611889818560208601611e16565b61189281611e49565b840191505092915050565b60006118aa602683611d78565b91507f4f776e61626c653a206e6577206f776e657220697320746865207a65726f206160008301527f64647265737300000000000000000000000000000000000000000000000000006020830152604082019050919050565b6000611910602583611d78565b91507f6f6e6c79206e6f6e436c69656e74732063616e2075736520746869732066756e60008301527f6374696f6e0000000000000000000000000000000000000000000000000000006020830152604082019050919050565b6000611976601383611d78565b91507f496e76616c69642064657374696e6174696f6e000000000000000000000000006000830152602082019050919050565b60006119b6602083611d78565b91507f4f776e61626c653a2063616c6c6572206973206e6f7420746865206f776e65726000830152602082019050919050565b60006119f6600083611d56565b9150600082019050919050565b600060c0830160008301518482036000860152611a20828261182b565b91505060208301518482036020860152611a3a828261182b565b91505060408301518482036040860152611a54828261182b565b9150506060830151611a69606086018261180d565b506080830151611a7c6080860182611ad7565b5060a0830151611a8f60a0860182611ad7565b508091505092915050565b60006040830160008301518482036000860152611ab7828261182b565b9150506020830151611acc6020860182611ad7565b508091505092915050565b611ae081611dc7565b82525050565b611aef81611dc7565b82525050565b6000602082019050611b0a60008301846117fe565b92915050565b600060a082019050611b2560008301866117ef565b611b3260208301856117ef565b611b3f6040830184611ae6565b8181036060830152611b50816119e9565b90508181036080830152611b63816119e9565b9050949350505050565b600060c0820190508181036000830152611b878189611864565b90508181036020830152611b9b8188611864565b90508181036040830152611baf8187611864565b9050611bbe606083018661181c565b611bcb6080830185611ae6565b611bd860a0830184611ae6565b979650505050505050565b60006040820190508181036000830152611bfd8185611864565b9050611c0c6020830184611ae6565b9392505050565b60006020820190508181036000830152611c2c8161189d565b9050919050565b60006020820190508181036000830152611c4c81611903565b9050919050565b60006020820190508181036000830152611c6c81611969565b9050919050565b60006020820190508181036000830152611c8c816119a9565b9050919050565b60006020820190508181036000830152611cad8184611a03565b905092915050565b60006020820190508181036000830152611ccf8184611a9a565b905092915050565b6000602082019050611cec6000830184611ae6565b92915050565b6000604051905081810181811067ffffffffffffffff82111715611d1557600080fd5b8060405250919050565b600067ffffffffffffffff821115611d3657600080fd5b601f19601f8301169050602081019050919050565b600081519050919050565b600082825260208201905092915050565b600082825260208201905092915050565b600082825260208201905092915050565b6000611d9482611da7565b9050919050565b60008115159050919050565b600073ffffffffffffffffffffffffffffffffffffffff82169050919050565b6000819050919050565b6000611ddc82611de3565b9050919050565b6000611dee82611df5565b9050919050565b6000611e0082611da7565b9050919050565b82818337600083830152505050565b60005b83811015611e34578082015181840152602081019050611e19565b83811115611e43576000848401525b50505050565b6000601f19601f8301169050919050565b611e6381611d89565b8114611e6e57600080fd5b50565b611e7a81611d9b565b8114611e8557600080fd5b50565b611e9181611dc7565b8114611e9c57600080fd5b5056fea26469706673582212200812a4f4c2e0b466a3633939752e8b0538beb7fd5aeff12a7fe09e877212a93164736f6c634300060c0033",
  "immutableReferences": {},
  "source": " // SPDX-License-Identifier: MIT\npragma solidity ^0.6.0;\npragma experimental ABIEncoderV2;\nimport \"./TourToken.sol\";\nimport \"@openzeppelin/contracts/utils/Counters.sol\";\nimport \"@openzeppelin/contracts/access/Ownable.sol\";\n\n\ncontract Tourisme is Ownable{\nTourToken private _tour;\n\n\nusing Counters for Counters.Counter;\nCounters.Counter private _clientIds;\nCounters.Counter private _offerIds;\n\naddress payable _agence;\n\n\nuint256 counterClient;\nuint256 counterOffer;\nuint256 totalprice;\n\naddress _addrClient;\naddress payable _addrAgence;\n\n \nmapping (address => Client) public clients;\n\nmapping (uint256 => Offer) public offers;\n\n//enum Destination { NewYork, Maldives, Vancouver, Barcelona }\n\n//Destination internal _dest;\n\n//mapping (address => uint256) public balances_client;\n\n//mapping (address => uint256) public balances_agence;\n\n constructor(address owner) public {\n    transferOwnership(owner);\n    \n }\n\nfunction setTourToken(address tourAddress) external onlyOwner {\n  _tour = TourToken(tourAddress);\n}\n\n/* Variables d'tat */\nstruct Client {\n     string name;\n     string email;\n     string password;\n     bool isClient;\n     uint256 no_reservation;\n     uint date_registration;\n \n}\n\nstruct Offer {\n    \n    string destination;\n  //  bool isTransport;\n  //  bool isSejour;\n  //  bool isRestauration;\n  //  bool isActivites;\n  //  bool isTours;\n   uint256 priceinTokens;\n}\n\nfunction register(string memory _name, string memory _email, string memory _password) public {\n   // _addrClient = 0x44F31c324702C418d3486174d2A200Df1b345376;\n   // counterClient++;\n    _clientIds.increment();\n    //counterClient++;\n    require (clients[msg.sender].isClient == false, 'only nonClients can use this function');\n    //uint newclientId = _clientIds.current();\n    clients[msg.sender] = Client(_name, _email, _password, true, 0, block.timestamp);\n} \n\n function clientId() public view returns (uint256) {\n        \n        return _clientIds.current();\n    } \n\nfunction getClient(address _addr) public view returns (Client memory) {\n        return clients[_addr];\n    }\n \n function choose_offer(string memory _destination, bool _isSejour, bool _isTransport, bool _isRestauration, bool _isActivities, bool _isTours) public returns (uint256) {\n    //counterOffer++;\n\n    _offerIds.increment();\n    uint256 newofferId = _offerIds.current();\n    uint price;\n    uint PRICE_SEJOUR;\n    uint PRICE_TRANSPORT;\n    uint PRICE_RESTAURATION;\n    uint PRICE_ACTIVITIES;\n    uint PRICE_TOURS;\n    if (keccak256(bytes(_destination)) == keccak256(bytes(\"NewYork\"))) {\n        if (_isSejour == true) {\n        PRICE_SEJOUR = 100;\n        price +=100;\n        }\n        if (_isTransport == true) {\n        PRICE_TRANSPORT = 50;\n        price +=50;\n        }\n        if (_isRestauration == true) {\n        PRICE_RESTAURATION = 50;\n        price +=50;\n        }\n        if (_isActivities == true) {\n        PRICE_ACTIVITIES = 50;\n        price +=50;\n        }\n        if (_isTours == true) {\n        PRICE_TOURS = 50;\n        price  += 50;\n        }\n    }\n    else if (keccak256(bytes(_destination)) == keccak256(bytes(\"Maldives\"))) {\n         if (_isSejour == true) {\n        PRICE_SEJOUR = 150;\n        price +=150;\n        }\n        if (_isTransport == true) {\n        PRICE_TRANSPORT = 30;\n        price +=30;\n        }\n        if (_isRestauration == true) {\n        PRICE_RESTAURATION = 50;\n        price +=50;\n        }\n        if (_isActivities == true) {\n        PRICE_ACTIVITIES = 20;\n        price +=20;\n        }\n        if (_isTours == true) {\n        PRICE_TOURS = 50;\n        price  += 50;\n        }\n    }\n    else if (keccak256(bytes(_destination)) == keccak256(bytes(\"Vancouver\"))) {\n        if (_isSejour == true) {\n        PRICE_SEJOUR = 80;\n        price +=80;\n        }\n        if (_isTransport == true) {\n        PRICE_TRANSPORT = 40;\n        price +=40;\n        }\n        if (_isRestauration == true) {\n        PRICE_RESTAURATION = 40;\n        price += 40;\n        }\n        if (_isActivities == true) {\n        PRICE_ACTIVITIES = 30;\n        price +=30;\n        }\n        if (_isTours == true) {\n        PRICE_TOURS = 30;\n        price  += 30;\n        }\n    }\n    else if(keccak256(bytes(_destination)) == keccak256(bytes(\"Barcelona\"))) {\n      if (_isSejour == true) {\n        PRICE_SEJOUR = 50;\n        price +=50;\n        }\n        if (_isTransport == true) {\n        PRICE_TRANSPORT = 30;\n        price +=30;\n        }\n        if (_isRestauration == true) {\n        PRICE_RESTAURATION = 30;\n        price += 30;\n        }\n        if (_isActivities == true) {\n        PRICE_ACTIVITIES = 20;\n        price +=20;\n        }\n        if (_isTours == true) {\n        PRICE_TOURS = 50;\n        price  += 50;\n        }\n    }\n    else revert(\"Invalid destination\");\n   // uint totalPrice = offers[newofferId].priceinTokens;\n    offers[newofferId] = Offer(_destination, price);\n   // totalprice = offers[newofferId].priceinTokens;\n   // Offer memory c = offers[newofferId];\n   // return (c.priceinTokens);\n   return _offerIds.current();\n}\n\n /*function getDestination() public view returns (Destination)\n  {\n    return _dest;\n  } */\n\n\nfunction getPrice(uint256 _id) public view returns(uint256) {\n    Offer memory c = offers[_id];\n    \n    return (c.priceinTokens);\n}\n\nfunction getOffer(uint256 _id) public view returns (Offer memory) {\n        return offers[_id];\n    } \n \n \nfunction reserveByClient(uint _id) public {\n   \n    _tour.operatorSend(msg.sender, _addrAgence, offers[_id].priceinTokens, \"\", \"\");\n    clients[msg.sender].no_reservation = clients[msg.sender].date_registration;\n  }\n  \n}\n",
  "sourcePath": "/Users/itanis/Desktop/projets/tourisme-back/contracts/Tourisme.sol",
  "compiler": {
    "name": "solc",
    "version": "0.6.12+commit.27d51765.Linux.g++"
  },
  "schemaVersion": "3.3.1",
  "updatedAt": "2020-12-01T13:35:19.091Z",
  "devdoc": {
    "kind": "dev",
    "methods": {
      "owner()": {
        "details": "Returns the address of the current owner."
      },
      "renounceOwnership()": {
        "details": "Leaves the contract without owner. It will not be possible to call `onlyOwner` functions anymore. Can only be called by the current owner. NOTE: Renouncing ownership will leave the contract without an owner, thereby removing any functionality that is only available to the owner."
      },
      "transferOwnership(address)": {
        "details": "Transfers ownership of the contract to a new account (`newOwner`). Can only be called by the current owner."
      }
    },
    "version": 1
  },
  "userdoc": {
    "kind": "user",
    "methods": {},
    "version": 1
  }
}