{
  "contractName": "Tourisme",
  "abi": [
    {
      "inputs": [
        {
          "internalType": "address",
          "name": "owner",
          "type": "address"
        }
      ],
      "stateMutability": "nonpayable",
      "type": "constructor"
    },
    {
      "anonymous": false,
      "inputs": [
        {
          "indexed": true,
          "internalType": "address",
          "name": "previousOwner",
          "type": "address"
        },
        {
          "indexed": true,
          "internalType": "address",
          "name": "newOwner",
          "type": "address"
        }
      ],
      "name": "OwnershipTransferred",
      "type": "event"
    },
    {
      "inputs": [
        {
          "internalType": "address",
          "name": "",
          "type": "address"
        }
      ],
      "name": "clients",
      "outputs": [
        {
          "internalType": "string",
          "name": "name",
          "type": "string"
        },
        {
          "internalType": "string",
          "name": "email",
          "type": "string"
        },
        {
          "internalType": "string",
          "name": "password",
          "type": "string"
        },
        {
          "internalType": "bool",
          "name": "isClient",
          "type": "bool"
        },
        {
          "internalType": "uint256",
          "name": "no_reservation",
          "type": "uint256"
        },
        {
          "internalType": "uint256",
          "name": "date_registration",
          "type": "uint256"
        }
      ],
      "stateMutability": "view",
      "type": "function",
      "constant": true
    },
    {
      "inputs": [
        {
          "internalType": "uint256",
          "name": "",
          "type": "uint256"
        }
      ],
      "name": "offers",
      "outputs": [
        {
          "internalType": "string",
          "name": "destination",
          "type": "string"
        },
        {
          "internalType": "uint256",
          "name": "priceinTokens",
          "type": "uint256"
        }
      ],
      "stateMutability": "view",
      "type": "function",
      "constant": true
    },
    {
      "inputs": [],
      "name": "owner",
      "outputs": [
        {
          "internalType": "address",
          "name": "",
          "type": "address"
        }
      ],
      "stateMutability": "view",
      "type": "function",
      "constant": true
    },
    {
      "inputs": [],
      "name": "renounceOwnership",
      "outputs": [],
      "stateMutability": "nonpayable",
      "type": "function"
    },
    {
      "inputs": [
        {
          "internalType": "address",
          "name": "newOwner",
          "type": "address"
        }
      ],
      "name": "transferOwnership",
      "outputs": [],
      "stateMutability": "nonpayable",
      "type": "function"
    },
    {
      "inputs": [
        {
          "internalType": "address",
          "name": "tourAddress",
          "type": "address"
        }
      ],
      "name": "setTourToken",
      "outputs": [],
      "stateMutability": "nonpayable",
      "type": "function"
    },
    {
      "inputs": [
        {
          "internalType": "string",
          "name": "_name",
          "type": "string"
        },
        {
          "internalType": "string",
          "name": "_email",
          "type": "string"
        },
        {
          "internalType": "string",
          "name": "_password",
          "type": "string"
        }
      ],
      "name": "register",
      "outputs": [],
      "stateMutability": "nonpayable",
      "type": "function"
    },
    {
      "inputs": [],
      "name": "clientId",
      "outputs": [
        {
          "internalType": "uint256",
          "name": "",
          "type": "uint256"
        }
      ],
      "stateMutability": "view",
      "type": "function",
      "constant": true
    },
    {
      "inputs": [
        {
          "internalType": "address",
          "name": "_addr",
          "type": "address"
        }
      ],
      "name": "getClient",
      "outputs": [
        {
          "components": [
            {
              "internalType": "string",
              "name": "name",
              "type": "string"
            },
            {
              "internalType": "string",
              "name": "email",
              "type": "string"
            },
            {
              "internalType": "string",
              "name": "password",
              "type": "string"
            },
            {
              "internalType": "bool",
              "name": "isClient",
              "type": "bool"
            },
            {
              "internalType": "uint256",
              "name": "no_reservation",
              "type": "uint256"
            },
            {
              "internalType": "uint256",
              "name": "date_registration",
              "type": "uint256"
            }
          ],
          "internalType": "struct Tourisme.Client",
          "name": "",
          "type": "tuple"
        }
      ],
      "stateMutability": "view",
      "type": "function",
      "constant": true
    },
    {
      "inputs": [
        {
          "internalType": "string",
          "name": "_destination",
          "type": "string"
        },
        {
          "internalType": "bool",
          "name": "_isSejour",
          "type": "bool"
        },
        {
          "internalType": "bool",
          "name": "_isTransport",
          "type": "bool"
        },
        {
          "internalType": "bool",
          "name": "_isRestauration",
          "type": "bool"
        },
        {
          "internalType": "bool",
          "name": "_isActivities",
          "type": "bool"
        },
        {
          "internalType": "bool",
          "name": "_isTours",
          "type": "bool"
        }
      ],
      "name": "choose_offer",
      "outputs": [],
      "stateMutability": "nonpayable",
      "type": "function"
    },
    {
      "inputs": [],
      "name": "getofferID",
      "outputs": [
        {
          "internalType": "uint256",
          "name": "",
          "type": "uint256"
        }
      ],
      "stateMutability": "view",
      "type": "function",
      "constant": true
    },
    {
      "inputs": [
        {
          "internalType": "uint256",
          "name": "_id",
          "type": "uint256"
        }
      ],
      "name": "getPrice",
      "outputs": [
        {
          "internalType": "uint256",
          "name": "",
          "type": "uint256"
        }
      ],
      "stateMutability": "view",
      "type": "function",
      "constant": true
    },
    {
      "inputs": [
        {
          "internalType": "uint256",
          "name": "_id",
          "type": "uint256"
        }
      ],
      "name": "getOffer",
      "outputs": [
        {
          "components": [
            {
              "internalType": "string",
              "name": "destination",
              "type": "string"
            },
            {
              "internalType": "uint256",
              "name": "priceinTokens",
              "type": "uint256"
            }
          ],
          "internalType": "struct Tourisme.Offer",
          "name": "",
          "type": "tuple"
        }
      ],
      "stateMutability": "view",
      "type": "function",
      "constant": true
    },
    {
      "inputs": [
        {
          "internalType": "uint256",
          "name": "_id",
          "type": "uint256"
        }
      ],
      "name": "reserveByClient",
      "outputs": [],
      "stateMutability": "nonpayable",
      "type": "function"
    }
  ],
  "bytecode": "0x60806040523480156200001157600080fd5b506040516200236c3803806200236c8339818101604052810190620000379190620002ee565b600062000049620000ff60201b60201c565b9050806000806101000a81548173ffffffffffffffffffffffffffffffffffffffff021916908373ffffffffffffffffffffffffffffffffffffffff1602179055508073ffffffffffffffffffffffffffffffffffffffff16600073ffffffffffffffffffffffffffffffffffffffff167f8be0079c531659141344cd1fd0a4f28419497f9722a3daafe3b4186f6b6457e060405160405180910390a350620000f8816200010760201b60201c565b5062000467565b600033905090565b62000117620000ff60201b60201c565b73ffffffffffffffffffffffffffffffffffffffff1660008054906101000a900473ffffffffffffffffffffffffffffffffffffffff1673ffffffffffffffffffffffffffffffffffffffff1614620001a7576040517f08c379a00000000000000000000000000000000000000000000000000000000081526004016200019e90620003e6565b60405180910390fd5b600073ffffffffffffffffffffffffffffffffffffffff168173ffffffffffffffffffffffffffffffffffffffff1614156200021a576040517f08c379a00000000000000000000000000000000000000000000000000000000081526004016200021190620003c4565b60405180910390fd5b8073ffffffffffffffffffffffffffffffffffffffff1660008054906101000a900473ffffffffffffffffffffffffffffffffffffffff1673ffffffffffffffffffffffffffffffffffffffff167f8be0079c531659141344cd1fd0a4f28419497f9722a3daafe3b4186f6b6457e060405160405180910390a3806000806101000a81548173ffffffffffffffffffffffffffffffffffffffff021916908373ffffffffffffffffffffffffffffffffffffffff16021790555050565b600081519050620002e8816200044d565b92915050565b6000602082840312156200030157600080fd5b60006200031184828501620002d7565b91505092915050565b60006200032960268362000408565b91507f4f776e61626c653a206e6577206f776e657220697320746865207a65726f206160008301527f64647265737300000000000000000000000000000000000000000000000000006020830152604082019050919050565b60006200039160208362000408565b91507f4f776e61626c653a2063616c6c6572206973206e6f7420746865206f776e65726000830152602082019050919050565b60006020820190508181036000830152620003df816200031a565b9050919050565b60006020820190508181036000830152620004018162000382565b9050919050565b600082825260208201905092915050565b600062000426826200042d565b9050919050565b600073ffffffffffffffffffffffffffffffffffffffff82169050919050565b620004588162000419565b81146200046457600080fd5b50565b611ef580620004776000396000f3fe608060405234801561001057600080fd5b50600436106100ea5760003560e01c80638da5cb5b1161008c578063badb38f611610066578063badb38f61461024f578063e75722301461026b578063e7b61d031461029b578063f2fde38b146102b9576100ea565b80638da5cb5b146101e55780639b974d0514610203578063a0e328701461021f576100ea565b806361eed2a9116100c857806361eed2a9146101575780636bb3471a1461018c578063715018a6146101aa5780638a72ea6a146101b4576100ea565b80632d266b18146100ef5780634579268a1461010b5780634cd08d031461013b575b600080fd5b61010960048036038101906101049190611685565b6102d5565b005b610125600480360381019061012091906117e6565b6103ae565b6040516101329190611cd5565b60405180910390f35b6101556004803603810190610150919061174f565b610487565b005b610171600480360381019061016c9190611685565b61062a565b60405161018396959493929190611b8d565b60405180910390f35b61019461083b565b6040516101a19190611cf7565b60405180910390f35b6101b261084c565b005b6101ce60048036038101906101c991906117e6565b61099f565b6040516101dc929190611c03565b60405180910390f35b6101ed610a5b565b6040516101fa9190611b15565b60405180910390f35b61021d600480360381019061021891906116ae565b610a84565b005b61023960048036038101906102349190611685565b610e65565b6040516102469190611cb3565b60405180910390f35b610269600480360381019061026491906117e6565b6110d3565b005b610285600480360381019061028091906117e6565b611228565b6040516102929190611cf7565b60405180910390f35b6102a361130b565b6040516102b09190611cf7565b60405180910390f35b6102d360048036038101906102ce9190611685565b611315565b005b6102dd6114d7565b73ffffffffffffffffffffffffffffffffffffffff1660008054906101000a900473ffffffffffffffffffffffffffffffffffffffff1673ffffffffffffffffffffffffffffffffffffffff161461036a576040517f08c379a000000000000000000000000000000000000000000000000000000000815260040161036190611c93565b60405180910390fd5b80600160006101000a81548173ffffffffffffffffffffffffffffffffffffffff021916908373ffffffffffffffffffffffffffffffffffffffff16021790555050565b6103b6611503565b600b6000838152602001908152602001600020604051806040016040529081600082018054600181600116156101000203166002900480601f01602080910402602001604051908101604052809291908181526020018280546001816001161561010002031660029004801561046d5780601f106104425761010080835404028352916020019161046d565b820191906000526020600020905b81548152906001019060200180831161045057829003601f168201915b505050505081526020016001820154815250509050919050565b61049160026114df565b60001515600a60003373ffffffffffffffffffffffffffffffffffffffff1673ffffffffffffffffffffffffffffffffffffffff16815260200190815260200160002060030160009054906101000a900460ff16151514610527576040517f08c379a000000000000000000000000000000000000000000000000000000000815260040161051e90611c53565b60405180910390fd5b6040518060c001604052808481526020018381526020018281526020016001151581526020016000815260200142815250600a60003373ffffffffffffffffffffffffffffffffffffffff1673ffffffffffffffffffffffffffffffffffffffff16815260200190815260200160002060008201518160000190805190602001906105b392919061151d565b5060208201518160010190805190602001906105d092919061151d565b5060408201518160020190805190602001906105ed92919061151d565b5060608201518160030160006101000a81548160ff0219169083151502179055506080820151816004015560a08201518160050155905050505050565b600a602052806000526040600020600091509050806000018054600181600116156101000203166002900480601f0160208091040260200160405190810160405280929190818152602001828054600181600116156101000203166002900480156106d65780601f106106ab576101008083540402835291602001916106d6565b820191906000526020600020905b8154815290600101906020018083116106b957829003601f168201915b505050505090806001018054600181600116156101000203166002900480601f0160208091040260200160405190810160405280929190818152602001828054600181600116156101000203166002900480156107745780601f1061074957610100808354040283529160200191610774565b820191906000526020600020905b81548152906001019060200180831161075757829003601f168201915b505050505090806002018054600181600116156101000203166002900480601f0160208091040260200160405190810160405280929190818152602001828054600181600116156101000203166002900480156108125780601f106107e757610100808354040283529160200191610812565b820191906000526020600020905b8154815290600101906020018083116107f557829003601f168201915b5050505050908060030160009054906101000a900460ff16908060040154908060050154905086565b600061084760026114f5565b905090565b6108546114d7565b73ffffffffffffffffffffffffffffffffffffffff1660008054906101000a900473ffffffffffffffffffffffffffffffffffffffff1673ffffffffffffffffffffffffffffffffffffffff16146108e1576040517f08c379a00000000000000000000000000000000000000000000000000000000081526004016108d890611c93565b60405180910390fd5b600073ffffffffffffffffffffffffffffffffffffffff1660008054906101000a900473ffffffffffffffffffffffffffffffffffffffff1673ffffffffffffffffffffffffffffffffffffffff167f8be0079c531659141344cd1fd0a4f28419497f9722a3daafe3b4186f6b6457e060405160405180910390a360008060006101000a81548173ffffffffffffffffffffffffffffffffffffffff021916908373ffffffffffffffffffffffffffffffffffffffff160217905550565b600b602052806000526040600020600091509050806000018054600181600116156101000203166002900480601f016020809104026020016040519081016040528092919081815260200182805460018160011615610100020316600290048015610a4b5780601f10610a2057610100808354040283529160200191610a4b565b820191906000526020600020905b815481529060010190602001808311610a2e57829003601f168201915b5050505050908060010154905082565b60008060009054906101000a900473ffffffffffffffffffffffffffffffffffffffff16905090565b600660008154809291906001019190505550600060065490506000806000806000806040518060400160405280600781526020017f4e6577596f726b00000000000000000000000000000000000000000000000000815250805190602001208d805190602001201415610b6e57600115158c15151415610b0957606494506064860195505b600115158b15151415610b2157603293506032860195505b600115158a15151415610b3957603292506032860195505b600115158915151415610b5157603291506032860195505b600115158815151415610b6957603290506032860195505b610e04565b6040518060400160405280600881526020017f4d616c6469766573000000000000000000000000000000000000000000000000815250805190602001208d805190602001201415610c3657600115158c15151415610bd157609694506096860195505b600115158b15151415610be957601e9350601e860195505b600115158a15151415610c0157603292506032860195505b600115158915151415610c1957601491506014860195505b600115158815151415610c3157603290506032860195505b610e03565b6040518060400160405280600981526020017f56616e636f757665720000000000000000000000000000000000000000000000815250805190602001208d805190602001201415610cfe57600115158c15151415610c9957605094506050860195505b600115158b15151415610cb157602893506028860195505b600115158a15151415610cc957602892506028860195505b600115158915151415610ce157601e9150601e860195505b600115158815151415610cf957601e9050601e860195505b610e02565b6040518060400160405280600981526020017f42617263656c6f6e610000000000000000000000000000000000000000000000815250805190602001208d805190602001201415610dc657600115158c15151415610d6157603294506032860195505b600115158b15151415610d7957601e9350601e860195505b600115158a15151415610d9157601e9250601e860195505b600115158915151415610da957601491506014860195505b600115158815151415610dc157603290506032860195505b610e01565b6040517f08c379a0000000000000000000000000000000000000000000000000000000008152600401610df890611c73565b60405180910390fd5b5b5b5b60405180604001604052808e815260200187815250600b60008981526020019081526020016000206000820151816000019080519060200190610e4892919061151d565b506020820151816001015590505050505050505050505050505050565b610e6d61159d565b600a60008373ffffffffffffffffffffffffffffffffffffffff1673ffffffffffffffffffffffffffffffffffffffff1681526020019081526020016000206040518060c0016040529081600082018054600181600116156101000203166002900480601f016020809104026020016040519081016040528092919081815260200182805460018160011615610100020316600290048015610f505780601f10610f2557610100808354040283529160200191610f50565b820191906000526020600020905b815481529060010190602001808311610f3357829003601f168201915b50505050508152602001600182018054600181600116156101000203166002900480601f016020809104026020016040519081016040528092919081815260200182805460018160011615610100020316600290048015610ff25780601f10610fc757610100808354040283529160200191610ff2565b820191906000526020600020905b815481529060010190602001808311610fd557829003601f168201915b50505050508152602001600282018054600181600116156101000203166002900480601f0160208091040260200160405190810160405280929190818152602001828054600181600116156101000203166002900480156110945780601f1061106957610100808354040283529160200191611094565b820191906000526020600020905b81548152906001019060200180831161107757829003601f168201915b505050505081526020016003820160009054906101000a900460ff16151515158152602001600482015481526020016005820154815250509050919050565b600160009054906101000a900473ffffffffffffffffffffffffffffffffffffffff1673ffffffffffffffffffffffffffffffffffffffff166362ad1b8333600960009054906101000a900473ffffffffffffffffffffffffffffffffffffffff16600b6000868152602001908152602001600020600101546040518463ffffffff1660e01b815260040161116a93929190611b30565b600060405180830381600087803b15801561118457600080fd5b505af1158015611198573d6000803e3d6000fd5b50505050600a60003373ffffffffffffffffffffffffffffffffffffffff1673ffffffffffffffffffffffffffffffffffffffff16815260200190815260200160002060050154600a60003373ffffffffffffffffffffffffffffffffffffffff1673ffffffffffffffffffffffffffffffffffffffff1681526020019081526020016000206004018190555050565b6000611232611503565b600b6000848152602001908152602001600020604051806040016040529081600082018054600181600116156101000203166002900480601f0160208091040260200160405190810160405280929190818152602001828054600181600116156101000203166002900480156112e95780601f106112be576101008083540402835291602001916112e9565b820191906000526020600020905b8154815290600101906020018083116112cc57829003601f168201915b5050505050815260200160018201548152505090508060200151915050919050565b6000600654905090565b61131d6114d7565b73ffffffffffffffffffffffffffffffffffffffff1660008054906101000a900473ffffffffffffffffffffffffffffffffffffffff1673ffffffffffffffffffffffffffffffffffffffff16146113aa576040517f08c379a00000000000000000000000000000000000000000000000000000000081526004016113a190611c93565b60405180910390fd5b600073ffffffffffffffffffffffffffffffffffffffff168173ffffffffffffffffffffffffffffffffffffffff16141561141a576040517f08c379a000000000000000000000000000000000000000000000000000000000815260040161141190611c33565b60405180910390fd5b8073ffffffffffffffffffffffffffffffffffffffff1660008054906101000a900473ffffffffffffffffffffffffffffffffffffffff1673ffffffffffffffffffffffffffffffffffffffff167f8be0079c531659141344cd1fd0a4f28419497f9722a3daafe3b4186f6b6457e060405160405180910390a3806000806101000a81548173ffffffffffffffffffffffffffffffffffffffff021916908373ffffffffffffffffffffffffffffffffffffffff16021790555050565b600033905090565b6001816000016000828254019250508190555050565b600081600001549050919050565b604051806040016040528060608152602001600081525090565b828054600181600116156101000203166002900490600052602060002090601f016020900481019282601f1061155e57805160ff191683800117855561158c565b8280016001018555821561158c579182015b8281111561158b578251825591602001919060010190611570565b5b50905061159991906115d5565b5090565b6040518060c0016040528060608152602001606081526020016060815260200160001515815260200160008152602001600081525090565b5b808211156115ee5760008160009055506001016115d6565b5090565b60008135905061160181611e7a565b92915050565b60008135905061161681611e91565b92915050565b600082601f83011261162d57600080fd5b813561164061163b82611d3f565b611d12565b9150808252602083016020830185838301111561165c57600080fd5b611667838284611e27565b50505092915050565b60008135905061167f81611ea8565b92915050565b60006020828403121561169757600080fd5b60006116a5848285016115f2565b91505092915050565b60008060008060008060c087890312156116c757600080fd5b600087013567ffffffffffffffff8111156116e157600080fd5b6116ed89828a0161161c565b96505060206116fe89828a01611607565b955050604061170f89828a01611607565b945050606061172089828a01611607565b935050608061173189828a01611607565b92505060a061174289828a01611607565b9150509295509295509295565b60008060006060848603121561176457600080fd5b600084013567ffffffffffffffff81111561177e57600080fd5b61178a8682870161161c565b935050602084013567ffffffffffffffff8111156117a757600080fd5b6117b38682870161161c565b925050604084013567ffffffffffffffff8111156117d057600080fd5b6117dc8682870161161c565b9150509250925092565b6000602082840312156117f857600080fd5b600061180684828501611670565b91505092915050565b61181881611df1565b82525050565b61182781611da9565b82525050565b61183681611dbb565b82525050565b61184581611dbb565b82525050565b600061185682611d6b565b6118608185611d87565b9350611870818560208601611e36565b61187981611e69565b840191505092915050565b600061188f82611d6b565b6118998185611d98565b93506118a9818560208601611e36565b6118b281611e69565b840191505092915050565b60006118ca602683611d98565b91507f4f776e61626c653a206e6577206f776e657220697320746865207a65726f206160008301527f64647265737300000000000000000000000000000000000000000000000000006020830152604082019050919050565b6000611930602583611d98565b91507f6f6e6c79206e6f6e436c69656e74732063616e2075736520746869732066756e60008301527f6374696f6e0000000000000000000000000000000000000000000000000000006020830152604082019050919050565b6000611996601383611d98565b91507f496e76616c69642064657374696e6174696f6e000000000000000000000000006000830152602082019050919050565b60006119d6602083611d98565b91507f4f776e61626c653a2063616c6c6572206973206e6f7420746865206f776e65726000830152602082019050919050565b6000611a16600083611d76565b9150600082019050919050565b600060c0830160008301518482036000860152611a40828261184b565b91505060208301518482036020860152611a5a828261184b565b91505060408301518482036040860152611a74828261184b565b9150506060830151611a89606086018261182d565b506080830151611a9c6080860182611af7565b5060a0830151611aaf60a0860182611af7565b508091505092915050565b60006040830160008301518482036000860152611ad7828261184b565b9150506020830151611aec6020860182611af7565b508091505092915050565b611b0081611de7565b82525050565b611b0f81611de7565b82525050565b6000602082019050611b2a600083018461181e565b92915050565b600060a082019050611b45600083018661180f565b611b52602083018561180f565b611b5f6040830184611b06565b8181036060830152611b7081611a09565b90508181036080830152611b8381611a09565b9050949350505050565b600060c0820190508181036000830152611ba78189611884565b90508181036020830152611bbb8188611884565b90508181036040830152611bcf8187611884565b9050611bde606083018661183c565b611beb6080830185611b06565b611bf860a0830184611b06565b979650505050505050565b60006040820190508181036000830152611c1d8185611884565b9050611c2c6020830184611b06565b9392505050565b60006020820190508181036000830152611c4c816118bd565b9050919050565b60006020820190508181036000830152611c6c81611923565b9050919050565b60006020820190508181036000830152611c8c81611989565b9050919050565b60006020820190508181036000830152611cac816119c9565b9050919050565b60006020820190508181036000830152611ccd8184611a23565b905092915050565b60006020820190508181036000830152611cef8184611aba565b905092915050565b6000602082019050611d0c6000830184611b06565b92915050565b6000604051905081810181811067ffffffffffffffff82111715611d3557600080fd5b8060405250919050565b600067ffffffffffffffff821115611d5657600080fd5b601f19601f8301169050602081019050919050565b600081519050919050565b600082825260208201905092915050565b600082825260208201905092915050565b600082825260208201905092915050565b6000611db482611dc7565b9050919050565b60008115159050919050565b600073ffffffffffffffffffffffffffffffffffffffff82169050919050565b6000819050919050565b6000611dfc82611e03565b9050919050565b6000611e0e82611e15565b9050919050565b6000611e2082611dc7565b9050919050565b82818337600083830152505050565b60005b83811015611e54578082015181840152602081019050611e39565b83811115611e63576000848401525b50505050565b6000601f19601f8301169050919050565b611e8381611da9565b8114611e8e57600080fd5b50565b611e9a81611dbb565b8114611ea557600080fd5b50565b611eb181611de7565b8114611ebc57600080fd5b5056fea26469706673582212207648537819ec7e241f71310978f875bbec5d8cd89fdea4d4a75bde621ae2265264736f6c634300060c0033",
  "immutableReferences": {},
  "source": " // SPDX-License-Identifier: MIT\npragma solidity ^0.6.0;\npragma experimental ABIEncoderV2;\nimport \"./TourToken.sol\";\nimport \"@openzeppelin/contracts/utils/Counters.sol\";\nimport \"@openzeppelin/contracts/access/Ownable.sol\";\n\n\ncontract Tourisme is Ownable{\nTourToken private _tour;\n\n\nusing Counters for Counters.Counter;\nCounters.Counter private _clientIds;\nCounters.Counter private _offerIds;\n\naddress payable _agence;\n\n\nuint256 counterClient;\nuint256 counterOffer;\nuint256 totalprice;\n\naddress _addrClient;\naddress payable _addrAgence;\n\n\nmapping (address => Client) public clients;\n\nmapping (uint256 => Offer) public offers;\n\n//enum Destination { NewYork, Maldives, Vancouver, Barcelona }\n\n//Destination internal _dest;\n\n constructor(address owner) public {\n    transferOwnership(owner);\n }\n\nfunction setTourToken(address tourAddress) external onlyOwner {\n  _tour = TourToken(tourAddress);\n}\n\n/* Variables d'tat */\nstruct Client {\n     string name;\n     string email;\n     string password;\n     bool isClient;\n     uint256 no_reservation;\n     uint date_registration;\n \n}\n\nstruct Offer {\n    \n    string destination;\n  //  bool isTransport;\n  //  bool isSejour;\n  //  bool isRestauration;\n  //  bool isActivites;\n  //  bool isTours;\n   uint256 priceinTokens;\n}\n\nfunction register(string memory _name, string memory _email, string memory _password) public {\n   // _addrClient = 0x44F31c324702C418d3486174d2A200Df1b345376;\n   // counterClient++;\n    _clientIds.increment();\n    //counterClient++;\n    require (clients[msg.sender].isClient == false, 'only nonClients can use this function');\n    //uint newclientId = _clientIds.current();\n    clients[msg.sender] = Client(_name, _email, _password, true, 0, block.timestamp);\n} \n\n function clientId() public view returns (uint256) {\n        \n        return _clientIds.current();\n    } \n\nfunction getClient(address _addr) public view returns (Client memory) {\n        return clients[_addr];\n    }\n \n function choose_offer(string memory _destination, bool _isSejour, bool _isTransport, bool _isRestauration, bool _isActivities, bool _isTours) public {\n    counterOffer++;\n\n    //_offerIds.increment();\n    uint256 newofferId = counterOffer;\n    uint price;\n    uint PRICE_SEJOUR;\n    uint PRICE_TRANSPORT;\n    uint PRICE_RESTAURATION;\n    uint PRICE_ACTIVITIES;\n    uint PRICE_TOURS;\n    if (keccak256(bytes(_destination)) == keccak256(bytes(\"NewYork\"))) {\n        if (_isSejour == true) {\n        PRICE_SEJOUR = 100;\n        price +=100;\n        }\n        if (_isTransport == true) {\n        PRICE_TRANSPORT = 50;\n        price +=50;\n        }\n        if (_isRestauration == true) {\n        PRICE_RESTAURATION = 50;\n        price +=50;\n        }\n        if (_isActivities == true) {\n        PRICE_ACTIVITIES = 50;\n        price +=50;\n        }\n        if (_isTours == true) {\n        PRICE_TOURS = 50;\n        price  += 50;\n        }\n    }\n    else if (keccak256(bytes(_destination)) == keccak256(bytes(\"Maldives\"))) {\n         if (_isSejour == true) {\n        PRICE_SEJOUR = 150;\n        price +=150;\n        }\n        if (_isTransport == true) {\n        PRICE_TRANSPORT = 30;\n        price +=30;\n        }\n        if (_isRestauration == true) {\n        PRICE_RESTAURATION = 50;\n        price +=50;\n        }\n        if (_isActivities == true) {\n        PRICE_ACTIVITIES = 20;\n        price +=20;\n        }\n        if (_isTours == true) {\n        PRICE_TOURS = 50;\n        price  += 50;\n        }\n    }\n    else if (keccak256(bytes(_destination)) == keccak256(bytes(\"Vancouver\"))) {\n        if (_isSejour == true) {\n        PRICE_SEJOUR = 80;\n        price +=80;\n        }\n        if (_isTransport == true) {\n        PRICE_TRANSPORT = 40;\n        price +=40;\n        }\n        if (_isRestauration == true) {\n        PRICE_RESTAURATION = 40;\n        price += 40;\n        }\n        if (_isActivities == true) {\n        PRICE_ACTIVITIES = 30;\n        price +=30;\n        }\n        if (_isTours == true) {\n        PRICE_TOURS = 30;\n        price  += 30;\n        }\n    }\n    else if(keccak256(bytes(_destination)) == keccak256(bytes(\"Barcelona\"))) {\n      if (_isSejour == true) {\n        PRICE_SEJOUR = 50;\n        price +=50;\n        }\n        if (_isTransport == true) {\n        PRICE_TRANSPORT = 30;\n        price +=30;\n        }\n        if (_isRestauration == true) {\n        PRICE_RESTAURATION = 30;\n        price += 30;\n        }\n        if (_isActivities == true) {\n        PRICE_ACTIVITIES = 20;\n        price +=20;\n        }\n        if (_isTours == true) {\n        PRICE_TOURS = 50;\n        price  += 50;\n        }\n    }\n    else revert(\"Invalid destination\");\n   // uint totalPrice = offers[newofferId].priceinTokens;\n    offers[newofferId] = Offer(_destination, price);\n   // totalprice = offers[newofferId].priceinTokens;\n   // Offer memory c = offers[newofferId];\n   //counterOffer = _offerIds.current();\n   // return (c.priceinTokens);\n  // return _offerIds.current();\n}\n\n function getofferID() public view returns (uint256) {\n  \n    return counterOffer;\n  \n}\n\nfunction getPrice(uint256 _id) public view returns(uint256) {\n    Offer memory c = offers[_id];\n    \n    return (c.priceinTokens);\n}\n\nfunction getOffer(uint256 _id) public view returns (Offer memory) {\n        return offers[_id];\n    } \n \n \nfunction reserveByClient(uint _id) public {\n   \n    _tour.operatorSend(msg.sender, _addrAgence, offers[_id].priceinTokens, \"\", \"\");\n    clients[msg.sender].no_reservation = clients[msg.sender].date_registration;\n  }\n  \n}\n",
  "sourcePath": "/Users/itanis/Desktop/projets/tourisme-back/contracts/Tourisme.sol",
  "compiler": {
    "name": "solc",
    "version": "0.6.12+commit.27d51765.Linux.g++"
  },
  "schemaVersion": "3.3.1",
  "updatedAt": "2020-12-02T13:12:30.220Z",
  "networkType": "ethereum",
  "devdoc": {
    "kind": "dev",
    "methods": {
      "owner()": {
        "details": "Returns the address of the current owner."
      },
      "renounceOwnership()": {
        "details": "Leaves the contract without owner. It will not be possible to call `onlyOwner` functions anymore. Can only be called by the current owner. NOTE: Renouncing ownership will leave the contract without an owner, thereby removing any functionality that is only available to the owner."
      },
      "transferOwnership(address)": {
        "details": "Transfers ownership of the contract to a new account (`newOwner`). Can only be called by the current owner."
      }
    },
    "version": 1
  },
  "userdoc": {
    "kind": "user",
    "methods": {},
    "version": 1
  }
}