{
  "contractName": "Tourisme",
  "abi": [
    {
      "inputs": [
        {
          "internalType": "address",
          "name": "owner",
          "type": "address"
        }
      ],
      "stateMutability": "nonpayable",
      "type": "constructor"
    },
    {
      "anonymous": false,
      "inputs": [
        {
          "indexed": true,
          "internalType": "address",
          "name": "previousOwner",
          "type": "address"
        },
        {
          "indexed": true,
          "internalType": "address",
          "name": "newOwner",
          "type": "address"
        }
      ],
      "name": "OwnershipTransferred",
      "type": "event"
    },
    {
      "inputs": [
        {
          "internalType": "address",
          "name": "",
          "type": "address"
        }
      ],
      "name": "clients",
      "outputs": [
        {
          "internalType": "string",
          "name": "email",
          "type": "string"
        },
        {
          "internalType": "string",
          "name": "password",
          "type": "string"
        },
        {
          "internalType": "bool",
          "name": "isClient",
          "type": "bool"
        },
        {
          "internalType": "uint256",
          "name": "no_reservation",
          "type": "uint256"
        },
        {
          "internalType": "uint256",
          "name": "date_registration",
          "type": "uint256"
        }
      ],
      "stateMutability": "view",
      "type": "function"
    },
    {
      "inputs": [
        {
          "internalType": "uint256",
          "name": "",
          "type": "uint256"
        }
      ],
      "name": "offers",
      "outputs": [
        {
          "internalType": "string",
          "name": "destination",
          "type": "string"
        },
        {
          "internalType": "uint256",
          "name": "priceinTokens",
          "type": "uint256"
        }
      ],
      "stateMutability": "view",
      "type": "function"
    },
    {
      "inputs": [],
      "name": "owner",
      "outputs": [
        {
          "internalType": "address",
          "name": "",
          "type": "address"
        }
      ],
      "stateMutability": "view",
      "type": "function"
    },
    {
      "inputs": [],
      "name": "renounceOwnership",
      "outputs": [],
      "stateMutability": "nonpayable",
      "type": "function"
    },
    {
      "inputs": [
        {
          "internalType": "address",
          "name": "newOwner",
          "type": "address"
        }
      ],
      "name": "transferOwnership",
      "outputs": [],
      "stateMutability": "nonpayable",
      "type": "function"
    },
    {
      "inputs": [
        {
          "internalType": "address",
          "name": "tourAddress",
          "type": "address"
        }
      ],
      "name": "setTourToken",
      "outputs": [],
      "stateMutability": "nonpayable",
      "type": "function"
    },
    {
      "inputs": [
        {
          "internalType": "string",
          "name": "_email",
          "type": "string"
        },
        {
          "internalType": "string",
          "name": "_password",
          "type": "string"
        }
      ],
      "name": "register",
      "outputs": [],
      "stateMutability": "nonpayable",
      "type": "function"
    },
    {
      "inputs": [],
      "name": "confirmRegister",
      "outputs": [
        {
          "internalType": "bool",
          "name": "",
          "type": "bool"
        }
      ],
      "stateMutability": "view",
      "type": "function"
    },
    {
      "inputs": [],
      "name": "clientId",
      "outputs": [
        {
          "internalType": "uint256",
          "name": "",
          "type": "uint256"
        }
      ],
      "stateMutability": "view",
      "type": "function"
    },
    {
      "inputs": [
        {
          "internalType": "string",
          "name": "_email",
          "type": "string"
        },
        {
          "internalType": "string",
          "name": "_password",
          "type": "string"
        }
      ],
      "name": "login",
      "outputs": [
        {
          "internalType": "bool",
          "name": "",
          "type": "bool"
        }
      ],
      "stateMutability": "view",
      "type": "function"
    },
    {
      "inputs": [
        {
          "internalType": "address",
          "name": "_addr",
          "type": "address"
        }
      ],
      "name": "getClient",
      "outputs": [
        {
          "components": [
            {
              "internalType": "string",
              "name": "email",
              "type": "string"
            },
            {
              "internalType": "string",
              "name": "password",
              "type": "string"
            },
            {
              "internalType": "bool",
              "name": "isClient",
              "type": "bool"
            },
            {
              "internalType": "uint256",
              "name": "no_reservation",
              "type": "uint256"
            },
            {
              "internalType": "uint256",
              "name": "date_registration",
              "type": "uint256"
            }
          ],
          "internalType": "struct Tourisme.Client",
          "name": "",
          "type": "tuple"
        }
      ],
      "stateMutability": "view",
      "type": "function"
    },
    {
      "inputs": [
        {
          "internalType": "string",
          "name": "_destination",
          "type": "string"
        },
        {
          "internalType": "bool",
          "name": "_isSejour",
          "type": "bool"
        },
        {
          "internalType": "bool",
          "name": "_isTransport",
          "type": "bool"
        },
        {
          "internalType": "bool",
          "name": "_isRestauration",
          "type": "bool"
        },
        {
          "internalType": "bool",
          "name": "_isActivities",
          "type": "bool"
        },
        {
          "internalType": "bool",
          "name": "_isTours",
          "type": "bool"
        }
      ],
      "name": "choose_offer",
      "outputs": [],
      "stateMutability": "nonpayable",
      "type": "function"
    },
    {
      "inputs": [],
      "name": "getofferID",
      "outputs": [
        {
          "internalType": "uint256",
          "name": "",
          "type": "uint256"
        }
      ],
      "stateMutability": "view",
      "type": "function"
    },
    {
      "inputs": [
        {
          "internalType": "uint256",
          "name": "_id",
          "type": "uint256"
        }
      ],
      "name": "getPrice",
      "outputs": [
        {
          "internalType": "uint256",
          "name": "",
          "type": "uint256"
        }
      ],
      "stateMutability": "view",
      "type": "function"
    },
    {
      "inputs": [
        {
          "internalType": "uint256",
          "name": "_id",
          "type": "uint256"
        }
      ],
      "name": "getOffer",
      "outputs": [
        {
          "components": [
            {
              "internalType": "string",
              "name": "destination",
              "type": "string"
            },
            {
              "internalType": "uint256",
              "name": "priceinTokens",
              "type": "uint256"
            }
          ],
          "internalType": "struct Tourisme.Offer",
          "name": "",
          "type": "tuple"
        }
      ],
      "stateMutability": "view",
      "type": "function"
    },
    {
      "inputs": [
        {
          "internalType": "uint256",
          "name": "_id",
          "type": "uint256"
        }
      ],
      "name": "reserveByClient",
      "outputs": [],
      "stateMutability": "nonpayable",
      "type": "function"
    }
  ],
  "bytecode": "0x60806040523480156200001157600080fd5b5060405162002645380380620026458339818101604052810190620000379190620002ee565b600062000049620000ff60201b60201c565b9050806000806101000a81548173ffffffffffffffffffffffffffffffffffffffff021916908373ffffffffffffffffffffffffffffffffffffffff1602179055508073ffffffffffffffffffffffffffffffffffffffff16600073ffffffffffffffffffffffffffffffffffffffff167f8be0079c531659141344cd1fd0a4f28419497f9722a3daafe3b4186f6b6457e060405160405180910390a350620000f8816200010760201b60201c565b5062000467565b600033905090565b62000117620000ff60201b60201c565b73ffffffffffffffffffffffffffffffffffffffff1660008054906101000a900473ffffffffffffffffffffffffffffffffffffffff1673ffffffffffffffffffffffffffffffffffffffff1614620001a7576040517f08c379a00000000000000000000000000000000000000000000000000000000081526004016200019e90620003e6565b60405180910390fd5b600073ffffffffffffffffffffffffffffffffffffffff168173ffffffffffffffffffffffffffffffffffffffff1614156200021a576040517f08c379a00000000000000000000000000000000000000000000000000000000081526004016200021190620003c4565b60405180910390fd5b8073ffffffffffffffffffffffffffffffffffffffff1660008054906101000a900473ffffffffffffffffffffffffffffffffffffffff1673ffffffffffffffffffffffffffffffffffffffff167f8be0079c531659141344cd1fd0a4f28419497f9722a3daafe3b4186f6b6457e060405160405180910390a3806000806101000a81548173ffffffffffffffffffffffffffffffffffffffff021916908373ffffffffffffffffffffffffffffffffffffffff16021790555050565b600081519050620002e8816200044d565b92915050565b6000602082840312156200030157600080fd5b60006200031184828501620002d7565b91505092915050565b60006200032960268362000408565b91507f4f776e61626c653a206e6577206f776e657220697320746865207a65726f206160008301527f64647265737300000000000000000000000000000000000000000000000000006020830152604082019050919050565b60006200039160208362000408565b91507f4f776e61626c653a2063616c6c6572206973206e6f7420746865206f776e65726000830152602082019050919050565b60006020820190508181036000830152620003df816200031a565b9050919050565b60006020820190508181036000830152620004018162000382565b9050919050565b600082825260208201905092915050565b600062000426826200042d565b9050919050565b600073ffffffffffffffffffffffffffffffffffffffff82169050919050565b620004588162000419565b81146200046457600080fd5b50565b6121ce80620004776000396000f3fe608060405234801561001057600080fd5b50600436106101005760003560e01c80638da5cb5b11610097578063badb38f611610066578063badb38f6146102b2578063e7572230146102ce578063e7b61d03146102fe578063f2fde38b1461031c57610100565b80638da5cb5b1461022a5780639b974d0514610248578063a0e3287014610264578063b63968ac1461029457610100565b806361eed2a9116100d357806361eed2a91461019d5780636bb3471a146101d1578063715018a6146101ef5780638a72ea6a146101f957610100565b80632d266b18146101055780633ffbd47f146101215780634579268a1461013d57806358467dbc1461016d575b600080fd5b61011f600480360381019061011a91906117a6565b610338565b005b61013b60048036038101906101369190611870565b610411565b005b610157600480360381019061015291906118dc565b6105f9565b6040516101649190611f8e565b60405180910390f35b61018760048036038101906101829190611870565b6106d2565b6040516101949190611e00565b60405180910390f35b6101b760048036038101906101b291906117a6565b61087b565b6040516101c8959493929190611e1b565b60405180910390f35b6101d96109ee565b6040516101e69190611fb0565b60405180910390f35b6101f76109ff565b005b610213600480360381019061020e91906118dc565b610b52565b604051610221929190611e7c565b60405180910390f35b610232610c0e565b60405161023f9190611d88565b60405180910390f35b610262600480360381019061025d91906117cf565b610c37565b005b61027e600480360381019061027991906117a6565b611018565b60405161028b9190611f6c565b60405180910390f35b61029c6111e4565b6040516102a99190611e00565b60405180910390f35b6102cc60048036038101906102c791906118dc565b6111fb565b005b6102e860048036038101906102e391906118dc565b611350565b6040516102f59190611fb0565b60405180910390f35b610306611433565b6040516103139190611fb0565b60405180910390f35b610336600480360381019061033191906117a6565b61143d565b005b6103406115ff565b73ffffffffffffffffffffffffffffffffffffffff1660008054906101000a900473ffffffffffffffffffffffffffffffffffffffff1673ffffffffffffffffffffffffffffffffffffffff16146103cd576040517f08c379a00000000000000000000000000000000000000000000000000000000081526004016103c490611f2c565b60405180910390fd5b80600160006101000a81548173ffffffffffffffffffffffffffffffffffffffff021916908373ffffffffffffffffffffffffffffffffffffffff16021790555050565b61041b6002611607565b60001515600a60003373ffffffffffffffffffffffffffffffffffffffff1673ffffffffffffffffffffffffffffffffffffffff16815260200190815260200160002060020160009054906101000a900460ff161515146104b1576040517f08c379a00000000000000000000000000000000000000000000000000000000081526004016104a890611eec565b60405180910390fd5b6040518060a001604052808381526020018281526020016001151581526020016000815260200142815250600a60003373ffffffffffffffffffffffffffffffffffffffff1673ffffffffffffffffffffffffffffffffffffffff168152602001908152602001600020600082015181600001908051906020019061053792919061162b565b50602082015181600101908051906020019061055492919061162b565b5060408201518160020160006101000a81548160ff0219169083151502179055506060820151816003015560808201518160040155905050600a60003373ffffffffffffffffffffffffffffffffffffffff1673ffffffffffffffffffffffffffffffffffffffff16815260200190815260200160002060020160009054906101000a900460ff16600960146101000a81548160ff0219169083151502179055505050565b6106016116ab565b600b6000838152602001908152602001600020604051806040016040529081600082018054600181600116156101000203166002900480601f0160208091040260200160405190810160405280929190818152602001828054600181600116156101000203166002900480156106b85780601f1061068d576101008083540402835291602001916106b8565b820191906000526020600020905b81548152906001019060200180831161069b57829003601f168201915b505050505081526020016001820154815250509050919050565b600060011515600a60003373ffffffffffffffffffffffffffffffffffffffff1673ffffffffffffffffffffffffffffffffffffffff16815260200190815260200160002060020160009054906101000a900460ff1615151461076a576040517f08c379a000000000000000000000000000000000000000000000000000000000815260040161076190611ecc565b60405180910390fd5b600a60003373ffffffffffffffffffffffffffffffffffffffff1673ffffffffffffffffffffffffffffffffffffffff1681526020019081526020016000206000016040516107b99190611d71565b604051809103902083805190602001201480156108325750600a60003373ffffffffffffffffffffffffffffffffffffffff1673ffffffffffffffffffffffffffffffffffffffff1681526020019081526020016000206001016040516108209190611d71565b60405180910390208280519060200120145b610871576040517f08c379a000000000000000000000000000000000000000000000000000000000815260040161086890611f4c565b60405180910390fd5b6001905092915050565b600a602052806000526040600020600091509050806000018054600181600116156101000203166002900480601f0160208091040260200160405190810160405280929190818152602001828054600181600116156101000203166002900480156109275780601f106108fc57610100808354040283529160200191610927565b820191906000526020600020905b81548152906001019060200180831161090a57829003601f168201915b505050505090806001018054600181600116156101000203166002900480601f0160208091040260200160405190810160405280929190818152602001828054600181600116156101000203166002900480156109c55780601f1061099a576101008083540402835291602001916109c5565b820191906000526020600020905b8154815290600101906020018083116109a857829003601f168201915b5050505050908060020160009054906101000a900460ff16908060030154908060040154905085565b60006109fa600261161d565b905090565b610a076115ff565b73ffffffffffffffffffffffffffffffffffffffff1660008054906101000a900473ffffffffffffffffffffffffffffffffffffffff1673ffffffffffffffffffffffffffffffffffffffff1614610a94576040517f08c379a0000000000000000000000000000000000000000000000000000000008152600401610a8b90611f2c565b60405180910390fd5b600073ffffffffffffffffffffffffffffffffffffffff1660008054906101000a900473ffffffffffffffffffffffffffffffffffffffff1673ffffffffffffffffffffffffffffffffffffffff167f8be0079c531659141344cd1fd0a4f28419497f9722a3daafe3b4186f6b6457e060405160405180910390a360008060006101000a81548173ffffffffffffffffffffffffffffffffffffffff021916908373ffffffffffffffffffffffffffffffffffffffff160217905550565b600b602052806000526040600020600091509050806000018054600181600116156101000203166002900480601f016020809104026020016040519081016040528092919081815260200182805460018160011615610100020316600290048015610bfe5780601f10610bd357610100808354040283529160200191610bfe565b820191906000526020600020905b815481529060010190602001808311610be157829003601f168201915b5050505050908060010154905082565b60008060009054906101000a900473ffffffffffffffffffffffffffffffffffffffff16905090565b600660008154809291906001019190505550600060065490506000806000806000806040518060400160405280600781526020017f4e6577596f726b00000000000000000000000000000000000000000000000000815250805190602001208d805190602001201415610d2157600115158c15151415610cbc57606494506064860195505b600115158b15151415610cd457603293506032860195505b600115158a15151415610cec57603292506032860195505b600115158915151415610d0457603291506032860195505b600115158815151415610d1c57603290506032860195505b610fb7565b6040518060400160405280600881526020017f4d616c6469766573000000000000000000000000000000000000000000000000815250805190602001208d805190602001201415610de957600115158c15151415610d8457609694506096860195505b600115158b15151415610d9c57601e9350601e860195505b600115158a15151415610db457603292506032860195505b600115158915151415610dcc57601491506014860195505b600115158815151415610de457603290506032860195505b610fb6565b6040518060400160405280600981526020017f56616e636f757665720000000000000000000000000000000000000000000000815250805190602001208d805190602001201415610eb157600115158c15151415610e4c57605094506050860195505b600115158b15151415610e6457602893506028860195505b600115158a15151415610e7c57602892506028860195505b600115158915151415610e9457601e9150601e860195505b600115158815151415610eac57601e9050601e860195505b610fb5565b6040518060400160405280600981526020017f42617263656c6f6e610000000000000000000000000000000000000000000000815250805190602001208d805190602001201415610f7957600115158c15151415610f1457603294506032860195505b600115158b15151415610f2c57601e9350601e860195505b600115158a15151415610f4457601e9250601e860195505b600115158915151415610f5c57601491506014860195505b600115158815151415610f7457603290506032860195505b610fb4565b6040517f08c379a0000000000000000000000000000000000000000000000000000000008152600401610fab90611f0c565b60405180910390fd5b5b5b5b60405180604001604052808e815260200187815250600b60008981526020019081526020016000206000820151816000019080519060200190610ffb92919061162b565b506020820151816001015590505050505050505050505050505050565b6110206116c5565b600a60008373ffffffffffffffffffffffffffffffffffffffff1673ffffffffffffffffffffffffffffffffffffffff1681526020019081526020016000206040518060a0016040529081600082018054600181600116156101000203166002900480601f0160208091040260200160405190810160405280929190818152602001828054600181600116156101000203166002900480156111035780601f106110d857610100808354040283529160200191611103565b820191906000526020600020905b8154815290600101906020018083116110e657829003601f168201915b50505050508152602001600182018054600181600116156101000203166002900480601f0160208091040260200160405190810160405280929190818152602001828054600181600116156101000203166002900480156111a55780601f1061117a576101008083540402835291602001916111a5565b820191906000526020600020905b81548152906001019060200180831161118857829003601f168201915b505050505081526020016002820160009054906101000a900460ff16151515158152602001600382015481526020016004820154815250509050919050565b6000600960149054906101000a900460ff16905090565b600160009054906101000a900473ffffffffffffffffffffffffffffffffffffffff1673ffffffffffffffffffffffffffffffffffffffff166362ad1b8333600960009054906101000a900473ffffffffffffffffffffffffffffffffffffffff16600b6000868152602001908152602001600020600101546040518463ffffffff1660e01b815260040161129293929190611da3565b600060405180830381600087803b1580156112ac57600080fd5b505af11580156112c0573d6000803e3d6000fd5b50505050600a60003373ffffffffffffffffffffffffffffffffffffffff1673ffffffffffffffffffffffffffffffffffffffff16815260200190815260200160002060040154600a60003373ffffffffffffffffffffffffffffffffffffffff1673ffffffffffffffffffffffffffffffffffffffff1681526020019081526020016000206003018190555050565b600061135a6116ab565b600b6000848152602001908152602001600020604051806040016040529081600082018054600181600116156101000203166002900480601f0160208091040260200160405190810160405280929190818152602001828054600181600116156101000203166002900480156114115780601f106113e657610100808354040283529160200191611411565b820191906000526020600020905b8154815290600101906020018083116113f457829003601f168201915b5050505050815260200160018201548152505090508060200151915050919050565b6000600654905090565b6114456115ff565b73ffffffffffffffffffffffffffffffffffffffff1660008054906101000a900473ffffffffffffffffffffffffffffffffffffffff1673ffffffffffffffffffffffffffffffffffffffff16146114d2576040517f08c379a00000000000000000000000000000000000000000000000000000000081526004016114c990611f2c565b60405180910390fd5b600073ffffffffffffffffffffffffffffffffffffffff168173ffffffffffffffffffffffffffffffffffffffff161415611542576040517f08c379a000000000000000000000000000000000000000000000000000000000815260040161153990611eac565b60405180910390fd5b8073ffffffffffffffffffffffffffffffffffffffff1660008054906101000a900473ffffffffffffffffffffffffffffffffffffffff1673ffffffffffffffffffffffffffffffffffffffff167f8be0079c531659141344cd1fd0a4f28419497f9722a3daafe3b4186f6b6457e060405160405180910390a3806000806101000a81548173ffffffffffffffffffffffffffffffffffffffff021916908373ffffffffffffffffffffffffffffffffffffffff16021790555050565b600033905090565b6001816000016000828254019250508190555050565b600081600001549050919050565b828054600181600116156101000203166002900490600052602060002090601f016020900481019282601f1061166c57805160ff191683800117855561169a565b8280016001018555821561169a579182015b8281111561169957825182559160200191906001019061167e565b5b5090506116a791906116f6565b5090565b604051806040016040528060608152602001600081525090565b6040518060a00160405280606081526020016060815260200160001515815260200160008152602001600081525090565b5b8082111561170f5760008160009055506001016116f7565b5090565b60008135905061172281612153565b92915050565b6000813590506117378161216a565b92915050565b600082601f83011261174e57600080fd5b813561176161175c82611ff8565b611fcb565b9150808252602083016020830185838301111561177d57600080fd5b611788838284612100565b50505092915050565b6000813590506117a081612181565b92915050565b6000602082840312156117b857600080fd5b60006117c684828501611713565b91505092915050565b60008060008060008060c087890312156117e857600080fd5b600087013567ffffffffffffffff81111561180257600080fd5b61180e89828a0161173d565b965050602061181f89828a01611728565b955050604061183089828a01611728565b945050606061184189828a01611728565b935050608061185289828a01611728565b92505060a061186389828a01611728565b9150509295509295509295565b6000806040838503121561188357600080fd5b600083013567ffffffffffffffff81111561189d57600080fd5b6118a98582860161173d565b925050602083013567ffffffffffffffff8111156118c657600080fd5b6118d28582860161173d565b9150509250929050565b6000602082840312156118ee57600080fd5b60006118fc84828501611791565b91505092915050565b61190e816120ca565b82525050565b61191d81612082565b82525050565b61192c81612094565b82525050565b61193b81612094565b82525050565b60008154600181166000811461195e5760018114611983576119c7565b607f600283041661196f8187612055565b955060ff19831686528086019350506119c7565b600282046119918187612055565b955061199c85612024565b60005b828110156119be5781548189015260018201915060208101905061199f565b82880195505050505b505092915050565b60006119da82612039565b6119e48185612060565b93506119f481856020860161210f565b6119fd81612142565b840191505092915050565b6000611a1382612039565b611a1d8185612071565b9350611a2d81856020860161210f565b611a3681612142565b840191505092915050565b6000611a4e602683612071565b91507f4f776e61626c653a206e6577206f776e657220697320746865207a65726f206160008301527f64647265737300000000000000000000000000000000000000000000000000006020830152604082019050919050565b6000611ab4602483612071565b91507f6f6e6c79206120636c69656e742063616e2063616c6c20746869732066756e6360008301527f74696f6e000000000000000000000000000000000000000000000000000000006020830152604082019050919050565b6000611b1a602583612071565b91507f6f6e6c79206e6f6e436c69656e74732063616e2075736520746869732066756e60008301527f6374696f6e0000000000000000000000000000000000000000000000000000006020830152604082019050919050565b6000611b80601383612071565b91507f496e76616c69642064657374696e6174696f6e000000000000000000000000006000830152602082019050919050565b6000611bc0602083612071565b91507f4f776e61626c653a2063616c6c6572206973206e6f7420746865206f776e65726000830152602082019050919050565b6000611c00600083612044565b9150600082019050919050565b6000611c1a605183612071565b91507f6120636c69656e742073686f756c642070726f766964652074686520636f727260008301527f65637420656d61696c20616e642070617373776f7264207573656420666f722060208301527f68697320726567697374726174696f6e2e0000000000000000000000000000006040830152606082019050919050565b600060a0830160008301518482036000860152611cb682826119cf565b91505060208301518482036020860152611cd082826119cf565b9150506040830151611ce56040860182611923565b506060830151611cf86060860182611d53565b506080830151611d0b6080860182611d53565b508091505092915050565b60006040830160008301518482036000860152611d3382826119cf565b9150506020830151611d486020860182611d53565b508091505092915050565b611d5c816120c0565b82525050565b611d6b816120c0565b82525050565b6000611d7d8284611941565b915081905092915050565b6000602082019050611d9d6000830184611914565b92915050565b600060a082019050611db86000830186611905565b611dc56020830185611905565b611dd26040830184611d62565b8181036060830152611de381611bf3565b90508181036080830152611df681611bf3565b9050949350505050565b6000602082019050611e156000830184611932565b92915050565b600060a0820190508181036000830152611e358188611a08565b90508181036020830152611e498187611a08565b9050611e586040830186611932565b611e656060830185611d62565b611e726080830184611d62565b9695505050505050565b60006040820190508181036000830152611e968185611a08565b9050611ea56020830184611d62565b9392505050565b60006020820190508181036000830152611ec581611a41565b9050919050565b60006020820190508181036000830152611ee581611aa7565b9050919050565b60006020820190508181036000830152611f0581611b0d565b9050919050565b60006020820190508181036000830152611f2581611b73565b9050919050565b60006020820190508181036000830152611f4581611bb3565b9050919050565b60006020820190508181036000830152611f6581611c0d565b9050919050565b60006020820190508181036000830152611f868184611c99565b905092915050565b60006020820190508181036000830152611fa88184611d16565b905092915050565b6000602082019050611fc56000830184611d62565b92915050565b6000604051905081810181811067ffffffffffffffff82111715611fee57600080fd5b8060405250919050565b600067ffffffffffffffff82111561200f57600080fd5b601f19601f8301169050602081019050919050565b60008190508160005260206000209050919050565b600081519050919050565b600082825260208201905092915050565b600081905092915050565b600082825260208201905092915050565b600082825260208201905092915050565b600061208d826120a0565b9050919050565b60008115159050919050565b600073ffffffffffffffffffffffffffffffffffffffff82169050919050565b6000819050919050565b60006120d5826120dc565b9050919050565b60006120e7826120ee565b9050919050565b60006120f9826120a0565b9050919050565b82818337600083830152505050565b60005b8381101561212d578082015181840152602081019050612112565b8381111561213c576000848401525b50505050565b6000601f19601f8301169050919050565b61215c81612082565b811461216757600080fd5b50565b61217381612094565b811461217e57600080fd5b50565b61218a816120c0565b811461219557600080fd5b5056fea264697066735822122069ba44cdd19883b4ac529b975b33f5633a796b4542c43972ecee3d62396f329e64736f6c634300060c0033",
  "immutableReferences": {},
  "source": "  // SPDX-License-Identifier: MIT\npragma solidity ^0.6.0;\npragma experimental ABIEncoderV2;\nimport \"./TourToken.sol\";\nimport \"@openzeppelin/contracts/utils/Counters.sol\";\nimport \"@openzeppelin/contracts/access/Ownable.sol\";\n\n\ncontract Tourisme is Ownable{\nTourToken private _tour;\n\n\nusing Counters for Counters.Counter;\nCounters.Counter private _clientIds;\nCounters.Counter private _offerIds;\n\naddress payable _agence;\n\n\nuint256 counterClient;\nuint256 counterOffer;\nuint256 totalprice;\n\naddress _addrClient;\naddress payable _addrAgence;\nbool isRegistered;\n\n\nmapping (address => Client) public clients;\n\nmapping (uint256 => Offer) public offers;\n\n//enum Destination { NewYork, Maldives, Vancouver, Barcelona }\n\n constructor(address owner) public {\n    transferOwnership(owner);\n }\n\nfunction setTourToken(address tourAddress) external onlyOwner {\n  _tour = TourToken(tourAddress);\n}\n\n/* Variables d'tat */\nstruct Client {\n    string email;\n    string password;\n    bool isClient;\n    uint256 no_reservation;\n    uint date_registration;\n \n}\n\nstruct Offer {\n    \n    string destination;\n  //  bool isTransport;\n  //  bool isSejour;\n  //  bool isRestauration;\n  //  bool isActivites;\n  //  bool isTours;\n   uint256 priceinTokens;\n}\n\nfunction register(string memory _email, string memory _password) public {\n   // _addrClient = 0x44F31c324702C418d3486174d2A200Df1b345376;\n   // counterClient++;\n    _clientIds.increment();\n    //counterClient++;\n    require (clients[msg.sender].isClient == false, 'only nonClients can use this function');\n    //uint newclientId = _clientIds.current();\n    clients[msg.sender] = Client(_email, _password, true, 0, block.timestamp);\n    isRegistered = clients[msg.sender].isClient;\n   // return confirmRegister();\n} \n\nfunction confirmRegister() public view returns (bool) {\n    return isRegistered;\n}\n\n function clientId() public view returns (uint256) {\n        \n        return _clientIds.current();\n    } \n\nmodifier onlyClient (){\n            require (clients[msg.sender].isClient == true, \"only a client can call this function\");\n            _;\n        } \n\nfunction login(string memory _email, string memory _password) public view onlyClient returns (bool) {\n    require(keccak256(bytes(_email)) == keccak256(bytes(clients[msg.sender].email)) &&  keccak256(bytes(_password)) == keccak256(bytes(clients[msg.sender].password)), \"a client should provide the correct email and password used for his registration.\");\n    return true;\n} \n\n\nfunction getClient(address _addr) public view returns (Client memory) {\n        return clients[_addr];\n    }\n \n function choose_offer(string memory _destination, bool _isSejour, bool _isTransport, bool _isRestauration, bool _isActivities, bool _isTours) public {\n    counterOffer++;\n\n    //_offerIds.increment();\n    uint256 newofferId = counterOffer;\n    uint price;\n    uint PRICE_SEJOUR;\n    uint PRICE_TRANSPORT;\n    uint PRICE_RESTAURATION;\n    uint PRICE_ACTIVITIES;\n    uint PRICE_TOURS;\n    if (keccak256(bytes(_destination)) == keccak256(bytes(\"NewYork\"))) {\n        if (_isSejour == true) {\n        PRICE_SEJOUR = 100;\n        price +=100;\n        }\n        if (_isTransport == true) {\n        PRICE_TRANSPORT = 50;\n        price +=50;\n        }\n        if (_isRestauration == true) {\n        PRICE_RESTAURATION = 50;\n        price +=50;\n        }\n        if (_isActivities == true) {\n        PRICE_ACTIVITIES = 50;\n        price +=50;\n        }\n        if (_isTours == true) {\n        PRICE_TOURS = 50;\n        price  += 50;\n        }\n    }\n    else if (keccak256(bytes(_destination)) == keccak256(bytes(\"Maldives\"))) {\n         if (_isSejour == true) {\n        PRICE_SEJOUR = 150;\n        price +=150;\n        }\n        if (_isTransport == true) {\n        PRICE_TRANSPORT = 30;\n        price +=30;\n        }\n        if (_isRestauration == true) {\n        PRICE_RESTAURATION = 50;\n        price +=50;\n        }\n        if (_isActivities == true) {\n        PRICE_ACTIVITIES = 20;\n        price +=20;\n        }\n        if (_isTours == true) {\n        PRICE_TOURS = 50;\n        price  += 50;\n        }\n    }\n    else if (keccak256(bytes(_destination)) == keccak256(bytes(\"Vancouver\"))) {\n        if (_isSejour == true) {\n        PRICE_SEJOUR = 80;\n        price +=80;\n        }\n        if (_isTransport == true) {\n        PRICE_TRANSPORT = 40;\n        price +=40;\n        }\n        if (_isRestauration == true) {\n        PRICE_RESTAURATION = 40;\n        price += 40;\n        }\n        if (_isActivities == true) {\n        PRICE_ACTIVITIES = 30;\n        price +=30;\n        }\n        if (_isTours == true) {\n        PRICE_TOURS = 30;\n        price  += 30;\n        }\n    }\n    else if(keccak256(bytes(_destination)) == keccak256(bytes(\"Barcelona\"))) {\n      if (_isSejour == true) {\n        PRICE_SEJOUR = 50;\n        price +=50;\n        }\n        if (_isTransport == true) {\n        PRICE_TRANSPORT = 30;\n        price +=30;\n        }\n        if (_isRestauration == true) {\n        PRICE_RESTAURATION = 30;\n        price += 30;\n        }\n        if (_isActivities == true) {\n        PRICE_ACTIVITIES = 20;\n        price +=20;\n        }\n        if (_isTours == true) {\n        PRICE_TOURS = 50;\n        price  += 50;\n        }\n    }\n    else revert(\"Invalid destination\");\n   // uint totalPrice = offers[newofferId].priceinTokens;\n    offers[newofferId] = Offer(_destination, price);\n   // totalprice = offers[newofferId].priceinTokens;\n   // Offer memory c = offers[newofferId];\n   //counterOffer = _offerIds.current();\n   // return (c.priceinTokens);\n  // return _offerIds.current();\n}\n\n function getofferID() public view returns (uint256) {\n  \n    return counterOffer;\n  \n}\n\nfunction getPrice(uint256 _id) public view returns(uint256) {\n    Offer memory c = offers[_id];\n    \n    return (c.priceinTokens);\n}\n\nfunction getOffer(uint256 _id) public view returns (Offer memory) {\n        return offers[_id];\n    } \n \n \nfunction reserveByClient(uint _id) public {\n   \n    _tour.operatorSend(msg.sender, _addrAgence, offers[_id].priceinTokens, \"\", \"\");\n    clients[msg.sender].no_reservation = clients[msg.sender].date_registration;\n  }\n  \n}",
  "sourcePath": "/Users/itanis/Desktop/projets/tourisme-back/contracts/Tourisme.sol",
  "compiler": {
    "name": "solc",
    "version": "0.6.12+commit.27d51765.Linux.g++"
  },
  "schemaVersion": "3.3.1",
  "updatedAt": "2020-12-03T15:55:39.842Z",
  "devdoc": {
    "kind": "dev",
    "methods": {
      "owner()": {
        "details": "Returns the address of the current owner."
      },
      "renounceOwnership()": {
        "details": "Leaves the contract without owner. It will not be possible to call `onlyOwner` functions anymore. Can only be called by the current owner. NOTE: Renouncing ownership will leave the contract without an owner, thereby removing any functionality that is only available to the owner."
      },
      "transferOwnership(address)": {
        "details": "Transfers ownership of the contract to a new account (`newOwner`). Can only be called by the current owner."
      }
    },
    "version": 1
  },
  "userdoc": {
    "kind": "user",
    "methods": {},
    "version": 1
  }
}